:0200000480007A
:100000006F00906C6F00D04C6F00106B6F00D06A67
:100010006F00906A6F00506A6F00106A6F00D069BD
:100020006F0090696F0050696F0010696F00D068B1
:100030006F0090686F0050686F0010686F00D067A5
:100040006F0090676F0050676F0010676F00D06699
:100050006F0090666F0050666F0010666F00D0658D
:100060006F0090656F0050656F0010656F00D06481
:100070006F0090646F0050646F0010646F00107523
:10008000976101009381010317010300130181F7B8
:1000900017050000130505F713651500731055309B
:1000A0001385C1D0177601001306C6803306A6401B
:1000B00093050000EF90006A179500001305056492
:1000C000EF80D03EEF9080591305000093050000AB
:1000D00013060000EF00C0006F80903E67800000B4
:1000E000130101F6138605002326A1009305C10024
:1000F0001305E105232E1108232C8108232A9108DA
:1001000023282109232631092324410923225109C7
:1001100023206109232E7107232C81072326B10791
:10012000EF50006013051000EF40902A9307050080
:1001300013052000231EF100EF40902993020500D3
:1001400013053000231F5100EF40902813030500D2
:100150001305400023106102EF4090279303050030
:1001600013055000232C7102EF4090266314050004
:10017000130570008320C101232EA102639C00049B
:100180000316010263060606138901D4937925003C
:10019000137A1500B338300123222103231E0104F2
:1001A00013784500B30A1A01631A0804130B007D83
:1001B000B35D5B03232AB10363140A346382090627
:1001C000330EBA03B30EC9012326D103630A080410
:1001D0006F00400413071000E398E0FA03140102D3
:1001E000E31404FAB734153493855441232EB10037
:1001F000930660062310D1026FF01FF9938B1A004B
:10020000130C007DB35D7C03232AB103631A0A2E0D
:10021000E39809FA338FBA03B30FE9012328F103F6
:100220008327C10393F21700638E02000316C101F6
:100230008325810203254103EF6080118327C103D9
:100240002320A10413F32700631E032C93F347001C
:10025000638A0300032601038315C10103254103BB
:10026000EF601015032681036318060C9306100037
:10027000232CD102176901001309C9AD8329810319
:10028000130C0000139A2900B3083A0113981800C0
:10029000232C0103EF50C042832A8103232A010447
:1002A000232C010463820A04930510001305C10185
:1002B000EF50100483554105EF40902A130B0500C1
:1002C0009305F0FF1305C101231A6105EF50500299
:1002D00083554105EF40D028231AA104630A0C225C
:1002E000130C1C00E3928AFDEF50803EEF50403F1C
:1002F000EF5000400326090083264900930B0500B8
:10030000138C0500EF80006EE34A05F613850B00A1
:1003100093050C00EF80807D631405001305100029
:10032000930DA00033DEAD02032F8103930E1E0058
:10033000B30FDF03232CF103EF5080381305C10105
:10034000EF60007CEF50C038EF5080399304050017
:100350000315C10193050000EF50800F93050500C0
:100360000315E101EF50C00E9305050003150102CE
:10037000EF50000E9305050003154103EF50400DAB
:10038000B7820000938752B013040500E30AF50C0E
:1003900063E2A71CB72B0000138C2B8FE3068509A3
:1003A000375F0000930FFFEA6310F5211745010046
:1003B00013058568EF80906DB7E20000B757000025
:1003C000377300009389425A138A8760130993A7F1
:1003D00093032000938B0900130B0A00930A090072
:1003E00023247100938D41CF03A70D00E308070A72
:1003F000232A91072328A107930C0000130D000066
:100400006F00400333882800035FC8FF938C1C00F3
:1004100083AF0D00330DAF0193920C0193170D01C3
:1004200013130D0193DC020113DC0701135D03417B
:1004300063F8FC71139C4C00B3059C01939025005C
:1004400013860006B308260083A6C8FD239E08FE77
:1004500013F81600630C080203D668FF232211016B
:10046000630656039306090093850C0017450100A7
:1004700013050565EF80104E03254100035EC5FF9F
:100480008326C5FD930E1E00231ED5FF13FF2600F5
:1004900063040F04B30F9C0193922F00938702060D
:1004A00033832700035683FF23226100630666031C
:1004B00093060A0093850C00174501001305456358
:1004C000EF8050498323410003D7C3FF83A6C3FDB8
:1004D00093051700239EB3FE330C9C0113162C00CA
:1004E00093F0460093080606E38E00F0338C280054
:1004F0000356ACFF63107663035FCCFF6FF01FF110
:1005000023242103E39E09CAE30C08D06FF09FD097
:10051000231BA10413051000E388AADC130C1000B0
:100520006FF09FD88310E1010317C1018325C10239
:100530000325410313940001930641043366E4004C
:10054000EF3000338324C10393F54400E39405D0D6
:100550006FF05FD1B7900000138620A0630AC568D2
:10056000B7F900009388599F6310150517450100DE
:100570001305854FEF809051B72A000037EB00003C
:1005800037980000138A7AFD13094B719309A8E389
:1005900013053000938B0900130B0A00930A09001E
:1005A0002324A1006FF01FE4B70901001309F0FF35
:1005B000138CF9FF23242101938D41CFEF50400F7D
:1005C00083254103B30B85011745010013058558A9
:1005D000EF80503893850400174501001305055935
:1005E000EF80503713850400EF508010130605008C
:1005F00093860500174501001305C558EF80903517
:1006000013850400EF50C00E139A0B01130600006F
:1006100093060000135B0A41EF80C02C6356A004D0
:100620008323810383AA0D0033855303EF80405356
:10063000130C05001385040093890500EF50400B4F
:10064000130605009386050013050C009385090029
:10065000EF709030130605009386050017450100E2
:100660001305C553EF80102F03A70D0083268103C8
:100670001745010013050554B385E602EF80902D60
:100680009745010093858554174501001305C5540E
:10069000EF80502C97450100938585551745010043
:1006A00013054555EF80102B97450100938505569E
:1006B0001745010013050556EF80D0299305040066
:1006C0001745010013058556EF80D028032CC10380
:1006D00013741C00630E040E83A50D00638A050EBF
:1006E000930A0000174901001309095693904A0024
:1006F0003386500193182600138808063305280016
:10070000035665FF93850A0013050900EF809024C6
:10071000938E1A00139F0E01935B0F01939F4B0062
:10072000B3827F0103AE0D00939722001383070667
:1007300013050900330A230093850B0063F8CB09E6
:1007400003566AFFEF80102193831B00139C030163
:1007500093590C0113974900B306370183AA0D0082
:10076000139426009305040633862500130509001B
:100770009385090063FC5905035666FFEF80901DC1
:1007800013881900131E0801935B0E01939E4B0002
:10079000338F7E0183A80D00931F2F0093820F06D5
:1007A00013050900B387220093850B0063F01B0338
:1007B00003D667FFEF80101A13831B0003A50D00FB
:1007C000131A0301935A0A01E3E2AAF2032CC103AC
:1007D00013792C00630E090E83A00D006384004C76
:1007E000130A0000174C0100130CCC4793194A0060
:1007F0003387490193162700938506063386250023
:10080000035686FF93050A0013050C00EF80901431
:1008100013041A0013180401935B0801139E4B0084
:10082000B30E7E0183A80D00139F2E00930F0F06B9
:1008300013050C00B3822F0093850B0063F81B098E
:1008400003D682FFEF80101193871B00139A0701D4
:10085000935A0A0113994A00B303590103A30D00E7
:10086000939923001387090613050C00B30627008C
:1008700093850A0063FC6A0403D686FFEF80900D1F
:1008800093851A009398050113D4080113184400A6
:10089000B30B880003A60D00139E2B00930E0E06CB
:1008A00013050C00338F2E00930504006370C402FF
:1008B00003568FFFEF80100A930F140003A50D005D
:1008C00093920F0113DA0201E362AAF2032CC1032F
:1008D00093704C0003A30D00638A000E130A0000FE
:1008E000974A0100938ACA39630C031C93174A0084
:1008F000338947019313290093890306338729001D
:100900000356A7FF93050A0013850A00EF809004A1
:1009100013061A009315060113D405019318440019
:100920003388880083A60D00931B2800138E0B06C6
:1009300013850A00B30E2E00930504006378D408D3
:1009400003D6AEFFEF801001930F140093920F01B6
:1009500013DA0201131C4A0033034C0103AF0D00EC
:10096000931723001389070613850A00B303290090
:1009700093050A00637CEA0503D6A3FFEF80807D20
:1009800013071A009316070113D406011316440027
:10099000B305860083A90D009398250013880806E7
:1009A00013850A00B30B2800930504006370340319
:1009B00003D6ABFFEF80007A130E140003A50D00E1
:1009C000931E0E0113DA0E01E362AAF283A00D005A
:1009D000930B0000974A0100938A4A2C6382000E11
:1009E000139F4B00B30F7F0193922F00138C0206CD
:1009F00033032C00035643FF93850B0013850A0035
:100A0000EF80407593871B009393070193D90301EF
:100A100013974900B306370103A90D00139426006C
:100A20001306040613850A00B308260093850900FF
:100A300063F8290903D648FFEF80C0719385190038
:100A4000939B050113DA0B01131E4A00B30E4E01EE
:100A500003A80D00139F2E00930F0F0613850A00A5
:100A6000B3822F0093050A00637C0A0503D642FF78
:100A7000EF80406E13031A00131903019359090103
:100A800093974900B383370103AC0D0013972300FC
:100A90009306070613850A00338426009385090010
:100AA00063F08903035644FFEF80C06A1386190080
:100AB00003A50D009318060193DB0801E3E2ABF2F6
:100AC000630E0B0863446009174501001305852573
:100AD000EF80C07B1305E105EF4090458320C109FD
:100AE0000324810983244109032901098329C108B9
:100AF000032A8108832A4108032B0108832BC1079D
:100B0000032C8107832DC106130500001301010A80
:100B1000678000009386090093850C00174501004B
:100B200013054500EF8000630355CCFF130E15003D
:100B3000931E0E0113DF0E01231EECFF6FF01F8DBD
:100B4000832C4107032D01076FF05FA717450100B4
:100B500013058523EF8080736FF0DFF717450100E1
:100B600013058515EF808072832A8100130B3000F6
:100B7000E3926AF78320810383AD0D003385B003D0
:100B8000EF70107E1308050013850400138A05001A
:100B900093040800EF40D035130605009386050046
:100BA0001385040093050A00EF70005B130605002F
:100BB0009386050097470100938787031747010035
:100BC0001307C7001745010013058513EF808058F0
:100BD000974501009385850317450100130505140A
:100BE000EF8040571305A000EF80005C6FF09FEE90
:100BF000174501001305C5DEEF804069B7660000A8
:100C000037CA000037D90000938976E4130A2AE531
:100C10001309094B938B0900130B0A00930A09006F
:100C2000232401006FF00FFC17450100130585E632
:100C3000EF80C065B79D000037EE000093894DD866
:100C400013091E3C930E4000938B0900130A707425
:100C5000130B7074930A09002324D1016FF08FF8ED
:100C600017450100130585DAEF8040623743000025
:100C7000B7130000373700009309F39B138A9319C9
:100C80001309073493051000938B0900130B0A0016
:100C9000930A09002324B1006FF0CFF4130C000075
:100CA0006FF0DF9193734C00E38203D26FF05FE14A
:100CB0000000000000000000000000000000000034
:100CC00013050000678000001300000013000000FF
:100CD00013050000678000001300000013000000EF
:100CE00013050000678000001300000013000000DF
:100CF00013050000678000001300000013000000CF
:100D000013050000678000001300000013000000BE
:100D100013050000678000001300000013000000AE
:100D2000130500006780000013000000130000009E
:100D3000130500006780000013000000130000008E
:100D4000130500006780000013000000130000007E
:100D5000130500006780000013000000130000006E
:100D6000130500006780000013000000130000005E
:100D7000130500006780000013000000130000004E
:100D8000130500006780000013000000130000003E
:100D9000130500006780000013000000130000002E
:100DA000130500006780000013000000130000001E
:100DB000130500006780000013000000130000000E
:100DC00013050000678000001300000013000000FE
:100DD00013050000678000001300000013000000EE
:100DE00013050000678000001300000013000000DE
:100DF00013050000678000001300000013000000CE
:100E000013050000678000001300000013000000BD
:100E100013050000678000001300000013000000AD
:100E2000130500006780000013000000130000009D
:100E3000130500006780000013000000130000008D
:100E4000130500006780000013000000130000007D
:100E5000130500006780000013000000130000006D
:100E6000130500006780000013000000130000005D
:100E7000130500006780000013000000130000004D
:100E8000130500006780000013000000130000003D
:100E9000130500006780000013000000130000002D
:100EA000130500006780000013000000130000001D
:100EB0001305000067800000174501001305D59356
:100EC000EF80C03C6FF05FFF130101FC2320110095
:100ED0002322A1002324B1002326C1002328D1000E
:100EE000232AE100232CF100232E010123201103EA
:100EF0002322510223246102232671022328C103E5
:100F0000232AD103232CE103232EF103F3222034DF
:100F100013032000638862021303B0006388620039
:100F200013033000638862006F00C002EF00403E90
:100F30006F004003174501001305C587EF8000359A
:100F40006F004002174501001305C581EF80003492
:100F50006F004001174501001305E587EF8000335E
:100F60006F004002F32210340383020013053000A7
:100F70003373A3006314A3009382220093822200A0
:100F800073901234832001000325410083258100E2
:100F90000326C10083260101032741018327810124
:100FA0000328C10183280102832241020323810215
:100FB0008323C102032E0103832E4103032F8103E8
:100FC000832FC1031301010473002030730020300C
:100FD0003305A04023A4A1D21305F0FF67800000D1
:100FE0009747010093878783130850053707001040
:100FF0002320070183C61700638006062320D7003D
:1010000083C22700638A02042320570003C33700EA
:10101000630403042320670083C34700638E030235
:101020002320770003C55700630805022320A7008B
:1010300083C56700638205022320B70003C67700DB
:1010400093878700630A06002320C70003C80700B0
:10105000E31008FA678000006780000013000000BA
:101060009307800523A4F1D21305F0FF67800000E9
:101070009307800523A4F1D21305F0FF67800000D9
:101080009307800523A4F1D21305F0FF67800000C9
:101090009307800523A4F1D21305F0FF67800000B9
:1010A0009307800523A4F1D21305F0FF67800000A9
:1010B0001305F0FF6780000013000000130000001C
:1010C0009307C00023A4F1D21305F0FF678000004E
:1010D000B707048023A0A700730050106F00000022
:1010E0009307800523A4F1D21305F0FF6780000069
:1010F0009307B00023A4F1D21305F0FF678000002E
:10110000B727000023A2F500130500006780000048
:101110009307800523A4F1D21305F0FF6780000038
:101120009307800523A4F1D21305F0FF6780000028
:10113000930780FA23A4F1D2130500006780000012
:10114000130510006780000013000000130000006A
:10115000930780FA23A4F1D21305F0FF6780000003
:101160001305F5FF1335150067800000130000001C
:101170009307600123A4F1D21305F0FF67800000FC
:101180009307F00123A4F1D21305F0FF678000005C
:10119000130500006780000013000000130000002A
:1011A0009307800523A4F1D21305F0FF67800000A8
:1011B0001305F0FF6780000013000000130000001B
:1011C0009307800523A4F1D21305F0FF6780000088
:1011D00013050000678000001300000013000000EA
:1011E000B727000023A2F500130500006780000068
:1011F0001305F0FF678000001300000013000000DB
:101200001305F0FF678000001300000013000000CA
:101210009307200023A4F1D21305F0FF678000009C
:101220009307800523A4F1D21305F0FF6780000027
:101230009307A00023A4F1D21305F0FF67800000FC
:10124000130101FF232021011389C1D08327090045
:10125000232481002322910023261100938405007A
:1012600013040600638A0702130604009385040032
:101270001745010013050540EF0080598320C10088
:101280001305040003248100832441000329010085
:101290001301010167800000B7C50100130630008B
:1012A00093850520174501001305C53CEF00404913
:1012B00093021000232059006FF01FFB1300000061
:1012C00023A8A1CE130500006780000013000000D2
:1012D000138701CF032307003305A3002320A700B2
:1012E000637C250097F202009382C2D16376550099
:1012F00013050300678000009307C0001303F0FF8D
:1013000023A4F1D21305030067800000130000003E
:10131000130101FF232291002326110093071008D7
:101320009384050063CC170D9307F00263D617036F
:10133000938008FD9302100563E412021733010045
:10134000130303509398200033876800832307001A
:10135000B385630067800500930E1001638AD80F80
:1013600093045005173701001307474BB70F0010C0
:1013700023A09F0083471700638E070423A0FF006C
:10138000834027006388000423A01F0083423700A6
:101390006382020423A05F0003434700630C03023F
:1013A00023A06F00834857006386080223A01F0113
:1013B000834367006380030223A07F008345770097
:1013C000638A05001307870023A0BF00834407003A
:1013D000E39004FA8320C10083244100130101013A
:1013E000678000008320C100130E800523A4C1D3B1
:1013F0008324410013010101678000009300F04045
:10140000E3C010F79302F03F63D61203938808C03D
:101410001303F000E36613F5173701001307C756EF
:10142000939328003385E300832505003386E50088
:1014300067000600130EC00AE38EC8F963461E0358
:10144000130F9009E388E8F9930F900AE39AF8F1F3
:10145000130F80FA23A4E1D36FF0DFF737250000E4
:1014600023A2A4006FF01FF7930E600DE39AD8EF4C
:1014700023A8A1CE6FF01FF61308F00123A401D317
:101480006FF05FF59306200023A4D1D26FF09FF494
:10149000370404802320A400730050106F00000064
:1014A0009304600123A491D26FF0DFF22320210185
:1014B0001389C1D0232481001304060003260900E8
:1014C00063060602130604000324810003290100B9
:1014D0008320C10093850400832441001745010047
:1014E00013054519130101016F008032B7C60100D1
:1014F0001306300093850620174501001305851754
:10150000EF00002413081000232009016FF09FFB57
:101510008327C5006388072083280501638408208A
:10152000032805000346950003274501834648012B
:10153000B3E2C600A304550013F306026302031EC0
:10154000B383E84093050001138F030063F4750033
:10155000130F0001638AE81C338EE700834E0E00F0
:10156000930F1700130610002300D801232AF5015A
:101570006370761AB386F70183C20600130327004F
:101580009305200023005800232A650063F2751894
:10159000338E6700834E0E0013063700930630002B
:1015A0002300D801232AC50063F47616B382C7004E
:1015B00003C3020093054700130E40002300680098
:1015C000232AB50063767E14B38EB70083C60E005F
:1015D00013065700930250002300D800232AC500A9
:1015E00063F872123383C70083450300930E6700CC
:1015F000130E60002300B800232AD501637A7E1001
:10160000B386D70183C20600130677001303700068
:1016100023005800232AC500637C730EB385C700DE
:1016200083CE050093068700130E80002300D801A7
:10163000232AD500637E7E0CB382D70003C3020049
:10164000130697009305900023006800232AC50025
:1016500063F0750CB38EC70083C60E009302A7001B
:10166000130EA0002300D800232A550063727E0ABF
:1016700033835700834503001306B700930EB00071
:101680002300B800232AC50063F47E08B386C70090
:1016900083C206001303C700130EC00023005800C6
:1016A000232A650063767E06B385670083CE050036
:1016B0001306D7009306D0002300D801232AC500C3
:1016C00063F87604B382C70003C302009305E70002
:1016D000130EE00023006800232AB500637A7E021F
:1016E000B38EB70083C60E001306F7009302F00016
:1016F0002300D800232AC50063FC7200B387C7000B
:1017000003C307001307070123006800232AE5002D
:1017100093050000638403009305FFFF3387F50101
:101720006384E800678000008348480023280500A0
:1017300013F5D80F2302A8006780000013000000F3
:10174000130101FE232A910083240500232C81002C
:101750002328210123263101232E11002382040096
:1017600023840400930770FC2384F400238804007E
:101770002322B50013040500138905009309060010
:10178000930600001386050037D512139305000059
:10179000EF608053B7028000637455029350F500E8
:1017A000130700F82386E40013F3F00F13557500B8
:1017B000238264009373F50F238074002386040052
:1017C0002386340123043401A30404009705000098
:1017D000938545D4232224018320C10123280400BA
:1017E00023260400232A0400232E0400232C0400B3
:1017F000232204022320B402032481018324410113
:10180000032901018329C10013010102678000003F
:10181000130101FF23260100638C0522630A0622BF
:10182000032505003386C5009307100303474501D0
:10183000232601008326C1009372F70F63E2D70AC3
:101840000323C10093031300232671000328C10062
:1018500063E807098328C100138E18002326C101FD
:10186000832EC10063EED707032FC100930F1F0023
:101870002326F1010327C10063E4E7068326C100A4
:1018800013831600232661008323C10063EA7704D3
:101890000328C1009308180023261101032EC1005C
:1018A00063E0C705832EC100138F1E002326E101CC
:1018B000832FC10063E6F7030327C10093061700D7
:1018C0002326D1000323C10063EC67008323C100FA
:1018D00013881300232601018328C100E3F217F7C0
:1018E00093F20202E38402F423260100032EC100D6
:1018F00063E2C70B832EC100138F1E002326E10174
:10190000832FC10063E8F7090327C100930617007E
:101910002326D1000323C10063EE67068323C100A1
:1019200013881300232601018328C10063E41707ED
:101930008322C100138E12002326C101832EC10011
:1019400063EAD705032FC100930F1F002326F1017F
:101950000327C10063E0E7048326C1001383160058
:10196000232661008323C10063E677020328C100B8
:1019700093081800232611018322C10063EC57004D
:10198000032EC100930E1E002326D101032FC10098
:10199000E3F2E7F783CF05002300F50123260100DA
:1019A0000327C10063E2E70A8326C1001383160000
:1019B000232661008323C10063E877080328C10060
:1019C00093081800232611018322C10063EE5706F5
:1019D000032EC100930E1E002326D101032FC10048
:1019E00063E4E707832FC10013871F002326E1006C
:1019F0008326C10063EAD7040323C10093031300C5
:101A0000232671000328C10063E007058328C10075
:101A10009382180023265100032EC10063E6C703FA
:101A2000832EC100138F1E002326E101832FC100E6
:101A300063ECF7010327C100930617002326D100AA
:101A40000323C100E3F267F693851500E390C5DE3A
:101A50001301010167800000130000001300000063
:101A60006388050E03C605006304060E8327050080
:101A7000130101FF9386150003C747019372F70F07
:101A8000A30751000343F100937303026396030A13
:101A900003C547019375F50FA307B1000348F10093
:101AA00093780802639A080803CE4701937EFE0FDD
:101AB000A307D101034FF100937F0F02639E0F062E
:101AC00003C747019372F70FA30751000343F100C7
:101AD000937303026392030603C547019375F50FE1
:101AE000A307B1000348F100937808026396080445
:101AF00003CE4701937EFE0FA307D101034FF100F0
:101B0000937F0F02639A0F0203C747019372F70F87
:101B1000A30751000343F10093730302639E030084
:101B200003C547019375F50FA307B1000348F10002
:101B300093780802E38208F4938616002380C70096
:101B400003C6F6FFE31A06F21301010167800000E5
:101B50006780000013000000130000001300000065
:101B6000630C0602638A050203270500970600003E
:101B70009386469A2326B500834747002328C5004D
:101B8000232A05002320D50293E2270023025700D1
:101B9000732340F16304030067800000B723000C47
:101BA00017460100130606AD83A503003305C540A3
:101BB0001338150093081000339E0801B36EBE0061
:101BC00023A0D30167800000130000001300000071
:101BD00083270500034795008326050183C247013B
:101BE00033E3E200A304650093F3F20F6398060069
:101BF00013D56300137515006780000013050000FE
:101C000067800000130000001300000013000000B4
:101C10009307050063800518630E06160327050069
:101C20000345950083464701B3E2A600A38457000D
:101C300013F31600630003169373360013050000B8
:101C4000638C0308130810006380030793082000C7
:101C50006386130303470700130510002380E50084
:101C600003A7070003CE9700834E470133EFCE0151
:101C7000A384E70193FF1E0063820F1283460700CF
:101C8000B382A500130515002380D20003A7070027
:101C900003C397008343470133E86300A38407012C
:101CA00093F81300638C080E034E07003387A500DA
:101CB000130515002300C70103A7070083CE970073
:101CC000034F4701B36FDF01A384F70193761F0031
:101CD0006386060C6306A60C83420700B383A50047
:101CE000130515002380530003A8070003CE9700B7
:101CF0003383A5000347480193080500B36EC7016D
:101D0000A384D701137F1700630A0F08834F0800CD
:101D100013051500B382A5002300F30183A3070078
:101D200083C6970003C343013368D300A38407012C
:101D3000137E130063040E0603C7030013852800F7
:101D4000B38EA5002380E20003AF070083CF970086
:101D500083424F01B3E3F201A384770093F61200AC
:101D6000638E060203430F001385380023806E0044
:101D700003A7070083C89700034E470133681E017D
:101D8000A3840701937E1E00638A0E00E316A6F467
:101D90006780000013050000678000006780000076
:101DA0006780000013000000130000001300000013
:101DB000F32740F163960702B726000C174701008E
:101DC0001307478B03A60600B302E54013B31200C6
:101DD0009303100033986300B368C80023A0160172
:101DE000370E0100930EFEFF638CD501032505001D
:101DF00093F5F500034F4500B36FBF002302F501D3
:101E000067800000130000001300000013000000B2
:101E1000638E05029307000C63EAC70203270500DF
:101E2000232EB5008342870013F3F203B363C3008C
:101E300093F5F30F2304B70003464700936616009B
:101E40002302D700732840F1630408006780000074
:101E5000B728000C974E0100938ECE8103AE080088
:101E60003305D541133F1500930F1000B397EF01D1
:101E700033E7C70123A0E8006780000013000000DB
:101E800063840502032705002320B50223260500ED
:101E9000834747002328050093E2270023025700C9
:101EA000732340F16304030067800000B723000C34
:101EB000973501009385057C83A603003305B54063
:101EC0001336150013081000B318C80033EED800FD
:101ED00023A0C3016780000013000000130000006E
:101EE00063800502032705002322B50283474700CC
:101EF00093E2870023025700732340F16304030039
:101F000067800000B723000C973501009385857624
:101F100083A603003305B5401336150013081000DF
:101F2000B318C80033EED80023A0C30167800000B7
:101F30006388051263060612832705008346950011
:101F400003C74701B362D700A30455001373070208
:101F500063080310930300011305060063F4C30034
:101F60001305000103C80500930810002380070132
:101F700063FAC80E03CE1500930E20002380C7011C
:101F800063F2CE0E03CF2500930F30002380E701CC
:101F900063FACF0C83C63500130740002380D700B7
:101FA0006372C70C83C2450013035000238057009F
:101FB000637AC30A83C35500130860002380770047
:101FC0006372C80A83C86500130E7000238017016E
:101FD000637ACE0883CE7500130F80002380D7016B
:101FE0006372CF0883CF8500930690002380F701AA
:101FF00063FAC60683C295001307A000238057002A
:102000006372C70603C3A5009303B0002380670073
:1020100063FAC30403C8B5009308C0002380070116
:1020200063F2C80403CEC500930ED0002380C7011D
:1020300063FACE0203CFD500930FE0002380E701BF
:1020400063F2CF0283C6E5009302F0002380D7003D
:1020500063FAC20083C5F5002380B70067800000E3
:10206000130500006780000013000000130000004B
:10207000832705000347950083C24701A304050099
:1020800033E5E2001375E5096780000013000000E6
:102090008327050003C58701678000001300000047
:1020A00003270500834795008342470133E3F2008D
:1020B000A304650013F5020667800000130000000A
:1020C000032705008347C70093E207042306570050
:1020D00067800000130000001300000013000000E0
:1020E000032705008347C70093F2F70B2306570029
:1020F00067800000000000000000000000000000F9
:10210000130101FA232E1104631405006F10806D72
:10211000232C8104131415002326310523244105A3
:10212000232C8103330AA040130C060093190701E6
:10213000330686002328210523225105232061052B
:10214000938A0500138B0600232A9104232E710322
:10215000232A91032328A1032326B103130E05008C
:102160001309070093D9090193060600930500009F
:10217000131A2A00338586403387A6409300E7FF71
:1021800093D210001383120093737300930705001A
:102190006384030A13081000638603099304200074
:1021A000638A930693083000638E1305930B4000F7
:1021B00063827305930C500063869303130D6000D4
:1021C000638AA301835D050093072500B38EB901DF
:1021D0002310D50103DF070093872700B38FE901A0
:1021E000239FF7FF03D7070093872700B380E900F9
:1021F000239F17FE83D2070093872700338359005C
:10220000239F67FE83D307009387270033887900D5
:10221000239F07FF83D4070093872700B388990083
:10222000239F17FF83DB070093872700B38C790177
:10223000239F97FF6386D70603DD070083DD270012
:1022400003DF470083DE670083D0870083D3A700C6
:1022500003D8C70003D7E700B382A901B38FB90140
:10226000B384E901B38BD90133831900B3887900B2
:10227000B38C0901338DE900239057002391F701B6
:1022800023929700239377012394670023951701E6
:10229000239697012397A70193870701E39ED7F819
:1022A00093841500B306454163069E0093850400A0
:1022B0006FF05FEC13030000130E0000330586403F
:1022C000B307A640938DE7FF13DF1D00930E1F0099
:1022D0009310230093F37E00B3875001130705008A
:1022E0006382030C130810006382030B9302200027
:1022F00063845308930F30006386F307930B400009
:102300006388730593085000638A1303930C60007D
:10231000638C9301031D0500130725009387470075
:10232000B3062D0323AED7FE831D07009387470016
:1023300013072700338F2D0323AEE7FF831E07000B
:102340009387470013072700B3802E0323AE17FEA1
:10235000831307009387470013072700338823035D
:1023600023AE07FF83120700938747001307270058
:10237000B38F220323AEF7FF831B07009387470029
:1023800013072700B3882B0323AE17FF831C070016
:102390009387470013072700338D2C0323AEA7FF35
:1023A0006308E606831D070083102700831F47008C
:1023B000031F6700831E8700831BA7000318C70045
:1023C0008316E700B3832D031307070193870702E2
:1023D000B382200323A077FEB3882F0323A257FEE6
:1023E000B30C2F0323A417FF338D2E0323A697FFCF
:1023F000B38D2B0323A8A7FFB300280323AAB7FF9D
:10240000B38F260323AC17FE23AEF7FFE31CE6F8D9
:1024100013071E0033039300330645416306BE00D5
:10242000130E07006FF09FE937FEFFFFB38B4A41A1
:10243000330F90403369C90193860B0013050000E8
:10244000130E0000130300001308000093183F0050
:10245000B3834601B3877640938EC7FF93D22E0095
:10246000938C120013FD7C0013870300630E0D286C
:10247000930D1000630CBD139300200063021D1028
:10248000930F30006308FD0D13064000630ECD0866
:10249000130F50006304ED0793076000630AFD0209
:1024A00013070E0003AE030013150501935E05012B
:1024B0003303C301634469006F1080311383AE009E
:1024C000931D030113D50D4113030000138743002F
:1024D00093000E00032E0700931F050113D60F0172
:1024E0003303C3016358693A930EA60093920E0119
:1024F00013D502411303000013074700930C0E008D
:10250000032E0700131D0501935D0D013303C30165
:10251000635869361383AD00131F030113550F4130
:10252000130300001307470093070E00032E070054
:1025300013150501935E05013303C3016358693226
:10254000938DAE0093900D0113D50041130300004D
:1025500013074700930F0E00032E07001316050103
:10256000135F06013303C3016358692E1303AF00E1
:102570009312030113D50241130300001307470010
:10258000930C0E00032E0700131D0501935D0D0132
:102590003303C3016358692A138FAD0093170F01EA
:1025A00013D507411303000013074700930E0E00D5
:1025B000032E070013150501935205013303C301D0
:1025C000635869261383A2009310030113D50041B9
:1025D00013030000130747006398E612130F180057
:1025E000B38613416382052D13080F006FF05FE679
:1025F000332EFE01832D4700B307CF01939E0701C1
:1026000093DC0E4113930C013306BD011307470001
:10261000935003016358C91283224700938EA00090
:1026200013950E019357054113060000939C070173
:102630003303560013DD0C0163586912130FAD000C
:10264000832E8700131E0F01935F0E4113030000BA
:1026500093970F01330DD30193DC07016358A9133E
:102660009380AC00832FC70013960001935D064151
:10267000130D0000139F0D01B30CFD0193570F01C3
:1026800063589913832D07019382A70013930201C6
:1026900013550341930C000093100501338FBC01C7
:1026A00013D600016358E91303254701930EA600D2
:1026B000139D0E01135E0D41130F000093120E01C6
:1026C0003303AF0093D0020163586912032E8701D0
:1026D0009387A000939C070193DF0C411303000034
:1026E000939E0F013303C30113DD0E01635869127A
:1026F000930DAD0013960D01135506411303000011
:102700001307C701E38CE6EC832F070013160501BE
:10271000135F0601330DF301E35CA9ED832D470040
:102720001305AF009312050193DC0241130D000065
:1027300013930C013306BD011307470093500301A7
:10274000E34CC9ECB3AFBF0183224700338FF001E4
:10275000131E0F0193570E41939C0701330356003C
:1027600013DD0C01E34C69ECB3AD5D00B300BD01BA
:10277000832E870013960001935F064193970F0104
:10278000330DD30193DC0701E34CA9ED33A5D2014E
:10279000B382AC00832FC70013930201935D034102
:1027A000139F0D01B30CFD0193570F01E34C99EDFD
:1027B00033AEFE01832D0701B38EC701139D0E01B9
:1027C00013550D4193100501338FBC0113D6000141
:1027D000E34CE9EDB3AFBF0103254701B307F601B1
:1027E000939C070113DE0C4193120E013303AF00DB
:1027F00093D00201E34C69ECB3ADAD00032E870129
:102800003386B001131F0601935F0F41939E0F01A2
:102810003303C30113DD0E01E34C69EC3325C5011D
:10282000B302AD009390020113D500416FF05FED4C
:10283000B3ACCE01338D9201931D0D0113D50D4123
:102840006FF05FD9B3A0CC01B38F1D0013960F01B9
:10285000135506416FF05FD5B3A7CF013305FF00D5
:10286000931E050113D50E416FF05FD1B3A2C701CE
:10287000B38C5E00139D0C0113550D416FF05FCDBD
:10288000B3A0CC01B38F1D0013960F011355064161
:102890006FF05FC933AFC001B307E60113950701BD
:1028A000135505416FF05FC593050000EF20503AC6
:1028B000B3028B0093850A00930F0000232AA10026
:1028C000B38362419387E3FF93DC1700138E1C00F0
:1028D000939E1F00137D7E00B306DC0113060B00E0
:1028E00093070000630E0D0C13031000630C6D0AB8
:1028F00013052000630CAD0893003000630C1D0627
:10290000930D4000630CBD0513075000630CED02EE
:1029100093086000630C1D01039F060003180B0061
:102920009386260013062B00B3070F03839306003C
:10293000831C06009386260013062600338E93031D
:10294000B387C701839E0600031D060093862600F9
:10295000130626003383AE03B38767008390060017
:10296000031506009386260013062600B38DA002E9
:10297000B387B701039706008318060093862600E5
:1029800013062600330F1703B387E70103980600E9
:10299000831306009386260013062600B30C7802E4
:1029A000B3879701039E0600831E060013062600C8
:1029B00093862600330DDE03B387A7016300560A12
:1029C0002326F1012328B100839F0600831506000A
:1029D000831D2600839E2600039D4600031E46009D
:1029E0003387BF0203936600831C660083988600CA
:1029F000831086000398A600831FA600039FC600CD
:102A00008315C6000395E600B38EBE038313E6006C
:102A1000B387E7001306060193860601B30DCD03C5
:102A2000338DD701330E93033303BD01B38C1802EA
:102A30003307C301B308F803B30097013308BF029B
:102A4000B38F1001330F7502B3850F01B387E50112
:102A5000E31C56F6832FC1008325010123A0F50056
:102A600093854500B38F9F00E39C75E503264101E4
:102A70009306000013050000130300001307000075
:102A800093050000939B2600B3827A019303030011
:102A900003A30200938EF4FF1315050133076700AB
:102AA00093F73E00935D0501E356E9441387AD00BB
:102AB0009318070113D5084113070000930810006D
:102AC0001388420063F0981E638C07126386170711
:102AD00093002000638A1702130F030003A3420030
:102AE000931F050193DB0F0133076700E354E94AA5
:102AF0009387AB0013950701135505411307000099
:102B00009388180013084800930D0300032308005E
:102B1000131D0501135E0D0133076700E352E946FB
:102B20001307AE00931F070113D50F4113070000D1
:102B30009388180013084800930B03000323080030
:102B40009312050193D3020133076700E352E93E74
:102B5000938DA300139D0D0113550D411307000024
:102B6000938818001308480063EC98086F008013DE
:102B70003323C301832E4800338F6000931F0F015E
:102B800093D20F4193970201B38DD301938818001C
:102B90001308480013D507016354B90B832F48006D
:102BA0001303A500131F030193500F41930D000061
:102BB00013970001B382FD01935B07016354590A27
:102BC000032388001385AB00131D050193570D41A6
:102BD00093020000139E070133876200935C0E018D
:102BE0006354E90A938BAC0093920B0193883800ED
:102BF00013D50241130700001308C80063F4980AB4
:102C0000032E0800931C050193D00C01B303C701E8
:102C1000E35079F6832E48001387A000931B070129
:102C200093D20B419303000093970201B38DD3011C
:102C3000938818001308480013D50701E340B9F73B
:102C4000332DDE01832F4800330EA501931C0E01A6
:102C500093D00C4113970001B382FD01935B0701F0
:102C6000E34059F6B3A3FE0103238800B38E7B0033
:102C7000939D0E0193D70D41139E07013387620088
:102C8000935C0E01E340E9F6B3A06F00338F1C00A4
:102C9000931F0F019388380013D50F411308C80004
:102CA000E3E098F693851500B3869600E3EC95DC97
:102CB00093050600EF20C07993860A0093030C0069
:102CC00013060000232CA100232E2101930D0B00DD
:102CD00013890600930000002328C100232AD10095
:102CE00083970300039D0D001385F4FF1306100066
:102CF000B387A703137375009386230033878D0072
:102D00006378961A630C030E630AC30C130E20003B
:102D10006308C30B930C300063069309130F400044
:102D20006304E307930F50006302F305930B600005
:102D300063007303839206008318070013062000C4
:102D4000938643003388120333078700B387070154
:102D500083950600831E070013061600938626003F
:102D6000338DD50333078700B387A701039506008A
:102D7000031307001306160093862600330E650220
:102D800033078700B387C701839C0600031F070032
:102D90001306160093862600B38FEC0333078700D3
:102DA000B387F701839B0600831207001306160002
:102DB00093862600B3885B0233078700B387170129
:102DC0000398060083150700130616009386260055
:102DD000B30EB80233078700B387D701039D0600FF
:102DE0000315070013061600938626003303AD0271
:102DF00033078700B3876700637C960A2326B101F7
:102E0000B30D8700839C0600031F0700839B0D0002
:102E1000839F26003385EC03B3828D0033888200C4
:102E2000839D0200039E4600031F0800B30888002C
:102E300083926600839E860003980800B38F7F0309
:102E4000338D88008395A600B30C8D00031D0D0003
:102E50000393C60033878C00839C0C008398E600A4
:102E6000831B0700330EBE03B387A700B38DF701A2
:102E7000130686009386060133078700B382E203B8
:102E80003385CD01338F0E03B30E55003388A50370
:102E9000B385EE01330D930333830501B38F7803BC
:102EA000B30CA301B387FC01E36C96F4832DC1003E
:102EB0002320F9009380100013094900938D2D0001
:102EC000E3E090E20329010183204101B383830001
:102ED00013061900B3864041E36A96DE832581011B
:102EE0000329C1019306000013050000130300002D
:102EF000130700001306000093982600B38B1A01F5
:102F00009307030003A30B00138EF4FF9312050134
:102F100033076700937D3E0013D502016352E97CBD
:102F20001307A500131D070113550D4113070000DA
:102F30009308100013884B0063F0981E638C0D12E9
:102F400063861D07930F2000638AFD03930C030023
:102F500003A34B009310050193D3000133076700CF
:102F6000E354E904938DA30093920D0113D502411C
:102F7000130700009388180013084800130F03007C
:102F80000323080013150501935E0501330767004D
:102F90006354E97C1387AE009310070113D50041F9
:102FA00013070000938818001308480093030300D8
:102FB00003230800931B050113DE0B013307670091
:102FC0006352E978130FAE0013150F011355054135
:102FD00013070000938818001308480063EC980852
:102FE0006F0080133323D301832D4800B38C6F000F
:102FF00093900C0193DB004193970B01B302BE0148
:10300000938818001308480013DF07016354590A16
:10301000832048001303AF00931C030193DF0C418E
:103020009302000013970F01B38B12009353070113
:103030006354790B03238800138FA30013150F012A
:1030400093570541930B0000939E070133876B0054
:1030500013DD0E016354E90A9303AD00939B030152
:103060009388380013D50B41130700001308C800DC
:1030700063F4980A832E0800131D0501935F0D0168
:10308000330ED701E350C9F7832D48001387AF00F3
:103090009313070193DB0341130E000093970B0179
:1030A000B302BE01938818001308480013DF07011C
:1030B000E34059F633A5BE0183204800B30EAF00AC
:1030C000139D0E01935F0D4113970F01B38B1200F7
:1030D00093530701E34079F733AE1D0003238800C3
:1030E000B38DC30193920D0193D70241939E0701C3
:1030F00033876B0013DD0E01E340E9F6B3AF6000E8
:10310000B30CFD0193900C019388380013D5004156
:103110001308C800E3E098F613061600B38696007D
:10312000E36C96DCEF20C03293050500938F0A0014
:10313000130F0C0093020000930D0B0013830F007C
:10314000130E000083170F0003950D00938EF4FFFC
:1031500093081000338DA70213F73E0013082F00C9
:1031600033868D00935C2D4093535D4093F0FC00BB
:1031700093FBF307B380700363FA98146302070AA2
:103180006306170793062000630AD7028317080017
:10319000031506009308200013084F00B38EA70202
:1031A0003306860013DD2E4093DC5E401377FD006E
:1031B00093F3FC07B30B7702B3807001831608000A
:1031C0008317060093881800130828003385F60239
:1031D00033068600935E2540135D554093FCFE0048
:1031E0001377FD07B383EC02B3807000831B0800E4
:1031F000831606009388180013082800B387DB02A3
:103200003306860013D5274093DE5740137DF50023
:1032100093FCFE0733079D03B380E00063F8980A30
:10322000B3038600831E0800031D0600839B030072
:10323000B3878300831628008393070033868700B3
:10324000031548003387AE03831C0600831E680005
:10325000938848001308880033068600B3867603F7
:10326000135D274093575740937BFD0013F7F707F3
:103270003305750293D3264093D6564013FDF300D1
:1032800093F3F607B38E9E0393575540935C254006
:1032900093FCFC0013F5F7073387EB0293D65E40EF
:1032A00093DB2E4093FEFB0093FBF607330D7D026C
:1032B000B380E000B383AC02B387A001B38C7E037C
:1032C00033857700B3009501E3EC98F423201300D5
:1032D000130E1E0013034300938D2D00E3649EE63E
:1032E00093821200330F8F00B38F4F41E3E692E4D5
:1032F00013070000130500001308000093000000EE
:1033000093060000931D27003384BA0113030800BD
:1033100003280400138EF4FF93180501B380000105
:10332000137A3E0013DB08016350193E1306AB000D
:103330009310060113D50041930000001303100001
:10334000930844006370931E630C0A1263066A06B6
:1033500093032000630A7A029307080003284400BD
:10336000931C050113D50C01B38000016358194467
:10337000930DA50013940D01135504419300000013
:103380001303130093884800130E080003A80800D5
:10339000131A0501135B0A01B38000016358193C3D
:1033A0001306AB009310060113D5004193000000F3
:1033B00013031300938848009303080003A8080030
:1033C0009317050193DC0701B3800001635819349A
:1033D000938FAC00939D0F0113D50D419300000016
:1033E0001303130093884800636C93086F008013E5
:1033F0003328880083A34800330B0A01931E0B0176
:1034000093D00E4193970001B30C76001303130081
:103410009388480013D507016354990B03AA480009
:103420001304A500131E0401935D0E41930C0000CC
:1034300013980D01B38E4C01135B08016354D90B33
:1034400003A888009303AB00939C030113D60C419F
:10345000930E000093170601B3800E0193D207016B
:103460006354190A938DA20013940D0113033300C2
:1034700013550441930000009388C8006374930AB5
:1034800003A40800131E0501135A0E0133868000A1
:10349000E350C9F683A34800930BAA00139D0B01C8
:1034A00093500D411306000093970001B30C760072
:1034B000130313009388480013D50701E34099F7DD
:1034C000B322740003AA4800330F5500931F0F0165
:1034D00093DD0F4113980D01B38E4C01135B08016E
:1034E000E340D9F7B3AB430103A88800330D7B0158
:1034F00093100D0113D6004193170601B3800E01FE
:1035000093D20701E34019F633250A01338FA20055
:10351000931F0F011303330013D50F419388C80085
:10352000E36093F69386160033079700E3EC96DC8E
:10353000EF10107213030000130E00009315130018
:10354000330ABC00035B0A00938EF4FF13071000DC
:10355000B30B3B4123107A0113FD7E0093072A0031
:103560006378971263000D0C6302ED0A13062000C6
:103570006304CD089303300063067D06930C40007E
:1035800063089D0513085000630A0D039302600051
:10359000630C5D0083502A001307200093074A0044
:1035A000338F30412311EA0183DF0700130717002F
:1035B00093872700B38D3F41239FB7FF03D40700B4
:1035C0001307170093872700B3083441239F17FF81
:1035D00003D907001307170093872700B30A39415F
:1035E000239F57FF83D607001307170093872700F1
:1035F000B3853641239FB7FE03DA07001307170090
:1036000093872700330B3A41239F67FF83DE070030
:103610009387270013071700B38B3E41239F77FF43
:103620006378970603DD070083D3270083DC470018
:1036300083D2670003D8870083D0A70003D6C700D2
:1036400083DDE700B30F3D41338F334133843C4189
:10365000B388324133093841B38A3041B30536412A
:10366000B3863D412390F7012391E7012392870020
:103670002393170123942701239557012396B7001D
:103680002397D7001307870093870701E36C97F808
:10369000130E1E0033039300E3629EEA03248105A8
:1036A0008320C10513150501832441050329010564
:1036B0008329C104032A8104832A4104032B0104C2
:1036C000832BC103032C8103832C4103032D0103AE
:1036D000832DC102135505411301010667800000C7
:1036E00033AF6700B30EE50113980E01135508417F
:1036F0006FF01F8433AD6300338EAD01931C0E0158
:1037000013D50C416FF08FBBB32E0301B30BDB015C
:10371000139D0B0113550D416FF05FC233A50301DB
:10372000B382AC00139F020113550F416FF05FCBC2
:10373000B3AE6B00B387D301139507011355054151
:103740006FF00FC2B3A76300B30DFE0093920D019B
:1037500013D502416FF01F88332D6F00B38FAE0178
:10376000939C0F0113D50C416FF0DF83B32E0E0134
:10377000B30BDB01139D0B0113550D416FF05FC3BC
:10378000B3AC6D00B3009E01139F000113550F41B0
:103790006FF00FBAB3226F00B3835B00939E0301F7
:1037A00013D50E416FF0CFB5B3AB6C00B387730187
:1037B000139E070113550E416FF0CFFBB3A2070113
:1037C000330F5500931F0F0113D50F416FF05FBBEF
:1037D000B322C701B38C5E00139D0C0113550D413C
:1037E0006FE0DFCE93050000EF10904693050500D3
:1037F00013050000EF10D0459305050013050000E8
:10380000EF1010459305050013050000EF1050441C
:103810008320C10513150501135505411301010648
:103820006780000013000000130000001300000078
:10383000130101FF23248100832685001304060061
:1038400013870500032645008325C50003250500D1
:1038500023261100EFE0DF8A930504000324810092
:103860008320C100130101016F10903E130000007E
:10387000130101FD23203103232681022324910219
:10388000232E4101232C51011307050093890600C3
:103890006314060013061000930700006304073842
:1038A00013881700B306080393882700938E370008
:1038B000938F4700138F570013836700138E770091
:1038C00013850700938787009393360063FAE30616
:1038D0003384180313050800131A34006372EA06D0
:1038E000B38ADE031385080093943A0063FAE40474
:1038F000B382FF0313850E00139832006372E8044D
:10390000B308EF0313850F00939E380063FAEE02AD
:10391000B30F630213050F00139F3F006372EF02A2
:10392000B306CE031305030013933600637AE30056
:10393000B383F70213050E00139E3300E362EEF625
:103940003307A5029385F5FF93F7C5FF138A470058
:10395000930A050093080A0013141700B3048A00A1
:10396000630E052A23222103232A610123287101E2
:1039700023268101232491012322A101370B010079
:10398000130F150013191500938F04009303000003
:1039900013081000338E9840930EFBFFB30B0F41BA
:1039A00013FC3B009306080093850F0063080C0E80
:1039B000930C1000630E9C09130D20006306AC05E8
:1039C000330606039312080113D30201B308FE0164
:1039D00093852F00130818001357F64193570701DA
:1039E000330BF600B37BDB013386FB40330CC300A3
:1039F000931C0C0113DD0C01B3026D002390AF0189
:103A000013F3F20F2390680033060603931808019E
:103A100093D70801330BBE001308180093852500C7
:103A20001357F641935B0701330C7601B37CDC013D
:103A300033867C41338DC70093120D0113D30201ED
:103A4000B308F300239F65FE93F7F80F2310FB00E4
:103A500033060603131B0801935B0B01330CBE00F6
:103A600093852500130818001357F641935C07014E
:103A7000330D9601B372DD01338692413383CB005F
:103A80009318030113DB0801B3077B01239F65FF34
:103A900093FBF70F23107C01630EE8113306060336
:103AA00093072800139D070113530D0113071800F6
:103AB000931C0701131C080193520C0193DB0C01AA
:103AC000B30CBE00135DF641135D0D013306A60174
:103AD0003376D601330DA6413307ED023386A201BA
:103AE000131D060113560D01B30256002390C500A5
:103AF00013FDF20F2390AC01138C0C0013860C0005
:103B000093820C00935CF74113DD0C013307A7018E
:103B1000B37CD701338DAC41B307FD023387AB01D2
:103B2000931C070113DD0C01B30B7D012391A5014B
:103B300013F7FB0F2311EC00130B380093180B0144
:103B400013DCF741935C0C01B387970133FDD70178
:103B5000B30B9D41338B6B0333077301131C0701B8
:103B6000935C0C0133836C00239295019377F30FE0
:103B70002312F60093D80801130848001356FB419E
:103B8000135D0601B30BAB0133FBDB013306AB4125
:103B90003387C800131C0701935C0C01B3881C0118
:103BA00013F3F80F23939501239362009385850007
:103BB000E316E8EF938313003308D500330FAF000B
:103BC000B38F2F01E31C75DC03294102032B410154
:103BD000832B0101032CC100832C8100032D4100A4
:103BE000B38684001388F6FF9375C8FF13844500DD
:103BF00023A689000324C10223A2490123A499001A
:103C000023A059018324810283290102032AC101CF
:103C1000832A81011301010367800000130400005F
:103C20006FF01FFC9384F5FF93F2C4FF938842006A
:103C300023222103232A61012328710123268101E4
:103C4000232491012322A101138A08009384620096
:103C5000930AF0FF130420001305F0FF6FF01FD24A
:103C6000130805006304054813132500B308A0409A
:103C7000338765001305000093050000930F0000D3
:103C8000930E000093983800B3066740B307D740FF
:103C90009382C7FF93D32200138E130093777E0085
:103CA000138E0600638A0728130F1000638AE71338
:103CB0009302200063805710930330006386770CD3
:103CC000130F4000638CE70993025000638257068C
:103CD0009303600063887702138E0F0083AF0600A2
:103CE00013150501135F0501B38EFE016356D63F20
:103CF000930EAF00139E0E0113550E41930E00005C
:103D0000138E4600138F0F00832F0E00131505012D
:103D100093520501B38EFE016356D63B938EA200EB
:103D200013950E0113550541930E0000130E4E001E
:103D300093820F00832F0E009317050193D3070181
:103D4000B38EFE016356D637938EA30093970E0170
:103D500013D50741930E0000130E4E0093830F00FE
:103D6000832F0E00131F050113550F01B38EFE01A3
:103D70006356D633930EA500139F0E0113550F41C2
:103D8000930E0000130E4E0093820F00832F0E003F
:103D90001315050193570501B38EFE016356D62F07
:103DA000938EA70013950E0113550541930E000045
:103DB000130E4E0093830F00832F0E0093170501FF
:103DC00093D20701B38EFE016356D62B938EA200C9
:103DD00093970E0113D50741930E0000130E4E006A
:103DE00093820F00832F0E00131F050113550F013F
:103DF000B38EFE016356D627930EA500139F0E01C6
:103E000013550F41930E0000130E4E006316C71397
:103E10009385150033871641E318B8E667800000E4
:103E2000B3AF7F00B382F701832F4E00139F0201CF
:103E300093570F41939207013385FE01130E4E00F5
:103E400093D702016358A61283234E009387A700DD
:103E5000139507019352054113050000139F0201BA
:103E6000B3027500935E0F0163585612938EAE0035
:103E7000832F8E0093920E0113DF02419302000004
:103E800093170F013385F20193DE07016358A612E1
:103E90008323CE00938EAE0013950E0193570541F8
:103EA00013050000139F07013305750093520F019E
:103EB0006358A6129382A200832F0E01139502016C
:103EC000135F05411305000093170F01B302F501BD
:103ED00093DE07016358561283234E01938EAE0082
:103EE00093920E0193D7024193020000139F0701A2
:103EF0003385720093570F016358A6129387A7006A
:103F000013950701832F8E01135F0541931E0F0147
:103F10001305000093D20E01B30EF5016358D613BA
:103F20001385A2009312050113D50241930E0000E0
:103F3000130ECE01E30EC7ED83230E00131505010A
:103F400093570501B38E7E00E35CD6ED938EA700F8
:103F5000832F4E0013950E0193570541930E0000D9
:103F6000939207013385FE01130E4E0093D7020191
:103F7000E34CA6ECB3A3F301338F770083234E0009
:103F8000931E0F0193D20E41139F0201B3027500DD
:103F9000935E0F01E34C56ECB3AF7F00B387FE0195
:103FA000832F8E0013950701135F054193170F01AF
:103FB0003385F20193DE0701E34CA6ECB3A3F301D2
:103FC000338F7E008323CE0093120F0193D70241DB
:103FD000139F07013305750093520F01E34CA6ECC4
:103FE000B3AF7F00B387F201832F0E01939E0701C9
:103FF00013DF0E4193170F01B302F50193DE0701A2
:10400000E34C56ECB3A3F301338F7E0083234E01C0
:1040100013150F0193570541139F07013385720054
:1040200093570F01E34CA6ECB3AF7F00B38EF701BB
:1040300093920E01832F8E0113DF0241931E0F0115
:1040400093D20E01B30EF501E34CD6EDB3A3F30109
:10405000338F720093170F0113D507416FF05FED97
:10406000B3A3F201B30775009392070113D5024180
:104070006FF09FD933AFF3013385E201931305014C
:1040800013D503416FF09FD5B3A3F201338F7700AF
:1040900093120F0113D502416FF09FD1B3A2F30128
:1040A000B30755009393070113D503416FF09FCDDC
:1040B00033AFF2013385E3019312050113D50241B9
:1040C0006FF09FC9B327FF01B383F200139F030171
:1040D00013550F416FF09FC5B327FE01B302FF00D8
:1040E0009393020113D503416FF09FC113050000A4
:1040F00067800000130000001300000013000000A0
:104100006306051A130101FF23268100B303A040B3
:104110001314150033088600930F0000930200006B
:1041200093932300B3088840330618411303E6FF36
:1041300013571300130E170093972F00937E7E00E2
:10414000B387F5001387080063820E0C130F10006D
:104150006382EE0B130620006384CE081303300045
:1041600063866E06130E40006388CE05130F500061
:10417000638AEE0313066000638CCE00839E080002
:1041800013872800938747003383DE0223AE67FE40
:10419000031E07009387470013072700330FDE0233
:1041A00023AEE7FF03160700938747001307270096
:1041B000B30ED60223AED7FF031307009387470041
:1041C00013072700330ED30223AEC7FF031F0700D8
:1041D00093874700130727003306DF0223AEC7FE8D
:1041E000831E070093874700130727003383DE02EF
:1041F00023AE67FE031E07009387470013072700BF
:10420000330FDE0223AEE7FF6304E80823249100A6
:1042100023222101232031018319070003192700DC
:1042200083144700031F6700831E8700031EA70037
:104230000313C7000316E700B389D9021307070168
:10424000938707023309D90223A037FFB384D4022E
:1042500023A227FF330FDF0223A497FEB38EDE02D3
:1042600023A6E7FF330EDE0223A8D7FF3303D302D2
:1042700023AAC7FF3306D60223AC67FE23AEC7FED0
:10428000E31CE8F88324810003294100832901000D
:1042900093821200B38FAF0033887840E31455E85F
:1042A0000324C10013010101678000006780000042
:1042B000630C05229316060193131500B302A04068
:1042C00093D6060133867500930F00009392220067
:1042D000B30576403307B6401303E7FF9357130047
:1042E0001388170093787800938705006384080A81
:1042F000130E10006386C809930E2000638AD80746
:10430000130F3000638EE805130740006382E80452
:10431000130350006386680213086000638A080173
:1043200083D8050093872500338E16012390C5019D
:1043300083DE070093872700338FD601239FE7FF93
:1043400003D70700938727003383E600239F67FE88
:1043500003D8070093872700B3880601239F17FF20
:1043600003DE070093872700B38EC601239FD7FF84
:1043700003DF0700938727003387E601239FE7FECB
:1043800003D307009387270033886600239F07FF26
:104390006306F614130101FF2326810003D40700EE
:1043A00003DF270083DE470003DE670003D38700B7
:1043B00083D8A70003D8C70003D7E700338486005B
:1043C000338FE601B38ED601338EC6013383660088
:1043D000B3881601338806013387E60023908700EF
:1043E0002391E7012392D7012393C7012394670008
:1043F00023951701239607012397E7009387070169
:10440000E31EF6F8938F1F00338655406302F50DC7
:10441000B3057640B307B6401384E7FF135F14007B
:10442000930E1F0013FE7E0093870500E3080EF62F
:1044300013031000630E6E069308200063021E072C
:104440001308300063060E0513074000630AEE02EE
:1044500013045000630E8E00130F60006318EE0902
:1044600003D3070093872700B3886600239F17FFB5
:1044700003D807009387270033870601239FE7FEB1
:1044800003D4070093872700338F8600239FE7FF1D
:1044900083DE070093872700338ED601239FC7FF53
:1044A00003D3070093872700B3886600239F17FF75
:1044B00003D807009387270033870601239FE7FE71
:1044C000E31EF6EC938F1F0033865540E312F5F59B
:1044D0000324C1001301010167800000938F1F00B6
:1044E00033865540E316F5DF6780000083DE050064
:1044F00093872500338ED6012390C5016FF05FF6B8
:10450000630A0520931E250013131500130101FDF6
:1045100093880500B38ED50133836600130E000027
:10452000B305D3409382E5FF93D3120013871300A2
:1045300093171E00937F7700B307F60013870600DA
:1045400013080000638E0F0C130F1000638CEF0B29
:1045500093052000638CBF0893023000638C5F06D4
:1045600093034000638C7F04130F5000638CEF03B0
:1045700093056000638CBF0003980700839F0600CB
:1045800093872700138726003308F80383920700D8
:10459000831307009387270013072700338F7202C6
:1045A0003308E80183950700831F070093872700DE
:1045B00013072700B382F5033308580083930700DD
:1045C000031F07009387270013072700B385E30322
:1045D0003308B800839F07008312070093872700E2
:1045E00013072700B3835F02330878008395070021
:1045F000031F07009387270013072700B38FE503E6
:104600003308F8018392070083130700130727007C
:1046100093872700B38572023308B8006300E30E66
:104620002326810223249102232221032320310304
:10463000232E4101232C5101232A610123287101DA
:104640002326810123249101839407008319070005
:10465000831C2700839A270003994700031C470007
:10466000B385340303946700831B6700839387003B
:10467000031B87008392A700031AA700839FC7002C
:104680008319C700039FE700B38A9A038314E700E6
:104690003308B8001307070193870701B30C890398
:1046A00033095801330C740333049901B38B63034A
:1046B000B3058401B3834203338B7501B3823F0397
:1046C000330A7B00B30F9F02B3095A003388F90104
:1046D000E31CE3F60324C10283248102032941027F
:1046E00083290102032AC101832A8101032B41018D
:1046F000832B0101032CC100832C810023A008011E
:1047000093884800330EAE00E39C1EE113010103C1
:1047100067800000678000001300000013000000A5
:1047200063000528130101FC93030600131615000E
:10473000232C9102232A210323283103232E8102D3
:104740009389060023264103232451032322610376
:1047500023207103232E8101232C9101232AA101FF
:104760002328B10113090500B38FC300930600008D
:10477000930400001394260033848500938209007B
:10478000130A00002326B10033887F401303E8FF9B
:10479000135513009305150013F7750013850300D7
:1047A0009385020093070000630E070C9308100026
:1047B000630C170B930A2000630C5709130B30008E
:1047C000630C6707930B4000630C7705130C5000D4
:1047D000630C8703930C6000630C970183970300BD
:1047E000039D020013852300B385C200B387A7038E
:1047F000831D0500039E050013052500B385C50034
:10480000B38ECD03B387D701031F050003980500BE
:1048100013052500B385C50033030F03B387670075
:10482000031705008398050013052500B385C5000F
:10483000B30A1703B3875701031B0500839B0500C9
:1048400013052500B385C500330C7B03B3878701AF
:10485000831C0500039D050013052500B385C500D5
:10486000B38DAC03B387B701031E0500839E05001B
:1048700013052500B385C500330FDE03B387E701B9
:104880006386AF0A3383C50003970500031805004C
:10489000831B0300031B25003308E802B308C30091
:1048A000338CC800839A0800831D4500031D0C004B
:1048B000B30CCC00031F6500B385CC00831E8500BC
:1048C000330B7B03839C0C00031EA500039C050097
:1048D0003387C5000313C500831B0700B305C7005A
:1048E0008318E50003970500B38D5D03B3870701C7
:1048F000B38A670113050501B385C500330FAF0304
:104900003388BA01338D9E03B30EE801B30C8E03D6
:10491000338EAE01330C730333039E01338BE802F5
:10492000B30B8301B3876B01E39EAFF42320F40044
:1049300013051A0013044400938222006306A900A1
:10494000130A05006FF05FE48325C100138414008F
:10495000B383C300B3862601B38FCF0063864401BF
:10496000930404006FF01FE10324C1038324810337
:104970000329410383290103032AC102832A8102F7
:10498000032B4102832B0102032CC101832C8101E3
:10499000032D4101832D01011301010467800000F3
:1049A00067800000130000001300000013000000E7
:1049B00063080520130101FE13181500232E810042
:1049C000232C9100232A2101232831012326410190
:1049D0002324510123226101930F05001384050054
:1049E00093840600930E0600B308060193020000AC
:1049F00093030000139E2200330EC40113830400AE
:104A0000130F0000B387D8411385E7FF93551500B6
:104A100013861500937936001305030013870E00E3
:104A200013090000638C0908930610006380D906FF
:104A3000130A20006386490303990E00831A0300BA
:104A400013872E0033050301330B590393552B4075
:104A500093575B4013F6F50093F9F70733093603D4
:104A6000031A070083160500130727003305050105
:104A7000B30ADA0213DB2A4093D55A401376FB00BF
:104A800093F7F507B309F60233093901031A070052
:104A9000831605001307270033050501B30ADA0260
:104AA00013DB2A4093D55A401376FB0093F7F507A2
:104AB000B309F602330939016386E80A330A0501AE
:104AC00083160700831A0500031B0A00B3070A01B7
:104AD00083152700039A0700338507010316470053
:104AE000B3895603831A05008316670013078700EE
:104AF00033050501B385650393D7294013DB59407E
:104B00009379FB0793F7F7003306460313DA254042
:104B100093D55540137BFA0013FAF507B386560375
:104B2000935A26401356564093F5FA00937AF607A7
:104B3000B387370393D9264093D6564013F6F9002E
:104B400093F9F607330B4B033309F900338A550306
:104B5000B3056901B30A3603B387450133895701A9
:104B6000E39EE8F423202E0113071F00130E4E00CE
:104B7000130323006386EF00130F07006FF09FE815
:104B8000138E1300B38E0E01B382F201B3880801B5
:104B90006386E30193030E006FF0DFE50324C10198
:104BA000832481010329410183290101032AC100D2
:104BB000832A8100032B410013010102678000005A
:104BC00067800000000000000000000000000000FE
:104BD0009307500063E4A704170701001307C7DE1B
:104BE00013152500B302E50003A30200B303E3009D
:104BF0006780030003A581D16780000003A501D26F
:104C00006780000003A5C1D16780000003A5C1CF64
:104C10006780000003A581CF6780000013050000B6
:104C20006780000013000000130000001300000064
:104C3000B347B50093F21700B7A6FFFF1383160022
:104C4000B303504033F6630093D515003347B600E5
:104C50001318070193580801135E1500B34E1E0187
:104C600013FF1E00B30FE041B3F26F0093D718009B
:104C7000B3C6F2009393060113D6030193552500A2
:104C800033C7C50013781700B308004133FE68002E
:104C9000935E1600334FDE01931F0F0193D20F0175
:104CA00093573500B3C6570093F316003306704090
:104CB000B375660013D7120033C8E50093180801D6
:104CC00013DE0801935E450033CFCE01937F1F00B2
:104CD000B302F041B3F7620093561E00B3C3D7008E
:104CE0001396030193550601135755003348B70037
:104CF00093781800330E1041B37E6E0013DF150059
:104D0000B3CFEE0193920F0193D602019357650042
:104D1000B3C3D70013F61300B305C04033F86500E2
:104D200013D71600B348E800139E0801935E0E01E6
:104D300013557500334FD501937F1F00B302F04127
:104D400033F3620093D61E00B347D3009393070159
:104D500013D503016780000013000000130000005A
:104D60009377F50FB3C6B70093F2160037A7FFFF8E
:104D700013031700B303504033F6630093D51500B7
:104D80003348B6009318080113DE080193DE1700BC
:104D900033CFCE01937F1F00B306F041B3F266001C
:104DA00013571E00B3C3E200139603019355060187
:104DB00013D82700B348B80013FE1800B30EC04143
:104DC00033FF6E0093DF1500B346FF019392060197
:104DD00013D7020193D3370033C6E300937516004F
:104DE0003308B040B3786800135E1700B3CEC80133
:104DF000139F0E01935F0F0193D64700B3C2F601D4
:104E000013F71200B303E040B3F5630013D61F009D
:104E100033C8C5009318080113DE080193DE57005C
:104E200033CFCE01937F1F00B306F041B3F266008B
:104E300013571E00B3C3E2009395030113D6050177
:104E400013D86700B348C80013FE1800B30EC04162
:104E500033FF6E00935F1600B346FF019392060185
:104E600013D7020193D77700B3C3E70093F513007C
:104E70003306B0403378660093581700334E18015C
:104E8000931E0E011355850013DF0E01B34FE5018C
:104E900093F61F00B302D04033F7620093571F0010
:104EA000B343F7009395030113D60501135815007A
:104EB000B348C80013FE1800B30EC04133FF6E00A4
:104EC000935F1600B346FF019392060113D70201C8
:104ED00093572500B3C3E70093F513003306B040A2
:104EE0003378660093581700334E1801931E0E0155
:104EF00013DF0E01935F3500B3C6EF0193F2160086
:104F000033075040B373670093571F00B3C5F300D6
:104F100013960501135806019358450033CE080136
:104F2000937E1E00330FD041B37F6F00935618005D
:104F3000B3C2DF0013970201935307019357550043
:104F4000B3C5770013F615003308C040B378680086
:104F500013DE1300B3CEC801139F0E01935F0F0140
:104F600093566500B3C2F60113F71200B303E04095
:104F7000B3F7630093D51F0033C6B70013180601BB
:104F80009358080113557500334E1501937E1E008A
:104F9000330FD04133736F0093DF1800B346F30132
:104FA0009392060113D502016780000013000000F0
:104FB0001377F50F3346B70093721600B7A7FFFFBC
:104FC00013831700B3035040B3F6630093D5150065
:104FD00033C8B6009318080113DE0801935E17006A
:104FE00033CFCE01937F1F003306F041B3726600CA
:104FF00093571E00B3C3F2009396030193D50601A5
:1050000013582700B348B80013FE1800B30EC04170
:1050100033FF6E0093DF15003346FF019312060144
:1050200093D7020193533700B3C6F30093F51600EC
:105030003308B040B378680013DE1700B3CEC80160
:10504000139F0E01935F0F0113564700B342F60101
:1050500093F71200B303F040B3F5630093D61F003B
:1050600033C8D5009318080113DE0801935E57007A
:1050700033CFCE01937F1F003306F041B372660039
:1050800093571E00B3C3F2009395030193D6050115
:1050900013586700B348D80013FE1800B30EC04180
:1050A00033FF6E0093DF16003346FF0193120601B3
:1050B00093D7020113577700B343F70093F513001A
:1050C000B306B04033F8660093D81700334E18018A
:1050D000931E050113DF0E0113160E01935F8F005F
:1050E00093520601B3C75F0013F71700B303E04004
:1050F000B3F5630093D6120033C8D50093180801A6
:1051000013DE080193DE1F0033CFCE0113761F009C
:10511000B302C040B3F7620013571E00B3C3E700E9
:105120009395030193D6050113D82F00B348D800F7
:1051300013FE1800B30EC04133FF6E0013D61600E5
:10514000B342CF009397020113D7070193D33F00D7
:10515000B3C5E30093F615003308D040B378680078
:10516000135E1700B3CEC801139F0E0193520F01B7
:1051700013D64F00B347560013F71700B303E040B0
:10518000B3F5630093D6120033C8D5009318080115
:1051900013DE080193DE5F0033CFCE0193721F0050
:1051A00033065040B377660013571E00B3C3E700C1
:1051B0009395030193D6050113D86F00B348D80027
:1051C00013FE1800B30EC04133FF6E0093D21600D9
:1051D00033465F009317060113D7070193DF7F0063
:1051E000B3C3EF0093F51300B306B04033F8660085
:1051F00093581700334E1801131F0E011355050164
:10520000937EF50F93520F0133C65E00937716001D
:105210003307F040B37F670093D31200B3C57F001C
:105220009396050113D8060193D81E0033CE0801CA
:10523000137F1E00B302E04133F66200935718005B
:105240003347F600931F070193D30F0193D52E0028
:10525000B3C6750013F81600B308004133FE6800AA
:1052600013DF1300B342EE011396020193570601B8
:1052700013D73E00B34FF70093F31F00B305704000
:1052800033F8650093D61700B348D800139E080181
:10529000135F0E0193D24E0033C6E20193771600DE
:1052A0003307F040B37F670093531F00B3C57F00FF
:1052B000139805019356080193D85E0033CED800A9
:1052C000137F1E00B302E04133F6620093D716004D
:1052D0003347F600931F070193D30F0193D56E0058
:1052E00033C8750093761800B308D04033FE6800C9
:1052F00013DF1300B342EE01139602019357060128
:1053000093DE7E0033C7FE00937F1700B303F041A6
:10531000B3F5630013D81700B3C6050193980601CF
:105320001355850013DE0801334FC50193721F002A
:1053300033065040B3776600935E1E0033C7D70133
:10534000931F070193D30F019355150033C87500C0
:1053500093761800B308D04033FE680013DF1300C3
:10536000B342EE011396020193570601935E2500A6
:1053700033C7FE00937F1700B303F041B3F563001A
:1053800013D81700B3C605019398060113DE080170
:10539000135F3500B342CF0113F61200B307C040CC
:1053A000B3FE670013571E00B3CFEE0093930F01B7
:1053B00093D5030113584500B346B80093F816007F
:1053C000330E1041337F6E0093D2150033465F00D9
:1053D0009317060193DE070113575500B34FD7010A
:1053E00093F31F00B305704033F8650093D61E0099
:1053F000B348D800139E0801135F0E019352650055
:1054000033C6E20193771600B30EF04033F76E0017
:10541000935F1F00B343F7019395030113D8050170
:1054200013557500B346050193F81600330E10416D
:1054300033736E00135F1800B342E3011396020149
:1054400013550601678000001300000013000000E0
:105450009377F50FB3C6B70093F2160037A7FFFF97
:1054600013031700B303504033F6630093D51500C0
:105470003348B6009318080113DE080193DE1700C5
:1054800033CFCE01937F1F00B306F041B3F2660025
:1054900013571E00B3C3E200139603019355060190
:1054A00013D82700B348B80013FE1800B30EC0414C
:1054B00033FF6E0093DF1500B346FF0193920601A0
:1054C00013D7020193D3370033C6E3009375160058
:1054D0003308B040B3786800135E1700B3CEC8013C
:1054E000139F0E01935F0F0193D64700B3C2F601DD
:1054F00013F71200B303E040B3F5630013D61F00A7
:1055000033C8C5009318080113DE080193DE570065
:1055100033CFCE01937F1F00B306F041B3F2660094
:1055200013571E00B3C3E2009395030113D6050180
:1055300013D86700B348C80013FE1800B30EC0416B
:1055400033FF6E00935F1600B346FF01939206018E
:1055500013D7020193D77700B3C3E70093F5130085
:105560003306B0403378660093581700334E180165
:1055700013150501935E0501931F0E0113DF8E00C5
:1055800093D20F01B3465F0013F71600B307E04054
:10559000B3F3670093D5120033C6B30013180601A6
:1055A00093580801135E1F0033451E01937E1500BA
:1055B000B30FD041B3F26F0093D6180033C7D200B7
:1055C0009317070193D3070193552F0033C6750036
:1055D00013781600B308004133FE680013D513009A
:1055E000B34EAE00939F0E0193D20F0193563F002E
:1055F00033C7560093771700B303F040B3F5630049
:1056000013D6120033C8C5009318080113DE080131
:1056100013554F00B34EC50193FF1E00B302F04176
:1056200033F7620093561E00B347D70093930701E8
:1056300093D5030113565F003348B60093781800E2
:10564000330E104133756E0093DE1500B34FD50154
:1056500093920F0113D7020193566F00B3C7E60070
:1056600093F31700B305704033F665001358170025
:10567000B3480601139E0801935E0E01135F7F007D
:105680003345DF01937F1500B302F04133F362002D
:1056900013D71E00B346E3009397060113D5070105
:1056A00067800000130000001300000013000000DA
:1056B00013050000678000000000000000000000EB
:1056C000F32700B023AAF1D0678000001300000088
:1056D000F32700B023A8F1D067800000130000007A
:1056E00003A501D183A741D13305F54067800000B0
:1056F000130101FF23261100EF30804697070100B8
:105700009387C76403A6070083A64700EF20D02431
:105710008320C10013010101678000001300000015
:10572000930710002300F5006780000013000000BD
:10573000230005006780000000000000000000005A
:10574000130101FE232C810003140500232E1100F8
:105750009357744093F01700638C00008320C101BD
:105760001375F4070324810113010102678000000F
:10577000135734409372F7009396420083D7850302
:10578000232A910023263101938405002328210137
:10579000B385D200137674009309050013870500C2
:1057A00063000608130510006314A606138607009D
:1057B00013858402EFE0CF8703D8C4039318050153
:1057C00013D90841631C080883D78403239EA402CD
:1057D00093850700EFF0CFD8930E0500137F04F0F8
:1057E0001375F907B36FE501239CD40313E40F0885
:1057F000239089008320C101032481018324410176
:10580000032901018329C1001301010267800000FF
:10581000131E040113550E01130904006FF05FFB02
:10582000130310026364B30013072002839624005D
:105830000396040083A5440103A58401EF105019C9
:1058400083D3E40313190501135909416398030035
:1058500083D78403239FA4026FF09FF783D7840329
:105860006FF01FF71300000013000000130000008A
:10587000130101FE232A910083140500232E110039
:10588000232C810093D77440232821012324410134
:105890002326310193F01700138905001304060035
:1058A00013FAF407639A000613D734409372F70093
:1058B00093964200B385D20013F674008357840395
:1058C00093090500138705006308061413051000EB
:1058D0006316A60E1386070013058402EFD05FF54A
:1058E0000358C4039318050113DA0841631408161A
:1058F00083578403231EA40293850700EFF04FC64D
:10590000137AFA0793FE04F0336FDA01231CA40222
:10591000936F0F082390F9018314090093D7744003
:1059200093F0170093FEF4076398000693D9344070
:1059300013F7F90093124700B305570013F67400EC
:105940008357840313870500630A060813051000B4
:10595000631EA6061386070013058402EFD05FEDD1
:105960000358C4039318050193D908416318080E1E
:1059700083578403231EA40293850700EFF04FBED4
:1059800093FEF90713FF04F0B3EFEE01231CA4020A
:1059900013E40F08231089008320C101032481012F
:1059A00083244101032901018329C1003305DA4120
:1059B000032A81001301010267800000139E040185
:1059C00013550E01138A04006FF01FF3139E040198
:1059D00013550E01938904006FF01FFA930610020D
:1059E00063E4B600130720028316240003160400A4
:1059F0008325440103258401EF10807D0353E403D4
:105A00009313050193D90341631A03048357840355
:105A1000231FA4026FF05FF6130310026364B30048
:105A20001307200283162400031604008325440173
:105A300003258401EF10C0798353E403131A050191
:105A4000135A0A416398030083578403231FA40257
:105A50006FF09FEA835784036FF01FEA8357840334
:105A60006FF09FF11300000013000000130000000E
:105A7000630A060003152500839525003305B5400C
:105A800067800000831705001397070193520701F1
:105A900013F307F093D38200336673002310C5001D
:105AA00083960500031525001398060193580801F5
:105AB00013FE06F093DE8800336FDE012390E501CC
:105AC000839525003305B540678000001300000072
:105AD00003970500839725002310E5002311F500A7
