:0200000480007A
:100000006F00804A6F00C02A6F0000496F00C0482F
:100010006F0080486F0040486F0000486F00C04785
:100020006F0080476F0040476F0000476F00C04679
:100030006F0080466F0040466F0000466F00C0456D
:100040006F0080456F0040456F0000456F00C04461
:100050006F0080446F0040446F0000446F00C04355
:100060006F0080436F0040436F0000436F00C04249
:100070006F0080426F0040426F0000426F000053EB
:10008000974101009381019717010300130181F744
:1000900017050000130505F713651500731055309B
:1000A000138581F4138681253306A640930500004D
:1000B000EF50D068176500001305C5E2EF40404ED1
:1000C000EF50505813050000930500001306000080
:0C00D000EF0000016F40004E6780000050
:1000E000130101812326117E2324817E2322917E08
:1000F0002320217F232E317D93060000130101FD73
:10010000130600009305000013050020EF30406146
:10011000630A05161304050017150100130585F47D
:10012000EF508059732920B0F32900B097150100D2
:10013000938505FF1306010013050400EF30407E90
:10014000F32420B0B3842441F32200B0171501003A
:10015000130545F233893241EF5000561307090069
:100160009386040013060900938504001715010007
:10017000130545F1EF50402F371600001306068097
:10018000971501009385C57913050100EF5090186C
:1001900093090500631E050217150100130505F6F6
:1001A000EF50805113050400EF4040441301010358
:1001B0008320C17E138509000324817E8324417E30
:1001C0000329017E8329C17D1301017F678000001F
:1001D00017150100130505EEEF50004EB71700008C
:1001E00013830780130401003309230097140100CF
:1001F000938444F00316240083150400138504003F
:1002000013040402EF504026031664FE831544FED7
:1002100013850400EF5040250316A4FE831584FEC9
:1002200013850400EF5040240316E4FE8315C4FE3A
:1002300013850400EF504023031624FF831504FFA9
:1002400013850400EF504022031664FF831544FF1A
:1002500013850400EF5040210316A4FF831584FF8B
:1002600013850400EF5040200316E4FF8315C4FFFC
:1002700013850400EF50401FE31E24F7930910007C
:100280006FF0DFF217150100130585DCEF50C04257
:10029000930910006FF09FF10000000000000000C3
:1002A0001305000067800000130000001300000029
:1002B0001305000067800000130000001300000019
:1002C0001305000067800000130000001300000009
:1002D00013050000678000001300000013000000F9
:1002E00013050000678000001300000013000000E9
:1002F00013050000678000001300000013000000D9
:1003000013050000678000001300000013000000C8
:1003100013050000678000001300000013000000B8
:1003200013050000678000001300000013000000A8
:100330001305000067800000130000001300000098
:100340001305000067800000130000001300000088
:100350001305000067800000130000001300000078
:100360001305000067800000130000001300000068
:100370001305000067800000130000001300000058
:100380001305000067800000130000001300000048
:100390001305000067800000130000001300000038
:1003A0001305000067800000130000001300000028
:1003B0001305000067800000130000001300000018
:1003C0001305000067800000130000001300000008
:1003D00013050000678000001300000013000000F8
:1003E00013050000678000001300000013000000E8
:1003F00013050000678000001300000013000000D8
:1004000013050000678000001300000013000000C7
:1004100013050000678000001300000013000000B7
:1004200013050000678000001300000013000000A7
:100430001305000067800000130000001300000097
:100440001305000067800000130000001300000087
:100450001305000067800000130000001300000077
:100460001305000067800000130000001300000067
:100470001305000067800000130000001300000057
:100480001305000067800000130000001300000047
:100490001305000067800000171501001305559E25
:1004A000EF5080216FF05FFF130101FC232011004A
:1004B0002322A1002324B1002326C1002328D10038
:1004C000232AE100232CF100232E01012320110314
:1004D0002322510223246102232671022328C1030F
:1004E000232AD103232CE103232EF103F32220340A
:1004F00013032000638862021303B0006388620064
:1005000013033000638862006F00C002EF00403EBA
:100510006F0040031715010013054592EF50C019F5
:100520006F004002171501001305458CEF50C018ED
:100530006F0040011715010013056592EF50C017B9
:100540006F004002F32210340383020013053000D1
:100550003373A3006314A3009382220093822200CA
:10056000739012348320010003254100832581000C
:100570000326C1008326010103274101832781014E
:100580000328C1018328010283224102032381023F
:100590008323C102032E0103832E4103032F810312
:1005A000832FC10313010104730020307300203036
:1005B0003305A04023AEA1F41305F0FF67800000CF
:1005C000971701009387078E13085005370700100F
:1005D0002320070183C61700638006062320D70067
:1005E00083C22700638A02042320570003C3370015
:1005F000630403042320670083C34700638E030260
:100600002320770003C55700630805022320A700B5
:1006100083C56700638205022320B70003C6770005
:1006200093878700630A06002320C70003C80700DA
:10063000E31008FA678000006780000013000000E4
:100640009307800523AEF1F41305F0FF67800000E7
:100650009307800523AEF1F41305F0FF67800000D7
:100660009307800523AEF1F41305F0FF67800000C7
:100670009307800523AEF1F41305F0FF67800000B7
:100680009307800523AEF1F41305F0FF67800000A7
:100690001305F0FF67800000130000001300000046
:1006A0009307C00023AEF1F41305F0FF678000004C
:1006B000B707048023A0A700730050106F0000004C
:1006C0009307800523AEF1F41305F0FF6780000067
:1006D0009307B00023AEF1F41305F0FF678000002C
:1006E000B727000023A2F500130500006780000073
:1006F0009307800523AEF1F41305F0FF6780000037
:100700009307800523AEF1F41305F0FF6780000026
:10071000930780FA23AEF1F4130500006780000010
:100720001305100067800000130000001300000094
:10073000930780FA23AEF1F41305F0FF6780000001
:100740001305F5FF13351500678000001300000046
:100750009307600123AEF1F41305F0FF67800000FA
:100760009307F00123AEF1F41305F0FF678000005A
:100770001305000067800000130000001300000054
:100780009307800523AEF1F41305F0FF67800000A6
:100790001305F0FF67800000130000001300000045
:1007A0009307800523AEF1F41305F0FF6780000086
:1007B0001305000067800000130000001300000014
:1007C000B727000023A2F500130500006780000092
:1007D0001305F0FF67800000130000001300000005
:1007E0001305F0FF678000001300000013000000F5
:1007F0009307200023AEF1F41305F0FF678000009B
:100800009307800523AEF1F41305F0FF6780000025
:100810009307A00023AEF1F41305F0FF67800000FA
:10082000130101FF23202101138981F4832709008B
:1008300023248100232291002326110093840500A4
:1008400013040600638A070213060400938504005C
:10085000173501001305059AEF0080598320C10068
:1008600013050400032481008324410003290100AF
:100870001301010167800000B7C5010013063000B5
:1008800093850520173501001305C596EF004049F3
:1008900093021000232059006FF01FFB130000008B
:1008A00023ACA1F2130500006780000013000000D4
:1008B000138781F3032307003305A3002320A70038
:1008C000637C250097F202009382C2736376550021
:1008D00013050300678000009307C0001303F0FFB7
:1008E00023AEF1F41305030067800000130000003D
:1008F000130101FF23229100232611009307100802
:100900009384050063CC170D9307F00263D6170399
:10091000938008FD9302100563E41202170301009F
:100920001303835A939820003387680083230700BA
:10093000B385630067800500930E1001638AD80FAA
:1009400093045005170701001307C755B70F001090
:1009500023A09F0083471700638E070423A0FF0096
:10096000834027006388000423A01F0083423700D0
:100970006382020423A05F0003434700630C030269
:1009800023A06F00834857006386080223A01F013D
:10099000834367006380030223A07F0083457700C1
:1009A000638A05001307870023A0BF008344070064
:1009B000E39004FA8320C100832441001301010164
:1009C000678000008320C100130E800523AEC1F5AF
:1009D0008324410013010101678000009300F0406F
:1009E000E3C010F79302F03F63D61203938808C068
:1009F0001303F000E36613F51707010013074761BF
:100A0000939328003385E300832505003386E500B2
:100A100067000600130EC00AE38EC8F963461E0382
:100A2000130F9009E388E8F9930F900AE39AF8F11D
:100A3000130F80FA23AEE1F56FF0DFF737250000E2
:100A400023A2A4006FF01FF7930E600DE39AD8EF76
:100A500023ACA1F26FF01FF61308F00123AE01F5ED
:100A60006FF05FF59306200023AED1F46FF09FF492
:100A7000370404802320A400730050106F0000008E
:100A80009304600123AE91F46FF0DFF22320210183
:100A9000138981F42324810013040600032609002E
:100AA00063060602130604000324810003290100E3
:100AB0008320C10093850400832441001725010091
:100AC00013054573130101016F008032B7C60100A1
:100AD0001306300093850620172501001305857144
:100AE000EF00002413081000232009016FF09FFB82
:100AF0008327C500638807208328050163840820B5
:100B00000328050003469500032745018346480155
:100B1000B3E2C600A304550013F306026302031EEA
:100B2000B383E84093050001138F030063F475005D
:100B3000130F0001638AE81C338EE700834E0E001A
:100B4000930F1700130610002300D801232AF50184
:100B50006370761AB386F70183C206001303270079
:100B60009305200023005800232A650063F27518BE
:100B7000338E6700834E0E00130637009306300055
:100B80002300D801232AC50063F47616B382C70078
:100B900003C3020093054700130E400023006800C2
:100BA000232AB50063767E14B38EB70083C60E0089
:100BB00013065700930250002300D800232AC500D3
:100BC00063F872123383C70083450300930E6700F6
:100BD000130E60002300B800232AD501637A7E102B
:100BE000B386D70183C20600130677001303700093
:100BF00023005800232AC500637C730EB385C70009
:100C000083CE050093068700130E80002300D801D1
:100C1000232AD500637E7E0CB382D70003C3020073
:100C2000130697009305900023006800232AC5004F
:100C300063F0750CB38EC70083C60E009302A70045
:100C4000130EA0002300D800232A550063727E0AE9
:100C500033835700834503001306B700930EB0009B
:100C60002300B800232AC50063F47E08B386C700BA
:100C700083C206001303C700130EC00023005800F0
:100C8000232A650063767E06B385670083CE050060
:100C90001306D7009306D0002300D801232AC500ED
:100CA00063F87604B382C70003C302009305E7002C
:100CB000130EE00023006800232AB500637A7E0249
:100CC000B38EB70083C60E001306F7009302F00040
:100CD0002300D800232AC50063FC7200B387C70035
:100CE00003C307001307070123006800232AE50058
:100CF00093050000638403009305FFFF3387F5012C
:100D00006384E800678000008348480023280500CA
:100D100013F5D80F2302A80067800000130000001D
:100D2000130101FE232A910083240500232C810056
:100D30002328210123263101232E110023820400C0
:100D400023840400930770FC2384F40023880400A8
:100D50002322B5001304050013890500930906003A
:100D6000930600001386050037D512139305000083
:100D7000EF30003AB7028000637455029350F500DB
:100D8000130700F82386E40013F3F00F13557500E2
:100D9000238264009373F50F23807400238604007C
:100DA0002386340123043401A304040097050000C2
:100DB000938545D4232224018320C10123280400E4
:100DC00023260400232A0400232E0400232C0400DD
:100DD000232204022320B40203248101832441013D
:100DE000032901018329C10013010102678000006A
:100DF000130101FF23260100638C0522630A0622EA
:100E0000032505003386C5009307100303474501FA
:100E1000232601008326C1009372F70F63E2D70AED
:100E20000323C10093031300232671000328C1008C
:100E300063E807098328C100138E18002326C10127
:100E4000832EC10063EED707032FC100930F1F004D
:100E50002326F1010327C10063E4E7068326C100CE
:100E600013831600232661008323C10063EA7704FD
:100E70000328C1009308180023261101032EC10086
:100E800063E0C705832EC100138F1E002326E101F6
:100E9000832FC10063E6F7030327C1009306170001
:100EA0002326D1000323C10063EC67008323C10024
:100EB00013881300232601018328C100E3F217F7EA
:100EC00093F20202E38402F423260100032EC10000
:100ED00063E2C70B832EC100138F1E002326E1019E
:100EE000832FC10063E8F7090327C10093061700A9
:100EF0002326D1000323C10063EE67068323C100CC
:100F000013881300232601018328C10063E4170717
:100F10008322C100138E12002326C101832EC1003B
:100F200063EAD705032FC100930F1F002326F101A9
:100F30000327C10063E0E7048326C1001383160082
:100F4000232661008323C10063E677020328C100E2
:100F500093081800232611018322C10063EC570077
:100F6000032EC100930E1E002326D101032FC100C2
:100F7000E3F2E7F783CF05002300F5012326010004
:100F80000327C10063E2E70A8326C100138316002A
:100F9000232661008323C10063E877080328C1008A
:100FA00093081800232611018322C10063EE57061F
:100FB000032EC100930E1E002326D101032FC10072
:100FC00063E4E707832FC10013871F002326E10096
:100FD0008326C10063EAD7040323C10093031300EF
:100FE000232671000328C10063E007058328C100A0
:100FF0009382180023265100032EC10063E6C70325
:10100000832EC100138F1E002326E101832FC10010
:1010100063ECF7010327C100930617002326D100D4
:101020000323C100E3F267F693851500E390C5DE64
:10103000130101016780000013000000130000008D
:101040006388050E03C605006304060E83270500AA
:10105000130101FF9386150003C747019372F70F31
:10106000A30751000343F100937303026396030A3D
:1010700003C547019375F50FA307B1000348F100BD
:1010800093780802639A080803CE4701937EFE0F07
:10109000A307D101034FF100937F0F02639E0F0658
:1010A00003C747019372F70FA30751000343F100F1
:1010B000937303026392030603C547019375F50F0B
:1010C000A307B1000348F10093780802639608046F
:1010D00003CE4701937EFE0FA307D101034FF1001A
:1010E000937F0F02639A0F0203C747019372F70FB2
:1010F000A30751000343F10093730302639E0300AF
:1011000003C547019375F50FA307B1000348F1002C
:1011100093780802E38208F4938616002380C700C0
:1011200003C6F6FFE31A06F213010101678000000F
:10113000678000001300000013000000130000008F
:10114000630C0602638A0502032705009706000068
:101150009386469A2326B500834747002328C50077
:10116000232A05002320D50293E2270023025700FB
:10117000732340F16304030067800000B723000C71
:10118000172601001306060783A503003305C54093
:101190001338150093081000339E0801B36EBE008B
:1011A00023A0D3016780000013000000130000009B
:1011B00083270500034795008326050183C2470165
:1011C00033E3E200A304650093F3F20F6398060093
:1011D00013D5630013751500678000001305000028
:1011E00067800000130000001300000013000000DF
:1011F0009307050063800518630E06160327050094
:101200000345950083464701B3E2A600A384570037
:1012100013F31600630003169373360013050000E2
:10122000638C0308130810006380030793082000F1
:101230006386130303470700130510002380E500AE
:1012400003A7070003CE9700834E470133EFCE017B
:10125000A384E70193FF1E0063820F1283460700F9
:10126000B382A500130515002380D20003A7070051
:1012700003C397008343470133E86300A384070156
:1012800093F81300638C080E034E07003387A50004
:10129000130515002300C70103A7070083CE97009D
:1012A000034F4701B36FDF01A384F70193761F005B
:1012B0006386060C6306A60C83420700B383A50071
:1012C000130515002380530003A8070003CE9700E1
:1012D0003383A5000347480193080500B36EC70197
:1012E000A384D701137F1700630A0F08834F0800F8
:1012F00013051500B382A5002300F30183A30700A3
:1013000083C6970003C343013368D300A384070156
:10131000137E130063040E0603C703001385280021
:10132000B38EA5002380E20003AF070083CF9700B0
:1013300083424F01B3E3F201A384770093F61200D6
:10134000638E060203430F001385380023806E006E
:1013500003A7070083C89700034E470133681E01A7
:10136000A3840701937E1E00638A0E00E316A6F491
:1013700067800000130500006780000067800000A0
:10138000678000001300000013000000130000003D
:10139000F32740F163960702B726000C17270100D8
:1013A000130747E503A60600B302E54013B3120096
:1013B0009303100033986300B368C80023A016019C
:1013C000370E0100930EFEFF638CD5010325050047
:1013D00093F5F500034F4500B36FBF002302F501FD
:1013E00067800000130000001300000013000000DD
:1013F000638E05029307000C63EAC702032705000A
:10140000232EB5008342870013F3F203B363C300B6
:1014100093F5F30F2304B7000346470093661600C5
:101420002302D700732840F163040800678000009E
:10143000B728000C972E0100938ECEDB03AE080078
:101440003305D541133F1500930F1000B397EF01FB
:1014500033E7C70123A0E800678000001300000005
:1014600063840502032705002320B5022326050017
:10147000834747002328050093E2270023025700F3
:10148000732340F16304030067800000B723000C5E
:1014900097250100938505D683A603003305B54043
:1014A0001336150013081000B318C80033EED80027
:1014B00023A0C30167800000130000001300000098
:1014C00063800502032705002322B50283474700F6
:1014D00093E2870023025700732340F16304030063
:1014E00067800000B723000C97250100938585D005
:1014F00083A603003305B54013361500130810000A
:10150000B318C80033EED80023A0C30167800000E1
:10151000638805126306061283270500834695003B
:1015200003C74701B362D700A30455001373070232
:1015300063080310930300011305060063F4C3005E
:101540001305000103C8050093081000238007015C
:1015500063FAC80E03CE1500930E20002380C70146
:1015600063F2CE0E03CF2500930F30002380E701F6
:1015700063FACF0C83C63500130740002380D700E1
:101580006372C70C83C245001303500023805700C9
:10159000637AC30A83C35500130860002380770071
:1015A0006372C80A83C86500130E70002380170198
:1015B000637ACE0883CE7500130F80002380D70195
:1015C0006372CF0883CF8500930690002380F701D4
:1015D00063FAC60683C295001307A0002380570054
:1015E0006372C70603C3A5009303B000238067009E
:1015F00063FAC30403C8B5009308C0002380070141
:1016000063F2C80403CEC500930ED0002380C70147
:1016100063FACE0203CFD500930FE0002380E701E9
:1016200063F2CF0283C6E5009302F0002380D70067
:1016300063FAC20083C5F5002380B700678000000D
:101640001305000067800000130000001300000075
:10165000832705000347950083C24701A3040500C3
:1016600033E5E2001375E509678000001300000010
:101670008327050003C58701678000001300000071
:1016800003270500834795008342470133E3F200B7
:10169000A304650013F50206678000001300000034
:1016A000032705008347C70093E20704230657007A
:1016B000678000001300000013000000130000000A
:1016C000032705008347C70093F2F70B2306570053
:1016D0006780000000000000000000000000000023
:1016E000130101B003A806009387060083A64600F5
:1016F000232E114E37030100B7800000232C814EAA
:10170000232A914E9382F0FF930407009303F3FF83
:101710001307100013040104232C814D2326B14D1F
:101720002320A1042328214F2326314F2324414F76
:101730002322514F2320614F232E714D232A914D97
:101740002328A14D2322B1042324E1042326C1042C
:101750002328F104232A0105232CD104232E01047C
:1017600023200106930D00001305100023225102CF
:10177000374C000023207100232A81026F00400FA4
:10178000B3055901139625009308064893090104EF
:10179000338A3801032B8AB9930B1000032E4AB900
:1017A00063147B016F00D07E832C0ABA63D0CC33E4
:1017B00013891C0023202ABB9303F001E3CEA3521C
:1017C000832D8AB8330B9B03032FCAB8832E0AB824
:1017D000931735003387A70083200AB9832B4AB8B3
:1017E000131327008329410383A28000B38CBC0319
:1017F000931A2B0033865E01930A150083AFC00055
:101800001308034893080104B305180113848000EA
:10181000930603013385EC0323A0C5B823A6E5B9DD
:1018200023A885B8338AD900330EBE03131D2500C3
:101830003389AB0123A225B923A4C5B923225A00B9
:101840002324FA0123AE05B823A005BA1385FAFFB5
:1018500093163500B389A600139A2900130D0A4880
:1018600093030104330E7D00832DCEB913850A0046
:10187000930AF5FF13993A00E3840DF0330D5901F3
:10188000931D2D00938E0D48130F0104B38FEE01AD
:1018900003AA4FB99307400003A40FB803AD8FB854
:1018A00083A9C400630EFA6663C84723130B2000A4
:1018B000E3006A3793003000E31E1A0883A88FB94B
:1018C000131A2D00930B1000B38348039392280042
:1018D00033075400373F0000338B7900831C2B0003
:1018E00063047D016F1000073709010033065700BC
:1018F00013880900130AAFAA374D00001305F9FF3A
:10190000031E040003132400B3064E03B305430370
:10191000B38DA60193D7FD402310F400B380A50139
:1019200093DFF0402311F401831307008312270093
:10193000338B4303B38B4203330FAB01935EFF4002
:101940002310D7013389AB01135EF9402311C7017E
:101950000313060083162600B3054303B38D460325
:10196000B387A50193D0F74023101600B38FAD01C4
:1019700093D3FF4023117600035B270083DB29000C
:101980008352070083DE090013190B01139F0B011B
:10199000336E59003363DF01FB156E18835D280039
:1019A0008357080093960301B3F0A000939F0D01A5
:1019B000B3E3160033EBFF00FB9B6319FB92752129
:1019C0007B997529035F0400939E020113DE0E418B
:1019D00013531E40B3056F402310B700835D2400EE
:1019E00093D7124193894900B386FD402311D70054
:1019F00083502400835F0400130888009393000140
:101A000033EBF301FB1B5B2093520941338E9203AE
:101A1000131909011353094113DF0B01231074013A
:101A20002311E401835E07001306460013074700F5
:101A30009388F8FFB3059303B30DAE0193D7FD4030
:101A40009396070193D00601B38FD001231EF6FFB2
:101A50008353E7FF13044400338BA501935BFB40E2
:101A600093920B0113DE02013389C341231F26FF2A
:101A70000353C7FF035FE7FFB30E1340B305EE0147
:101A8000231ED7FF231FB7FEE39C08E6E3900ADC82
:101A90008320C14F0324814F8324414F0329014FE9
:101AA0008329C14E032A814E832A414E032B014EC6
:101AB000832BC14D032C814D832C414D032D014DB2
:101AC000832DC14C130101506780000013051000E5
:101AD000232EAAB86FF09FDA13065000631CCA6663
:101AE00083AD8FB9B38BAD0313972D003308E4009A
:101AF000B308E8003383E800232EB101B30FE300FD
:101B0000139A2B00338E4901831E0E00B3034E013E
:101B1000031B2E002328D10183900300839C230004
:101B2000E356B0F79302100063045D006F10407538
:101B3000938B0E00B70E0100B72700009383FEFFC2
:101B4000938D0900138A090023223101232A010001
:101B5000138D9799374F00002320710223245103DE
:101B600023269102831A0400831424003385AA03D8
:101B70003386A403B306E50113DEF6402310C40147
:101B8000B305E60113D7F5402311E40083120800E2
:101B900003192800B387A203B30EA903B383E70197
:101BA00093DAF34023105801B384EE0113D5F440C7
:101BB0002311A80003960800039E2800B306A6037D
:101BC000B305AE033387E6019352F74023905800E4
:101BD0003389E5019357F9402391F800831E0300F0
:101BE00083132300B38AAE03B384A3033385EA01CE
:101BF0001356F5402310C300338EE4019356FE4084
:101C00002311D30083950F0003972F00B382A50300
:101C10003309A703B387E20193DAF74023905F010A
:101C2000B30EE90193D4FE4023919F008353280013
:101C300003D52D00035E080003D60D009395030124
:101C4000931605018317240033E7C501B3E2C600EC
:101C5000FB1E57188323410003D9280003D6080030
:101C600003D5230083D5030093160901131E050134
:101C700033E7C600B362BE007B1657180359230032
:101C800003D529008353030083D509009316090166
:101C9000131E050133E77600B362BE00FB1657182A
:101CA00003592A000325010283550A009394040175
:101CB000B3FAAA009313090133E79A0033EEB30095
:101CC000FB12C719FB9A5E2013D90A01FB9E5E28FE
:101CD000FB14D62093D504017B16D62893960A01CF
:101CE0002324B10013D506419393040193160601F2
:101CF0001356064193D203412328C1008313810068
:101D00000356040013170901135E074193950E0152
:101D1000B38A9A00B304560113D70541B38A7002FF
:101D200093D50641232CB10093DE0E41832581001B
:101D3000939707012326D10193DE070133892E01F2
:101D4000B307B900B386CB03B385EA012311F400CE
:101D500093D7F54023109400B386E60113D9F640DB
:101D6000B30AF900B384AB02B3865E019395060112
:101D700033895002B384E40193D7F440B30AE901F4
:101D800093D6FA403389D700B3072601939A070107
:101D900083278101B304EB0293D60A01B3E5D50092
:101DA0008326C1003389FC02B384E40193DAF44052
:101DB0003309E9019354F940B38A9A003309504139
:101DC000832A010193140901B306DB0233895C0302
:101DD000B386E60193DAF6403309E9019356F940F8
:101DE000B38ADA0013990A0193560901B3EAD400C1
:101DF000FB94552913D904012310980023112801BD
:101E0000FB965521338EC00393D506012390DF0046
:101E10002391BF00B3837B02B30AEE0193D4FA404F
:101E20003385A0023389E3019356F940338ED40001
:101E3000B38ECE0193930E01B3825B02B305E5012D
:101E400093DAF54083250101B384E20113D5F44010
:101E50003389AA0033062601931606010326C10022
:101E60003387EC0213DE0601B3EEC301B307FB02B6
:101E7000B303E70193D2F340B30ABB023387E70110
:101E80009354F7403385924013190501B386CC0271
:101E9000338EEA019357FE40B383E60193D2F340B9
:101EA000B3855740939A050113D70A01B364E9003B
:101EB0007B959E20135905012390A80023912801AA
:101EC000FB9E9E2883264101832741008322C10176
:101ED00013D60E01138E1600938387002310D301AF
:101EE0002311C300232AC1012322710013044400DB
:101EF000130848009388480013034300938F4F0052
:101F0000938D4D009389C900130A0A01E39CC2C551
:101F1000832A81028324C102E39A0A926FF05FB799
:101F200003A68FB983A6440013181D003307A80128
:101F300093102600931B2D00931C3D009315270042
:101F400063900664930E1000E31CDD49330814000F
:101F500033051800B70C0100B3051500138E0900F6
:101F600013830900B74B0000938DFCFF831E040010
:101F7000031F2400139BDE009310DF003309DB41B5
:101F8000B38FE041330A7901B3867F019353FA405E
:101F900013DDF640231074002311A40183120800FE
:101FA000831828001397D2009397D800B30C57409A
:101FB000B38E1741338F7C01338B7E019350FF40EA
:101FC0001359FB402310180023112801831F05001B
:101FD000031A25009396DF009313DA00338DF64140
:101FE000B3824341B3087D01B387720113D7F84030
:101FF00093DCF7402310E50023119501839E050033
:10200000039F2500139BDE009310DF003309DB41A3
:10201000B38FE041330A7901B3837F019356FA40CD
:1020200013DDF3402390D5002391A50183582800A8
:1020300083D729008352080083DC09001397080125
:10204000939E0701336B570033EF9E01FB10EB1992
:1020500003592500035A23008353050083580300C6
:10206000931F090193170A01B3E27F00B3EC170134
:10207000FB9E9219035B2E00035F0E00131D0D01E2
:10208000B3F6B60113190B013367DD00336AE901BA
:10209000FB13471983582400835F040093970801BA
:1020A000B3ECF701FB92DC29FB9EDC2113DB0E0174
:1020B0002310D401231164017B9F7020FB907028B2
:1020C0007B9DEE2993560D012310A5012311D50008
:1020D000035924000357040093894900131A090186
:1020E00013038300130ECE00B363EA00FB98E321D1
:1020F000939F02019397000193DC0F0193DE00018F
:1021000093D2020113DB070113DF0801231014012E
:102110002311E401B380DC01338D624123101800E8
:102120002311A801B386DC41338962012390D500D5
:10213000239125011306F6FF1304440013084800F9
:102140001305450093854500E31206E263900AF00B
:102150006FF01F94B30C590113952C001308054818
:10216000931D2A00930801043307180113850D00FD
:10217000032B87B903A90400EF20804663140500F0
:102180006F1040546350602913061000E316CB66AD
:10219000635A402783254102938BCDFF93DF2B00A9
:1021A00013FE1F0033CF4503130604001308050078
:1021B000B38CAD009306040063160E04831704006D
:1021C00083122400832E0100130845009306440067
:1021D000B388E7033387E203338388019353F340E3
:1021E000939D030193D00D01B3FBD001B30F870181
:1021F00013DEFF4093150E01B3E7BB002320F5006B
:102200006302980983920600839846008393260010
:102210003387E203039366008325010013088800D7
:1022200093868600B38DE803B300870193DEF04008
:10223000939B0E0193DF0B01B3F2BF00338EE303D8
:10224000B3878D0193D8F7409393080113D7030107
:10225000B37DB7003303E303B3008E0193DEF04098
:10226000939B0E01B3EF7201232CF8FFB30583019A
:1022700093D2F540139E0201B3E7CD01232EF8FE61
:10228000E31298F98358050003532500130F10003B
:1022900023101401231164006306EA17930600005B
:1022A0009305000013084500B30C6A4193F31C002A
:1022B000130E0800930E0B0093070000638E0304B7
:1022C0009387060063C42601B3872641139727002E
:1022D000B38DE90083D02D0083DE0D00832B080031
:1022E000939F0001B3E2DF017B9E5B18035F240034
:1022F000835C040093130F0133E79301FB1DC72197
:1023000093D00D012310B40123111400930E1B0070
:10231000130E48006308DA0BB387D70063C42701A4
:10232000B3872741939B2700B38F790183D22F0076
:1023300083DC0F00032F0E009393020133E7930118
:10234000FB1DEF1883502400835B0400939F000162
:10235000B3E27F01FB9CB22113DF0C012310940137
:102360002311E401B387D70093034E00938E1E0020
:1023700063C42701B3872741139E2700B38DC9018A
:1023800003D72D0083D00D0083AB0300931F0701FB
:10239000B3E21F00FB9C5B18035F2400035E040094
:1023A000931D0F0133E7CD01FB10972193DB000153
:1023B0002310140023117401938E1E00138E43000A
:1023C000E31CDAF59385150013064600B386A601D3
:1023D000630ABA02130406002310160123116600D3
:1023E0006FF09FEC8328C100138B0D0093871700BB
:1023F00013044400B385A501E31CFB42938A080043
:1024000093040700EF20801E63920AC46FF04FE828
:1024100083A58FB9930B1000B7400000939C250053
:10242000B307940163127D6F031D0400831C240015
:10243000931BED00139FEC003385AB4133099F41A3
:10244000B30E15003307190013D6FE409356F7401C
:102450002310C4002311D400039E07000398270013
:102460009318EE001313E800B38FC841B30D034176
:10247000B3831F00338A1D0093D2F340135BFA40ED
:10248000239057002391670103DD290083DC0900B5
:10249000931B0D0133EF9B017B100F500359240058
:1024A00083DE27000356040003D507001317090134
:1024B00093960E01336EC70033E8A600FB180E5941
:1024C0007B13003893DF0801231014012311F4015A
:1024D000935D0301239067002391B7019385F5FF76
:1024E000130444009387470093894900E39E05F253
:1024F000639E0AB46FF0CFD9171C0100032C4C3D2A
:1025000083240C00130670019305100083A6C400F9
:102510001705010013054543EF20106483230C00C9
:10252000930510001306000283A6C30017050100DF
:1025300013050543EF205062832D0C000324814FC7
:102540008320C14F83A5CD008324414F0329014F30
:102550008329C14E032A814E832A414E032B014E0B
:10256000832BC14D032C814D832C414D032D014DF7
:10257000832DC14C1305A000130101506F20D03EE4
:1025800093021000E3145D063308140033051800AD
:10259000B70C0100B3061500138E09001383090060
:1025A000B74B0000938EFCFF031F0400831524002B
:1025B000931FDF00139BD5003389EF41B30DBB4060
:1025C000330D7901B3807D01135AFD4093D3F04060
:1025D000231044012311740083120800831828007B
:1025E0001397D2009397D800B30C5740338F1741FD
:1025F000B3857C01B30F7F0113DBF54013D9FF4096
:102600002310680123112801831D0500031D2500E7
:102610009390DD00131ADD00B383B041B302AA41E9
:10262000B3887301B387720113D7F84093DCF74086
:102630002310E50023119501039F0600839F2600C8
:10264000131BDF009395DF003309EB41B38DF54198
:10265000330D7901B3807D01135AFD4093D8F040CA
:1026600023904601239116018353280083D7290024
:102670008352080083DC090013970301139F0701AD
:10268000B36F5700336B9F017B996F1983552500FA
:10269000835D2300035D05008350030093930501D0
:1026A00093970D01B3E2A301B3EC17007B9F92193E
:1026B000835F2E00035B0E00337ADA0193980801E2
:1026C00093950F0133671A01B3ED65017B1DB719AF
:1026D000835024008353040093970001B3EC7700E8
:1026E000FB92EC297B9FEC21935F0F012310E40107
:1026F0002311F4017B1BA9217B19A9297B1A6F29BE
:1027000093580A0123104501231115018355240014
:102710000357040093894900939D05011303830027
:10272000130ECE0033EDED00FB106D2193930201EB
:102730009317090193DC0301935F090193D202010E
:1027400013DF070113DB00012310140023116401C0
:102750003389FC41338AE201231028012311480107
:10276000B388FC01B385E241239016012391B600A2
:102770001306F6FF13044400130848001305450030
:1027800093864600E31206E263920A8C6FF04FB024
:10279000032F8AB8032BCAB893102E00938BC0FF67
:1027A000B30E6F0393D72B0003270AB89382170049
:1027B00093FF720083274AB833081700939C2E00BA
:1027C00063840F0C1303100063826F0A93082000C8
:1027D00063821F09930530006382BF061306400021
:1027E0006382CF041304500063828F02930660005B
:1027F000E39CDF6A03DE070013074700231EC7FFC1
:1028000003DD2700B3879701231FA7FF83D30700AA
:1028100013074700231E77FE83DD2700B387970148
:10282000231FB7FF03DF070013074700231EE7FF3F
:1028300003DB2700B3879701231F67FF83D00700BF
:1028400013074700231E17FE83DB2700B38797017A
:10285000231F77FF83DE070013074700231ED7FFE0
:1028600083D22700B3879701231F57FE83DF07001A
:1028700013074700231EF7FF03D32700B3879701F1
:10288000231F67FE6306E80A83D80700B385970114
:1028900013070702231017FF03D42700338695017F
:1028A000B3069601231187FE03DA0500B38996016A
:1028B000338D9901231247FF03DE2500B3039D01E9
:1028C000B38D93012313C7FF035F0600B3879D01F8
:1028D0002314E7FF035B2600231567FF83D0060060
:1028E000231617FE83DB2600231777FF83DE0900FC
:1028F0002318D7FF83D22900231957FE835F0D00C9
:10290000231AF7FF03532D00231B67FE83D8030010
:10291000231C17FF83D52300231DB7FE03D60D000C
:10292000231EC7FE03D42D00231F87FEE31EE8F4F9
:10293000B30A590113992A0013080948930C01049A
:10294000B30798011307100023AEE7B8930A0500F8
:102950006FE0DFEFB70E0100131D3D003306570097
:10296000138809001309AFAA37450000138EFEFF34
:102970008316040003132400B38F2603B30D23032F
:10298000B385AF0093D7F5402310F400B380AD00BA
:1029900093D3F0402311740083120700031B270018
:1029A000B38B2203330F2B03B38EAB0093D6FE40C1
:1029B0002310D7003303AF00935FF3402311F701D7
:1029C000831D060083152600B3872D03B3802503DE
:1029D000B383A70013DBF34023106601B382A0008A
:1029E00093DBF24023117601035F270083DE290089
:1029F0008356070003D30900931D0F01939F0E0117
:102A0000B3E5DD00B3E76F00FB90F51883532800B2
:102A100083520800337BCB01939B0B01139F03016F
:102A2000B36E7B01B3665F007B93DE18FB9D602075
:102A3000FB9F60288355040093970D0193D00741B5
:102A400093D31040B382754023105700035B2400DA
:102A500093DB1D41B3894901330F7B412311E7010A
:102A6000835E2400835604003308A80113930E01EB
:102A7000B365D300FB9DB52193D70F41B380970376
:102A8000939F0F0193D30F4193D20D012311540053
:102A90002310B401035B0700130646001307470029
:102AA0009388F8FFB38B9303338FA000935EFF40AE
:102AB00093960E0113D30601B3056301231EB6FEE0
:102AC000835DE7FF13044400B387AB0093D0F74066
:102AD000939F000193D30F01B3827D40231F56FEC5
:102AE000035BC7FF835BE7FF330F6B40B38E73015C
:102AF000231EE7FF231FD7FFE39C08E663840A0039
:102B00006FE0DFD46FE0DFF8131D2D00031F04001A
:102B1000031524001319EF001317E500B30EE94164
:102B20003306A740B3861E00330E160013D8F640B6
:102B30009358FE402310040123111401039307004E
:102B4000839F2700931DE3009393EF00338A6D402A
:102B5000B382F341330B1A00B38C1200935BFB403A
:102B600013DFFC40239077012391E70103D529006F
:102B700003D9090013170501B36E27017B900E508E
:102B80000356240083D62700035E040003D8070001
:102B90009318060113930601B3EFC801B36D030147
:102BA000FB93BF597B1A003893D2030123107400A2
:102BB00023115400135B0A012390470123916701FD
:102BC0009385F5FF1304440093874700B389A90157
:102BD000E39E05F263840A006FE05FC76FE05FEB7E
:102BE00033031400B308130037070100B38718003C
:102BF000138F0900938E0900B74D0000130EF7FFE5
:102C0000031D0400831024009313DD00939FD00064
:102C1000B382A341338B1F403389B201330ABB0116
:102C20001358F9401355FA40231004012311A4004E
:102C3000031D0300831023009316DD001397D000BB
:102C4000B383A641B30F1740B382B301338BBF01E7
:102C500013D9F240135AFB402310230123114301DF
:102C60000398080003952800131DD8009310D50081
:102C7000B3060D413387A040B383B601B30FB7014C
:102C800093D2F34013DBFF40239058002391680157
:102C900003990700039A27001318D9001315DA00C7
:102CA000330D2841B3004541B306BD013387B00160
:102CB00093DFF6401358F7402390F7012391070163
:102CC0008353230083D22900035B030003D9090047
:102CD000139A030113950201336D6A01B360250154
:102CE000FB131D1883D6280003D72E0003DB080032
:102CF00003DA0E0013990601931207013365690187
:102D000033ED4201FB10A51903572F00035B0F00A1
:102D1000B3FFCF0113180801131A0701B3E60F011F
:102D200033696A017B952619035D240083520400F0
:102D300013170D01336B5700FB1F1B28FB101B20C3
:102D400013D8000123101400231104017B9AA3203F
:102D5000FB96A3287B9940299353090123902801CE
:102D60002391780003552400035D0400B3897901A1
:102D700093120501B38E9E01330FBF0033E7A2010A
:102D80007B1B472193900F01139A060113D906016B
:102D900013D8000193DF0F0193560A0193530B01DF
:102DA000231064012311740033052801338DDF40A3
:102DB0002310A3002311A30133072841B382DF00AE
:102DC0002390E700239157001306F6FF13044400F5
:102DD000130343009388480093874700E31206E2F9
:102DE00063840A006FE09FA66FE09FCA330314005C
:102DF000B3081300B7030100B3871800138F09004D
:102E0000938E0900374E00001385F3FF0319040069
:102E1000031B2400931DD900931FDB00338A2D412F
:102E2000338D6F41B306CA013308CD0193D0F6400C
:102E30001357F8402311E4002310140083130300F8
:102E4000831223001399D300139BD200B30D794052
:102E5000B30F5B40338ACD01338DCF019356FA40D7
:102E60001358FD402310D300231103018390080061
:102E7000839328009392D0001397D3003389124094
:102E8000330B7740B30DC901B30FCB0113DAFD400B
:102E900013DDFF40239048012391A8010398070008
:102EA000839027009316D8009393D000B3820641F5
:102EB000338713403389C201330BC701935DF94057
:102EC000935FFB402390B7012391F701035D23003B
:102ED00003D82900035A030083D0090093160D017B
:102EE00093120801B3E3460133E712007B9DE31818
:102EF00003D9280003D82E0003DB080003DA0E00F4
:102F00009310090193160801B3E36001B3E246018F
:102F10007B99531803572F0003580F00B3FDAD00E2
:102F2000939F0F01131B070133EAFD01B3600B01EF
:102F3000FB161A18835324008352040013970301CD
:102F400033685700FB1D2829FB1F282113D90F01C7
:102F50002310F401231124017B1BDD207B1DDD28C0
:102F60007B9A6F2993500A012390480123911800FE
:102F70008356240083530400B38979019392060198
:102F8000B38E9E01330FBF0033E772007B186721B9
:102F900013590D01939F0D01131D0D0113DB0F013B
:102FA00093DD0D0193500D01135A08012310040104
:102FB00023114401B3062B41B3831D002310D3001A
:102FC0002311730033072B01B3821D402390E700C8
:102FD000239157001306F6FF130444001303430024
:102FE0009388480093874700E31206E263840A004F
:102FF0006FE0DF856FE0DFA9B30B6D03B7860000DC
:103000009380F6FFB7030100931F2B00338EAD00B2
:10301000930500009307000023241100374F0000A0
:10302000938CF3FF9302450093880A0013870400F2
:10303000635E40BBB30AAE409384CAFF832E810017
:1030400013D32400937D1300B3CA4E031308050065
:103050001303040063940D04831604000316240074
:10306000130845003303F401B3805603B30356033A
:10307000B384E00193DDF440939E0D0193D60E01DD
:10308000B3F096013386E3019353F6409394030122
:10309000B3ED90002320B501630AC807831603002F
:1030A00083102300B30EF301B384560303960E007E
:1030B00083932E003383FE0113088800B38D5003E1
:1030C000B38EE40193D6FE40B3F496013306560363
:1030D000B380ED0193DDF040939E0D01B3E6D40182
:1030E000232CD8FEB3835303B304E60113D6F44074
:1030F000B3709601B38DE30193DEFD4093960E010C
:10310000B3E3D000232E78FEE31AC8F983540500F8
:10311000835A250013081000231094002311540132
:103120001306040063040AAD938E050093030400A4
:103130009300000023261101930D0B00130B1000C8
:10314000B3086A4113F818001383020093060000C5
:10315000630E080493860E0063C42E01B3862E41CD
:10316000139B26003383690103582300035B03008C
:1031700083A8020013130801336863017B9B0819BD
:10318000835826000353060013980801B3686800AB
:103190007B9B682113530B012310660123116600EA
:1031A000130B200013834200630C6A0B232271006F
:1031B000B386D60163C42601B386264193932600C5
:1031C00033887900835828000358080083230300BC
:1031D0009398080133E80801FB9803190358260067
:1031E0008353060013180801B36378007B981321FA
:1031F000935808012310060123111601B386D60146
:103200001303430093031B0063C42601B3862641C6
:10321000139B26003388690183582800035808004F
:10322000032B03009398080133E80801FB180B19DE
:1032300003582600035B060013180801336B68016E
:103240007B181B2193580801231006012311160136
:10325000138B130013034300E31C6AF5832341001F
:1032600093801000B383F301B38E7E01630C1A9632
:103270001386030023909300239153016FF01FECFA
:1032800093171D00338FA70113192D0013153D004F
:10329000131D4D00232231012324A10323263101D4
:1032A000138D090023243101B7090100B72600005E
:1032B00093152F001386F9FF232C21012320A1024F
:1032C0002326B102232A0100938D9699B74B000063
:1032D0002328C102232C5103232E910283140400BE
:1032E000831A24003387B403338ABA03330E770179
:1032F0009353FE4023107400B30E7A0193D2FE4024
:1033000023115400031F080083172800B306BF03CE
:103310003389B703338576019355F5402310B80000
:10332000B309790113D6F9402311C800839408002A
:10333000839A28003387B403338ABA03330E7701A4
:103340009353FE4023907800B30E7A0193D2FE404F
:1033500023915800031F0300831723008322410099
:10336000B306BF033389B703338576019355F54020
:103370002310B300B309790113D6F9402311C30018
:1033800083940F00839A2F003387B403338ABA03E0
:10339000330E77011359FE4023902F01B3037A01B6
:1033A00013D5F3402391AF00835E280003DF220092
:1033B0008356080083D9020093970E0193150F01DD
:1033C0000317240033E6D700B3E43501FB1A96183F
:1033D00003DA280083532D0083DE0800035E0D000E
:1033E00093120A01139F0301B3E6D201B369CF011F
:1033F000FB9736190326810083552300035A0300E7
:103400008354260083530600939E0501139E0401F6
:10341000B3E24E01336F7E00FB95E2198326C100B3
:10342000032601031315050183D9260083D4060062
:103430003379C900139A0901B363A900B36E9A00E6
:103440007B9ED3197B9ACA2193590A017B9FCA2973
:103450007B99B720935A0901FB97B7289315090167
:1034600093D30541832501019396090193940A01A1
:1034700093DE064113160F0193D40441131707017D
:103480001355064193560F413386BE02135F070161
:1034900083550400B3093F0193120A01B38A59010D
:1034A000330A2A013389450123115401832A01017A
:1034B00033871402330676012310240113DE024100
:1034C000135AF6409392070193D2024193D70741D2
:1034D000330977011357F9403306EA00B3095E0355
:1034E000330ACF0013190A0133871302B389790114
:1034F00013D6F940330A77011357FA403306E60032
:10350000338AC50013170A01B3096503135607016F
:103510003369C900338A9203B389790113D7F9401B
:10352000330A7A019359FA4033073701330AE040EE
:103530003386660393190A013387970333067601AE
:103540001356F640330A77011357FA403306E60064
:10355000131A060113570A0133E6E900FB19C928BB
:1035600013DA090123103801231148017B17C92000
:10357000B38E1E02135907012390EF0023912F01F0
:10358000B384540333867E019359F640330E1E02F2
:10359000338A74011357FA40B38EE900330FDF0109
:1035A00013190F01B3835303B30A7E0193D4FA4076
:1035B000B3876703338673019359F640338E340122
:1035C000B385C501139A050113570A01B36EE900CB
:1035D000B3869603338677019359F64033059503F6
:1035E000338E76019355FE40338AB94013170A0192
:1035F000B3826203330F75011359FF40B383720125
:1036000093DAF340B304594113950401935207012F
:10361000336F55007B99EE219357090123902801C0
:103620002391F800FB9EEE29832A410103254100E6
:10363000032E81000327C100832681018325C10257
:1036400083228102832901020329C10193D30E0140
:1036500093841A003306D500330ABE00330F570097
:103660002310D30123117300232A91002322C100C8
:10367000232441012326E1011304440013084800D8
:103680009388480013034300938F4F00330D3D018F
:10369000E31699C4832A81038324C10363840A0047
:1036A0006FE0CF9A6FE0CFBE83D9070013074700C2
:1036B000231E37FF03DA2700B3879701231F47FF35
:1036C0006FF04F9317040100032484208329040022
:1036D000130670019305100083A6C90017F50000BA
:1036E0001305452AEF105047032A040093051000E4
:1036F000130690018326CA0017F500001305052A5A
:10370000EF109045032D04001305A0008325CD0084
:10371000EF10902563840A006FE04F936FE04FB77E
:10372000130101FE232C810093073500232E110085
:103730001304050013952700638006066302060440
:1037400083A0060063EEA00223A0A60013050600D6
:103750008320C101232085000324810197020100F9
:1037600083A2C216170301000323C3162322B50048
:103770002326550023246500130101026780000001
:1037800023A0A600130500008320C10103248101AA
:1037900013010102678000002326B100EF0050648E
:1037A0008325C100E31605FA130500006FF0DFFD65
:1037B000130101FE232C810023263101232E110049
:1037C00013040500938906006384C50283268400E0
:1037D00013070400032481018320C101130506009F
:1037E000138609008329C100130101026FD05FEF26
:1037F000232A9100938405006382050603250500B2
:103800002328210113152500EF00905D1309050001
:103810006308050A83268400130704001386090041
:1038200093850400EFD0DFEB032604009305090025
:103830001385040013162600EF20007E0324810167
:10384000832441018320C1018329C100130509009C
:1038500003290101130101026F005059970901006A
:1038600083A9090783A009001306700193051000BE
:1038700083A6C00017F5000013050514EF10D02D26
:1038800083A30900930510001306100183A6C3004B
:1038900017F500001305C513EF10102C83A50900C0
:1038A000832441011305A00083A5C50003248101E1
:1038B0008320C1018329C100130101026F10D00AC6
:1038C000170401000324C4008327040013067001B9
:1038D0009305100083A6C70017F500001305851097
:1038E000EF10902783220400930510001306800137
:1038F00083A6C20017F5000013054510EF10D02570
:103900000323040083244101032901018325C3000B
:103910001305A0006FF09FF91300000013000000D2
:10392000130101FF23248100232611001304050045
:103930006382C502832684001307040003248100E8
:103940008320C100130506001306100013010101B6
:103950006FD01FD923229100938405006380050650
:10396000032505002320210113152500EF005047F2
:10397000130905006304050A832684001307040065
:103980009385040013061000EFD09FD50326040092
:10399000930509001385040013162600EF20C06765
:1039A00003248100832441008320C1001305090002
:1039B00003290100130101016F0050439704010026
:1039C00083A404F183A00400130670019305100082
:1039D00083A6C00017F50000130505FEEF10D017F1
:1039E00083A30400930510001306100183A6C300EF
:1039F00017F500001305C5FDEF10101683A5040090
:103A0000832441001305A00083A5C5000324810081
:103A10008320C100130101016F100075170401001C
:103A2000032404EB832704001306700193051000A0
:103A300083A6C70017F500001305C5FAEF10D011D3
:103A400083220400930510001306800183A6C200A0
:103A500017F50000130585FAEF101010032304007A
:103A600083244100032901008325C3001305A0001E
:103A70006FF0DFF9130000001300000013000000D6
:103A80006780000013000000130000001300000016
:103A900093771500930630001307500013081000A9
:103AA000639407189307050013D6F701B302F600D5
:103AB00093D7124013D3F70193F51700B303F30024
:103AC0006394050893D7134093D8F70193FE17002A
:103AD000338EF800639A0E0693571E4013DFF701EA
:103AE00013F61700B30FFF006310060693D71F40AD
:103AF00093D2F70193F317003383F2006396030424
:103B00009357134093D5F70113FE1700B388F500C0
:103B1000631C0E0293D7184093DEF70193FF170042
:103B2000338FFE0063920F0293571F4013D6F701A5
:103B300013F31700B302F6006318030093D7124083
:103B400093F31700E38203F6B3E5D7026392050609
:103B5000B3C7D702B3E8D702639C0804B3C7D70240
:103B600033EED70263160E04B3C7D702B3EED70203
:103B700063900E04B3C7D70233EFD702631A0F0264
:103B8000B3C7D702B3EFD70263940F02B3C7D7020C
:103B900033E6D702631E0600B3C7D702B3E2D702EB
:103BA00063980200B3C7D70233E3D702E30203FAF4
:103BB000B3E3E70263920306B3C7E702B3E5E702A4
:103BC000639C0504B3C7E702B3E8E7026396080401
:103BD000B3C7E70233EEE70263100E04B3C7E70290
:103BE000B3EEE702639A0E02B3C7E70233EFE702D0
:103BF00063140F02B3C7E702B3EFE702639E0F003F
:103C0000B3C7E70233E6E70263180600B3C7E7026B
:103C1000B3E2E702E38202FA635CF80013051500E1
:103C200093771500E38007E8930705006FF0DFF155
:103C3000678000001308000063C6051263DC0600FD
:103C4000B337C000B306D0401348F8FFB386F64040
:103C50003306C040930806001307050013830500D0
:103C6000639A060E63F4C516B70701006364F62273
:103C7000B7070001930680016374F6009306000104
:103C8000B7370180335ED600938747A1B387C7015A
:103C900083C70700130E0002B387D700B306FE40A8
:103CA000630CFE003393D500B357F500B318D6006C
:103CB00033E367003317D50013D608013355C30229
:103CC0009396080193D60601935707013373C302F5
:103CD000B385A60213130301B3E7670063FCB700C3
:103CE000B387F8001303F5FF63E4170163E6B740F9
:103CF00013050300B387B740B3D5C70213170701F5
:103D000013570701B3F7C702B386B60293970701AB
:103D10003367F700637ED7003387E8009387F5FFAA
:103D2000636617019385E5FF6364D70093850700F9
:103D3000131505013365B50093050000630A0800FB
:103D4000B337A000B305B040B385F5403305A040BC
:103D50006780000063F4D50293050000130500009E
:103D60006FF0DFFDB337A000B305B040B385F54079
:103D70003305A0401308F0FF6FF05FECB7070100B8
:103D800063E8F61EB70700019308800163F4F600AC
:103D900093080001B737018033D71601938747A1F5
:103DA000B387E70003C70700930700023307170133
:103DB000B388E7406396E71C63E4B6303335C5004B
:103DC00013351500930500006FF05FF7630C060CC8
:103DD000B7070100637CF62C13330610133313006E
:103DE00013133300B3566600B7370180938747A19A
:103DF000B387D70083C6070093070002B386660027
:103E0000B38ED7406394D70CB386C54013530601D5
:103E100013160601135606019305100033D56602EA
:103E200093570701B3F66602330EC5029396060157
:103E3000B3E7D70063FCC701B387F8009306F5FF2B
:103E400063E4170163E4C72B13850600B387C741FA
:103E5000B3D667021317070113570701B3F76702B9
:103E60003386C602939707013367F700637EC70066
:103E70003387E8009387F6FF636617019386E6FFB2
:103E80006364C70093860700131505013365D500E9
:103E90006FF0DFEA9336061093B61600939636005D
:103EA0006FF01FDEB737018093060000938747A1AC
:103EB000B387D70083C607001303000093070002EF
:103EC000B3866600B38ED740E380D7F4B318D6012B
:103ED00033DED50013D30801B3576E0213960801E1
:103EE00013560601B356D5003317D501B395D50146
:103EF000B3E6B60093D50601337E6E023305F602B3
:103F0000131E0E01B3E5C50163FEA500B385B8001D
:103F1000138EF7FF63E4151D63F2A51C9387E7FF7B
:103F2000B3851501B385A54033D565029396060187
:103F300093D60601B3F56502330EA60293950501EB
:103F4000B3E6B60063FEC601B386D8009305F5FF5D
:103F500063EE161763FCC6171305E5FFB38616015B
:103F600093950701B386C641B3E5A5006FF01FEB3B
:103F700093B8061093B81800939838006FF09FE13B
:103F8000B35EE600B3961601B3EEDE0033D3E50070
:103F900013DF0E01B357E303139E0E01B395150112
:103FA000135E0E013357E5003367B70093560701E0
:103FB000331616013373E303B305FE021313030133
:103FC000B3E6660063FEB600B386DE001383F7FF38
:103FD00063EAD61163F8B6109387E7FFB386D6017C
:103FE000B386B640B3D5E60313170701135707018D
:103FF000B3F6E6033303BE02939606013367D70098
:10400000637E67003387EE009386F5FF6364D70D08
:104010006372670C9385E5FF3307D7019397070118
:10402000370F0100B3E7B7009306FFFFB3F5D700E2
:1040300013DE0701B376D60013560601B38ED50200
:1040400033076740B306DE0213D30E01B385C50202
:10405000B385D500B305B300330ECE0263F4D500AB
:10406000330EEE0193D60501B386C601636AD7020B
:104070006308D70013850700930500006FF01FCC7D
:10408000B70601009386F6FF33F7D5001317070133
:10409000B3FEDE00331515013307D701E37CE5FCE1
:1040A0001385F7FF930500006FF05FC9B7070001A4
:1040B000637AF60493560601130300016FF0DFD212
:1040C00093050000130510006FF05FC7138505000E
:1040D0006FF01FE9938506006FF05FF493070E0001
:1040E0006FF05FE4930703006FF09FEF1305E5FFA8
:1040F000B38717016FF09FD51305E5FFB38717014D
:104100006FF05FBF93568601130380016FF0DFCD20
:104110001308060093080500138705006390060E38
:1041200063FEC512B7070100636EF61EB7070001F4
:10413000930680016374F60093060001B73701808F
:104140003353D600938747A1B387670083C707001F
:1041500013030002B387D700B306F340630CF300E8
:104160003397D500B357F5003318D60033E7E7008F
:10417000B318D500135608013355C702931608012A
:1041800093D6060193D708013377C702B385A602F9
:1041900013170701B3E7E70063FCB700B307F800A4
:1041A0001307F5FF63E4070163E0B73E130507005B
:1041B000B387B74033D7C7029398080193D8080153
:1041C000B3F7C702B386E60293970701B3E8F80096
:1041D00063FED800B30818019307F7FF63E60801F0
:1041E0001307E7FF63E4D8001387070013150501E1
:1041F0003365E500930500006780000063F8D50093
:10420000930500001305000067800000B707010058
:1042100063E8F61EB70700011308800163F4F60097
:1042200013080001B737018033D70601938747A1F0
:10423000B387E70003C707009307000233070701AE
:104240003388E7406396E71C63E4B6303335C50036
:10425000133515009305000067800000630C060C01
:10426000B7070100637CF62C1337061013371700CD
:1042700013173700B356E600B7370180938747A17D
:10428000B387D70083C7070093060002B387E70010
:10429000B38EF6406394F60CB387C540935606017F
:1042A00013160601135606019305100033D5D702E5
:1042B00013D70801B3F7D7023303C5029397070159
:1042C000B367F70063FC6700B307F8001307F5FF57
:1042D00063E4070163E4672A13050700B3876740B7
:1042E00033D7D7029398080193D80801B3F7D702C0
:1042F0003306C70293970701B3E8F80063FEC800CE
:10430000B30818019307F7FF63E608011307E7FFF7
:1043100063E4C80013870700131505013365E50042
:10432000678000009336061093B616009396360009
:104330006FF0DFE0B737018093060000938747A155
:10434000B387D70083C70700130700009306000256
:10435000B387E700B38EF640E380F6F43318D60156
:1043600033D3F50093560801335ED30213160801C8
:10437000B395D50113560601B357F500B3E7B7005F
:1043800013D70701B318D5013373D302B305C6039E
:104390001313030133676700637EB7003307E80038
:1043A0001305FEFF6364071D6372B71C130EEEFF57
:1043B000330707013307B7403355D70293970701F7
:1043C00093D707013377D7023303A60213170701E8
:1043D000B3E7E70063FE6700B307F8001307F5FFD4
:1043E00063EE071763FC67161305E5FFB387070144
:1043F00093150E01B3876740B3E5A5006FF01FEB7F
:1044000013B8061013381800131838006FF09FE126
:10441000335EE600B3960601336EDE00B3D8E500E6
:10442000935E0E01B3D7D80313130E01B3950501A4
:10443000135303013357E5003367B7009356070161
:1044400033160601B3F8D803B305F30293980801B5
:10445000B3E6160163FEB600B306DE009388F7FFED
:1044600063EAC61163F8B6109387E7FFB386C60107
:10447000B386B640B3D5D603131707011357070108
:10448000B3F6D603B308B302939606013367D70099
:10449000637E17013307EE009386F5FF6364C70D53
:1044A0006372170D9385E5FF3307C70193970701E3
:1044B000B70E0100B3E7B7009386FEFFB3F5D70050
:1044C00013D30701B376D60013560601338ED502F7
:1044D00033071741B306D30293580E01B385C502C3
:1044E000B385D500B385B8003303C30263F4D500A8
:1044F0003303D30193D60501B3866600636AD702FE
:104500006308D7001385070093050000678000004B
:10451000B70601009386F6FF33F7D500131707019E
:10452000337EDE00331505013307C701E37CE5FC6C
:104530001385F7FF9305000067800000B7070001AF
:10454000637AF60493560601130700016FF0DFD279
:104550009305000013051000678000001305070095
:104560006FF01FE9938506006FF05FF4130E0500EE
:104570006FF05FE4938708006FF09FEF1305E5FF8E
:10458000B38707016FF09FD51305E5FFB3870701D8
:104590006FF01FC293568601130780016FF0DFCDC5
:1045A00093050500930600001306000013050000A4
:1045B0006F109049130101FF93050000232481002F
:1045C0002326110013040500EF10905183A781F5F5
:1045D00063840700E780070013050400EFC04F8DD8
:1045E0009305050003A541F46F0000019305050044
:1045F00003A541F46F109075130101FD232E3101C5
:104600002326110223248102232291022320210345
:104610009387B50013076001930905006360F708ED
:104620009307000163E0B720EF0000789307800153
:10463000930520009304000113898182B307F900D8
:1046400003A44700138787FF6300E43483274400F3
:104650008326C4000326840093F7C7FFB307F40042
:1046600003A747002326D60023A4C600136717001C
:104670001385090023A2E700EF00407313058400AF
:104680008320C10203248102832441020329010201
:104690008329C101130101036780000093F487FFA0
:1046A00063C2071863E0B418EF0000709307701F2F
:1046B00063F6973E93D79400638E07161307400066
:1046C000636CF73293D7640093859703138887034D
:1046D00013963500138981823306C90003244600EE
:1046E000130686FF630886021305F0006F00400181
:1046F0008326C40063560728630ED6001384060081
:104700008327440093F7C7FF33879740E352E5FEC2
:10471000930508000324090193088900630E1425FA
:10472000832744009306F00093F7C7FF3387974031
:1047300063CCE636232A1901232819016350073474
:104740001307F01F032549006368F72413F787FF59
:10475000130787003307E9008326070013D65700A5
:1047600093071000B397C7003365F500930787FFE1
:104770002326F4002324D4002322A9002320870029
:1047800023A6860093D72540130610003316F600A3
:10479000636AC50AB377A60063940702131616006E
:1047A00093F5C5FFB377A60093854500639A07008C
:1047B00013161600B377A60093854500E38A07FE1B
:1047C0001308F00013933500330369001305030049
:1047D0008327C500138E05006302F52403A7470055
:1047E0001384070083A7C7001377C7FFB30697405A
:1047F0006342D824E3C206FE3307E4008326470061
:10480000032684001385090093E616002322D700AF
:104810002326F60023A4C700EF00405913058400A7
:104820006FF01FE69307C00023A0F90013050000F6
:104830006FF01FE513060020930500041308F00332
:104840006FF05FE903248900232861018327440076
:1048500013FBC7FF63689B0033079B409307F0007F
:1048600063CAE70C23229101232A510103A7C1F354
:1048700083AA41F5232C4101232671019307F0FF00
:10488000330A6401B38A54016306F73CB71700008A
:104890009387F700B38AFA00B7F7FFFFB3FAFA007D
:1048A00093850A0013850900EF10804D9307F0FFF0
:1048B000930B0500630AF54423248101636E4523AD
:1048C000138C81F683250C00B385BA002320BC002D
:1048D000138705006316AA2A931745016392072AD6
:1048E000832B8900B3075B0193E7170023A2FB002A
:1048F00083A601F563F4B60023A8B1F483A6C1F43E
:1049000063F4B60023A6B1F4032C810013840B00DA
:1049100093F7C7FF3387974063EA97389307F00010
:1049200063D6E738032A8101832A4101832BC10022
:10493000832C410093E714002322F400B304940075
:1049400023249900136717001385090023A2E400AC
:10495000EF00C0458320C1021305840003248102B7
:10496000032B010183244102032901028329C10190
:104970001301010367800000032549006FF09FE0E9
:10498000032684006FF09FCD03A4C7009385250004
:10499000E38287D86FF09FCB13D797009306400030
:1049A00063F2E6149306400163E4E6321306C7059A
:1049B0009306B705131636003306C9000327060011
:1049C000130686FF6318E6006F004029032787005F
:1049D0006308E6008326470093F6C6FFE3E8D7FEA8
:1049E0000326C7002326C4002324E40023248600D2
:1049F000232687006FF01FD9130740016378F71053
:104A0000130740056364F72E93D7C4009385F70618
:104A10001388E706139635006FF0DFCB130E1E00E8
:104A200093773E0013058500638007108327C50038
:104A30006FF09FDA0326840093E514002322B4006C
:104A40002326F60023A4C700B3049400232A990068
:104A50002328990093E7160023A6140123A4140128
:104A600023A2F4003307E400138509002320D700B4
:104A7000EF00C033130584006FF09FC0B307F4004C
:104A800003A74700138509001367170023A2E70057
:104A9000EF00C031130584006FF09FBE93D5340042
:104AA000938784006FF05FB993E614002322D4004B
:104AB000B3049400232A99002328990093661700D1
:104AC00023A6140123A4140123A2D400B307F400E5
:104AD0001385090023A0E700EF00402D1305840093
:104AE0006FF01FBA13D76700130697039306870367
:104AF000131636006FF05FEC630C24070324890063
:104B0000032C8100832744006FF09FE09385C70545
:104B10001388B705139635006FF0DFBB832783003A
:104B20009385F5FF639E672693F73500130383FF94
:104B3000E39607FE032749009347F6FFB3F7E70024
:104B40002322F90013161600E3EEC7CEE30C06CEBF
:104B50003377F600631A0700131616003377F60052
:104B6000130E4E00E30A07FE93050E006FF09FC57B
:104B7000138C81F603270C003387EA002320EC0016
:104B800083A6C1F39307F0FF6386F618B3874B4102
:104B9000B387E7002320FC0093FC7B00638C0C0CA4
:104BA000B38B9B41B717000093878700938B8B00D3
:104BB000B3859741B38A5B01B38555419395450110
:104BC00013DA450193050A0013850900EF10401B15
:104BD0009307F0FF6300F51833057541B30A4501EB
:104BE00003270C002324790193E71A00B305EA0098
:104BF0002320BC0023A2FB00E30C24CF9306F0008B
:104C000063F0660B0327440093074BFF93F787FF7E
:104C1000137717003367F7002322E40013065000D0
:104C20003307F4002322C7002324C70063E6F600FD
:104C300083A74B006FF0DFCB930584001385090039
:104C4000EF10D010832B890083250C0083A74B0025
:104C50006FF01FCA938A0A016FF09FC493D6264053
:104C600093071000B397D7003365F5002322A900FE
:104C70006FF05FD7B3855B01B305B04093954501F5
:104C800013DA450193050A0013850900EF10400F60
:104C90009307F0FFE312F5F4130A00006FF05FF4DE
:104CA000032C81009307100023A2FB001385090049
:104CB000EF00C00F13050000032A8101832A410180
:104CC000032B0101832BC100832C41006FF05F9BFC
:104CD0009306400563E4E60413D7C7001306F706FE
:104CE0009306E706131636006FF01FCD1307401525
:104CF0006364F70493D7F4009385870713887707D5
:104D0000139635006FF01F9D03248900832744000C
:104D10006FF01FC023AE71F36FF01FE893064015CC
:104D200063E4E60413D7F7001306870793067707B3
:104D3000131636006FF05FC8130740556364F7041D
:104D400093D724019385D7071388C7071396350097
:104D50006FF05F98938C8CFFB38A9A01B38A7A4183
:104D6000130A00006FF0DFE79306405563E4E602A4
:104D700013D727011306D7079306C7071316360064
:104D80006FF09FC31306803F9305F0071308E007F9
:104D90006FF05F941306803F9306E0076FF0DFC16A
:104DA000832749006FF01FDA6780000067800000EA
:104DB0001305000067800000B7A50080138601C3BB
:104DC0009385C592138501C46F000041130101FF53
:104DD00083254500232481002322910023261100EE
:104DE000138401F99304050063848500EF401034B7
:104DF00083A58400930784066386F5001385040069
:104E0000EF40D03283A5C4001304040D638E8500E7
:104E1000032481008320C100138504008324410002
:104E2000130101016F4090308320C10003248100F1
:104E30008324410013010101678000001305000075
:104E400067800000130101FE232C8100B75700800A
:104E5000138401F9938787DB232E1100232A910005
:104E600023282101232631012324410123ACF1F41D
:104E70001306800093074000930500001305C40546
:104E80002326F4002320040023220400232404000A
:104E90002322040623280400232A0400232C0400D0
:104EA000EF10C009B7070100375A0080B7590080DA
:104EB00037590080B7640080130A4A6C938989725D
:104EC0001309097B938484829387970013068000DB
:104ED000930500001305440C2320440323223403CC
:104EE0002324240323269402232AF406232E840059
:104EF0002324040623260406232804062326040C60
:104F0000232C0406232E040623200408EF1000039C
:104F1000B707020013078406938727011305C412FD
:104F20001306800093050000232444092326340936
:104F300023282409232A9408232EF40C2322E4088E
:104F40002328040C232A040C232C040C232A0412E7
:104F50002320040E2322040E2324040EEF00107ECF
:104F60009307040D2328440F232A340F232C240FE6
:104F7000232E940E8320C1012326F40E03248101E5
:104F800083244101032901018329C100032A8100EF
:104F9000130101026780000083A781F5130101FE60
:104FA00023263101232E1100232C8100232A910076
:104FB00023282101930905006386070E138901C385
:104FC0009304F0FF83274900032489009387F7FFA8
:104FD00063D807006F00000813048406638C9706EB
:104FE0000317C4009387F7FFE31807FEB707FFFF17
:104FF000938717002326F4002322040623200400AD
:10500000232404002322040023280400232A04006C
:10501000232C040013068000930500001305C4052B
:10502000EF00D07123280402232A0402232204045F
:10503000232404048320C1011305040003248101F7
:1050400083244101032901018329C10013010102C5
:1050500067800000032409006306040013090400AC
:105060006FF05FF69305C01A13850900EFF0CFD8F3
:1050700013040500630C05021305C50093074000E7
:10508000232004002322F4002324A4001306001A82
:1050900093050000EF00906A2320890013090400A3
:1050A0006FF05FF2EFF01FDA6FF05FF1232009007D
:1050B0009307C00023A0F9006FF0DFF783274503B3
:1050C000638407006780000003A781F5B75700805D
:1050D0009387C7DC232AF502E31607FE6FF09FD6FD
:1050E0006780000067800000B7550080138601C309
:1050F000938505DB130500006F00000EB755008097
:10510000138601C39385C5E3130500006F00C00C2F
:10511000130101FE232C8100232E1100130405002E
:105120006306050083274503638C0700130504000D
:10513000032481018320C101130101026F00803724
:105140002326C1002324B100EFF05FF7130504000C
:10515000032481010326C100832581008320C1012E
:10516000130101026F000035130101FE232A910093
:1051700083A441F4232C8100232E11001304050085
:10518000138605006386040083A744036380070237
:1051900093050400032481018320C10113850400C9
:1051A00083244101130101026F00C0301385040004
:1051B0002326B100EFF09FF0930504000324810142
:1051C0000326C1008320C10113850400832441010B
:1051D000130101026F00002E130101FD23202103A2
:1051E000232E3101232C4101232A5101232861015F
:1051F00023267101232611022324810223229102F6
:10520000130B0500938B0500930A0600130A000098
:10521000930910001309F0FF83A44A0003A48A0035
:105220009384F4FF63C804028357C40063FEF9004B
:105230008317E4009305040013050B006386270120
:10524000E7800B00336AAA009384F4FF13048406FA
:10525000E39C24FD83AA0A00E3900AFC8320C10298
:105260000324810283244102032901028329C1010D
:10527000832A4101032B0101832BC10013050A007E
:10528000032A81011301010367800000130101FB60
:10529000232021053389C6029307C1012322F1028D
:1052A000930710002324810423229104232E310329
:1052B000232EB100232611042324F10223202103ED
:1052C0002326210393090600138406009304050096
:1052D00093050700630605008327450363860706D9
:1052E0008397C500139727016342070203A745066A
:1052F000B7E6FFFF9386F6FF37260000B3E7C70047
:105300003377D7002396F50023A2E5061306410262
:1053100013850400EF405025630805008327C10270
:105320003309F940335439038320C10413050400C1
:105330000324810483244104032901048329C10334
:1053400013010105678000002326E100EFF01FD75D
:105350008325C1006FF0DFF8130101FB23229104C4
:10536000B384C502232E310383A941F49307C101FD
:105370002322F10293071000232481042320210516
:1053800023261104232EA1002324F10223209102BD
:105390002326910213890500130406009385060055
:1053A0006386090083A74903638607068397C500C0
:1053B000139727016342070203A74506B7E6FFFFDD
:1053C0009386F6FF37260000B3E7C7003377D70090
:1053D0002396F50023A2E506130641021385090072
:1053E000EF409018630805008327C102B384F4409E
:1053F00033D424038320C10413050400032481044F
:1054000083244104032901048329C10313010105F5
:1054100067800000138509002326D100EFF01FCA22
:105420008325C1006FF09FF8130101FC2324C10202
:105430002326D1022328E102232AF102232C01038F
:10544000232E110313860500832585009306810210
:10545000232E11002326D100EF10803F8320C101AD
:10546000130101046780000003A341F4130101FC50
:105470002324C1022326D1022322B1022328E102E0
:10548000232AF102232C0103232E110383258300F9
:10549000930641021306050013050300232E110095
:1054A0002326D100EF10C03A8320C101130101046B
:1054B00067800000130101FE232C8100232E1100C0
:1054C0001304050063060500832745036380070670
:1054D000832786009387F7FF2324F60063DC070009
:1054E0000327860163CAE70293F7F50F1307A000AD
:1054F0006384E7028327060013F5F50F138717006F
:105500002320E6002380B7008320C101032481010A
:1055100013010102678000001305040003248101C8
:105520008320C101130101026F0080302326C100D6
:105530002324B100EFF09FB80326C100832581002A
:105540006FF01FF9130101FE232A210103A941F481
:10555000232C9100232E11009304050063060900FB
:10556000832749036388070683A785009387F7FF8E
:1055700023A4F50063DC070003A7850163CCE702E1
:1055800093F7F40F1307A0006386E70283A70500D3
:1055900013F5F40F1387170023A0E500238097006D
:1055A0008320C101832481010329410113010102E8
:1055B000678000008320C1011386050013050900E0
:1055C0009385040003294101832481011301010211
:1055D0006F000026130509002326B100EFF01FAE6F
:1055E0008325C1006FF05FF8130101FC232C8102B9
:1055F0001304050013850500232A9102232E1102AE
:1056000093840500EF00903BB7370180938747B143
:105610002324F102930710002326F10203274403F9
:105620009307010293061500232AF1009307200037
:10563000232091022322A102232ED100232CF1004A
:1056400083258400630007068397C500139727010D
:105650006342070203A74506B7E6FFFF9386F6FFFE
:1056600037260000B3E7C7003377D7002396F5004D
:1056700023A2E5061306410113050400EF40C06EA6
:105680008320C10303248103133515003305A04093
:105690001375B500832441031305F5FF13010104BD
:1056A00067800000130504002326B100EFF01FA15E
:1056B0008325C1006FF05FF99305050003A541F450
:1056C0006FF09FF2130101FF232481001384050072
:1056D0008395E50023261100EF0000646340050276
:1056E000832704058320C100B387A7002328F4047F
:1056F0000324810013010101678000008357C40067
:1057000037F7FFFF1307F7FFB3F7E7008320C10068
:105710002316F400032481001301010167800000B7
:1057200013050000678000008397C500130101FE88
:10573000232C8100232A91002328210123263101D3
:10574000232E110013F7071013840500930405009E
:1057500013090600938906006310070437F7FFFF5B
:105760001307F7FFB3F7E7008315E4002316F400EF
:10577000032481018320C1019386090013060900D7
:105780008329C100032901011385040083244101F9
:10579000130101026F0080648395E50093062000E9
:1057A00013060000EF00C0508317C4006FF01FFB0A
:1057B000130101FF23248100138405008395E50074
:1057C00023261100EF00C04E9307F0FF6308F50297
:1057D0008357C400371700008320C100B3E7E700F8
:1057E0009397070193D707412328A4042316F400B5
:1057F0000324810013010101678000008357C40066
:1058000037F7FFFF1307F7FFB3F7E7009397070199
:1058100093D707418320C1002316F400032481009D
:1058200013010101678000008395E5006F00403699
:10583000130101FE232C8100232A9100232821013A
:10584000232E11001309050093840500130406009C
:1058500063060500832745036380071683278401B9
:105860000317C4002324F40093778700638007089C
:1058700083270401638C0706232631019316270131
:1058800093F9F40F93F4F40F63D806080327040088
:1058900083264401B307F74063D8D70A83268400E0
:1058A000130617002320C4009386F6FF2324D40098
:1058B0002300370103274401938717006302F70C85
:1058C0008357C40093F71700639A070C8329C1001C
:1058D0008320C101032481010329010113850400F0
:1058E0008324410113010102678000009305040035
:1058F00013050900EF00000E631E05080317C4001E
:1059000023263101832704019316270193F9F40F0D
:1059100093F4F40FE3CC06F68326440637E6FFFF44
:10592000B72500003367B7001306F6FFB3F6C600CD
:105930002316E400032704002322D406832644010F
:10594000B307F740E3CCD7F493050400130509002F
:10595000EF40C033631E0502032704008326840042
:1059600093071000130617009386F6FF2320C40048
:105970002324D4002300370103274401E312F7F462
:105980009305040013050900EF404030E30005F4DF
:105990008329C1009304F0FF6FF09FF39307A000E9
:1059A000E396F4F29305040013050900EF40002E7E
:1059B000E30E05F06FF0DFFDEFF04FF06FF01FEA40
:1059C0009307050003A541F413860500938507009E
:1059D0006FF01FE683A741F4130101FF2324810028
:1059E000232291002326110093040500138405004F
:1059F0006386070003A74703630C070E8317C400E1
:105A000013F78700630A07060327040163060708E4
:105A100093F61700638806028326440123240400BA
:105A200013050000B306D040232CD400630A0702FC
:105A30008320C1000324810083244100130101015C
:105A40006780000093F627001306000063940600A9
:105A5000032644012324C40013050000E31A07FCB5
:105A600013F70708E30607FC93E707042316F4007F
:105A70001305F0FF6FF0DFFB13F707016300070862
:105A800013F74700631C07020327040193E787000D
:105A90002316F400E31E07F693F6072813060020EA
:105AA000E388C6F69305040013850400EF40C07C2C
:105AB0008317C400032704016FF09FF583250403B7
:105AC000638E0500130704046388E5001385040052
:105AD000EF00D0278317C400232804020327040102
