:0200000480007A
:100000006F00804A6F00C02A6F0000496F00C0482F
:100010006F0080486F0040486F0000486F00C04785
:100020006F0080476F0040476F0000476F00C04679
:100030006F0080466F0040466F0000466F00C0456D
:100040006F0080456F0040456F0000456F00C04461
:100050006F0080446F0040446F0000446F00C04355
:100060006F0080436F0040436F0000436F00C04249
:100070006F0080426F0040426F0000426F000053EB
:1000800097310100938101C417010300130181F727
:1000900017050000130505F713651500731055309B
:1000A000138581F4138681253306A640930500004D
:1000B000EF50C01C175500001305C516EF30500255
:1000C000EF50400C130500009305000013060000DC
:0C00D000EF0000016F301002678000009C
:1000E000130101812326117E2324817E2322917E08
:1000F0002320217F232E317D93060000130101FD73
:10010000130600009305000013050020EF20501790
:10011000630A051613040500170501001305852859
:10012000EF40900D732920B0F32900B0970501002E
:10013000938505331306010013050400EF205033A7
:10014000F32420B0B3842441F32200B0170501004A
:100150001305452633893241EF40100A1307090081
:100160009386040013060900938504001705010017
:1001700013054525EF40406337160000130606803F
:10018000971501009385C5AD13050100EF40904C14
:1001900093090500631E0502170501001305052AD2
:1001A000EF40900513050400EF3040781301010380
:1001B0008320C17E138509000324817E8324417E30
:1001C0000329017E8329C17D1301017F678000001F
:1001D0001705010013050522EF401002B7170000B4
:1001E00013830780130401003309230097040100DF
:1001F000938444240316240083150400138504000B
:1002000013040402EF40405A031664FE831544FEB3
:1002100013850400EF4040590316A4FE831584FEA5
:1002200013850400EF4040580316E4FE8315C4FE16
:1002300013850400EF404057031624FF831504FF85
:1002400013850400EF404056031664FF831544FFF6
:1002500013850400EF4040550316A4FF831584FF67
:1002600013850400EF4040540316E4FF8315C4FFD8
:1002700013850400EF404053E31E24F79309100058
:100280006FF0DFF21705010013058510EF40C0760F
:10029000930910006FF09FF10000000000000000C3
:1002A0001305000067800000130000001300000029
:1002B0001305000067800000130000001300000019
:1002C0001305000067800000130000001300000009
:1002D00013050000678000001300000013000000F9
:1002E00013050000678000001300000013000000E9
:1002F00013050000678000001300000013000000D9
:1003000013050000678000001300000013000000C8
:1003100013050000678000001300000013000000B8
:1003200013050000678000001300000013000000A8
:100330001305000067800000130000001300000098
:100340001305000067800000130000001300000088
:100350001305000067800000130000001300000078
:100360001305000067800000130000001300000068
:100370001305000067800000130000001300000058
:100380001305000067800000130000001300000048
:100390001305000067800000130000001300000038
:1003A0001305000067800000130000001300000028
:1003B0001305000067800000130000001300000018
:1003C0001305000067800000130000001300000008
:1003D00013050000678000001300000013000000F8
:1003E00013050000678000001300000013000000E8
:1003F00013050000678000001300000013000000D8
:1004000013050000678000001300000013000000C7
:1004100013050000678000001300000013000000B7
:1004200013050000678000001300000013000000A7
:100430001305000067800000130000001300000097
:100440001305000067800000130000001300000087
:100450001305000067800000130000001300000077
:100460001305000067800000130000001300000067
:100470001305000067800000130000001300000057
:100480001305000067800000130000001300000047
:10049000130500006780000017050100130555D201
:1004A000EF4080556FF05FFF130101FC2320110026
:1004B0002322A1002324B1002326C1002328D10038
:1004C000232AE100232CF100232E01012320110314
:1004D0002322510223246102232671022328C1030F
:1004E000232AD103232CE103232EF103F32220340A
:1004F00013032000638862021303B0006388620064
:1005000013033000638862006F00C002EF00403EBA
:100510006F00400317050100130545C6EF40C04DAD
:100520006F00400217050100130545C0EF40C04CA5
:100530006F00400117050100130565C6EF40C04B71
:100540006F004002F32210340383020013053000D1
:100550003373A3006314A3009382220093822200CA
:10056000739012348320010003254100832581000C
:100570000326C1008326010103274101832781014E
:100580000328C1018328010283224102032381023F
:100590008323C102032E0103832E4103032F810312
:1005A000832FC10313010104730020307300203036
:1005B0003305A04023AEA1F41305F0FF67800000CF
:1005C00097070100938707C21308500537070010EB
:1005D0002320070183C61700638006062320D70067
:1005E00083C22700638A02042320570003C3370015
:1005F000630403042320670083C34700638E030260
:100600002320770003C55700630805022320A700B5
:1006100083C56700638205022320B70003C6770005
:1006200093878700630A06002320C70003C80700DA
:10063000E31008FA678000006780000013000000E4
:100640009307800523AEF1F41305F0FF67800000E7
:100650009307800523AEF1F41305F0FF67800000D7
:100660009307800523AEF1F41305F0FF67800000C7
:100670009307800523AEF1F41305F0FF67800000B7
:100680009307800523AEF1F41305F0FF67800000A7
:100690001305F0FF67800000130000001300000046
:1006A0009307C00023AEF1F41305F0FF678000004C
:1006B000B707048023A0A700730050106F0000004C
:1006C0009307800523AEF1F41305F0FF6780000067
:1006D0009307B00023AEF1F41305F0FF678000002C
:1006E000B727000023A2F500130500006780000073
:1006F0009307800523AEF1F41305F0FF6780000037
:100700009307800523AEF1F41305F0FF6780000026
:10071000930780FA23AEF1F4130500006780000010
:100720001305100067800000130000001300000094
:10073000930780FA23AEF1F41305F0FF6780000001
:100740001305F5FF13351500678000001300000046
:100750009307600123AEF1F41305F0FF67800000FA
:100760009307F00123AEF1F41305F0FF678000005A
:100770001305000067800000130000001300000054
:100780009307800523AEF1F41305F0FF67800000A6
:100790001305F0FF67800000130000001300000045
:1007A0009307800523AEF1F41305F0FF6780000086
:1007B0001305000067800000130000001300000014
:1007C000B727000023A2F500130500006780000092
:1007D0001305F0FF67800000130000001300000005
:1007E0001305F0FF678000001300000013000000F5
:1007F0009307200023AEF1F41305F0FF678000009B
:100800009307800523AEF1F41305F0FF6780000025
:100810009307A00023AEF1F41305F0FF67800000FA
:10082000130101FF23202101138981F4832709008B
:1008300023248100232291002326110093840500A4
:1008400013040600638A070213060400938504005C
:1008500017250100130505C7EF0080598320C1004B
:1008600013050400032481008324410003290100AF
:100870001301010167800000B7C5010013063000B5
:1008800093850520172501001305C5C3EF004049D6
:1008900093021000232059006FF01FFB130000008B
:1008A00023ACA1F2130500006780000013000000D4
:1008B000138781F3032307003305A3002320A70038
:1008C000637C250097F202009382C2736376550021
:1008D00013050300678000009307C0001303F0FFB7
:1008E00023AEF1F41305030067800000130000003D
:1008F000130101FF23229100232611009307100802
:100900009384050063CC170D9307F00263D6170399
:10091000938008FD9302100563E41202170301009F
:100920001303838E93982000338768008323070086
:10093000B385630067800500930E1001638AD80FAA
:1009400093045005170701001307C789B70F00105C
:1009500023A09F0083471700638E070423A0FF0096
:10096000834027006388000423A01F0083423700D0
:100970006382020423A05F0003434700630C030269
:1009800023A06F00834857006386080223A01F013D
:10099000834367006380030223A07F0083457700C1
:1009A000638A05001307870023A0BF008344070064
:1009B000E39004FA8320C100832441001301010164
:1009C000678000008320C100130E800523AEC1F5AF
:1009D0008324410013010101678000009300F0406F
:1009E000E3C010F79302F03F63D61203938808C068
:1009F0001303F000E36613F517070100130747958B
:100A0000939328003385E300832505003386E500B2
:100A100067000600130EC00AE38EC8F963461E0382
:100A2000130F9009E388E8F9930F900AE39AF8F11D
:100A3000130F80FA23AEE1F56FF0DFF737250000E2
:100A400023A2A4006FF01FF7930E600DE39AD8EF76
:100A500023ACA1F26FF01FF61308F00123AE01F5ED
:100A60006FF05FF59306200023AED1F46FF09FF492
:100A7000370404802320A400730050106F0000008E
:100A80009304600123AE91F46FF0DFF22320210183
:100A9000138981F42324810013040600032609002E
:100AA00063060602130604000324810003290100E3
:100AB0008320C10093850400832441001725010091
:100AC000130545A0130101016F008032B7C6010074
:100AD0001306300093850620172501001305859E17
:100AE000EF00002413081000232009016FF09FFB82
:100AF0008327C500638807208328050163840820B5
:100B00000328050003469500032745018346480155
:100B1000B3E2C600A304550013F306026302031EEA
:100B2000B383E84093050001138F030063F475005D
:100B3000130F0001638AE81C338EE700834E0E001A
:100B4000930F1700130610002300D801232AF50184
:100B50006370761AB386F70183C206001303270079
:100B60009305200023005800232A650063F27518BE
:100B7000338E6700834E0E00130637009306300055
:100B80002300D801232AC50063F47616B382C70078
:100B900003C3020093054700130E400023006800C2
:100BA000232AB50063767E14B38EB70083C60E0089
:100BB00013065700930250002300D800232AC500D3
:100BC00063F872123383C70083450300930E6700F6
:100BD000130E60002300B800232AD501637A7E102B
:100BE000B386D70183C20600130677001303700093
:100BF00023005800232AC500637C730EB385C70009
:100C000083CE050093068700130E80002300D801D1
:100C1000232AD500637E7E0CB382D70003C3020073
:100C2000130697009305900023006800232AC5004F
:100C300063F0750CB38EC70083C60E009302A70045
:100C4000130EA0002300D800232A550063727E0AE9
:100C500033835700834503001306B700930EB0009B
:100C60002300B800232AC50063F47E08B386C700BA
:100C700083C206001303C700130EC00023005800F0
:100C8000232A650063767E06B385670083CE050060
:100C90001306D7009306D0002300D801232AC500ED
:100CA00063F87604B382C70003C302009305E7002C
:100CB000130EE00023006800232AB500637A7E0249
:100CC000B38EB70083C60E001306F7009302F00040
:100CD0002300D800232AC50063FC7200B387C70035
:100CE00003C307001307070123006800232AE50058
:100CF00093050000638403009305FFFF3387F5012C
:100D00006384E800678000008348480023280500CA
:100D100013F5D80F2302A80067800000130000001D
:100D2000130101FE232A910083240500232C810056
:100D30002328210123263101232E110023820400C0
:100D400023840400930770FC2384F40023880400A8
:100D50002322B5001304050013890500930906003A
:100D6000930600001386050037D512139305000083
:100D7000EF20006EB7028000637455029350F500B7
:100D8000130700F82386E40013F3F00F13557500E2
:100D9000238264009373F50F23807400238604007C
:100DA0002386340123043401A304040097050000C2
:100DB000938545D4232224018320C10123280400E4
:100DC00023260400232A0400232E0400232C0400DD
:100DD000232204022320B40203248101832441013D
:100DE000032901018329C10013010102678000006A
:100DF000130101FF23260100638C0522630A0622EA
:100E0000032505003386C5009307100303474501FA
:100E1000232601008326C1009372F70F63E2D70AED
:100E20000323C10093031300232671000328C1008C
:100E300063E807098328C100138E18002326C10127
:100E4000832EC10063EED707032FC100930F1F004D
:100E50002326F1010327C10063E4E7068326C100CE
:100E600013831600232661008323C10063EA7704FD
:100E70000328C1009308180023261101032EC10086
:100E800063E0C705832EC100138F1E002326E101F6
:100E9000832FC10063E6F7030327C1009306170001
:100EA0002326D1000323C10063EC67008323C10024
:100EB00013881300232601018328C100E3F217F7EA
:100EC00093F20202E38402F423260100032EC10000
:100ED00063E2C70B832EC100138F1E002326E1019E
:100EE000832FC10063E8F7090327C10093061700A9
:100EF0002326D1000323C10063EE67068323C100CC
:100F000013881300232601018328C10063E4170717
:100F10008322C100138E12002326C101832EC1003B
:100F200063EAD705032FC100930F1F002326F101A9
:100F30000327C10063E0E7048326C1001383160082
:100F4000232661008323C10063E677020328C100E2
:100F500093081800232611018322C10063EC570077
:100F6000032EC100930E1E002326D101032FC100C2
:100F7000E3F2E7F783CF05002300F5012326010004
:100F80000327C10063E2E70A8326C100138316002A
:100F9000232661008323C10063E877080328C1008A
:100FA00093081800232611018322C10063EE57061F
:100FB000032EC100930E1E002326D101032FC10072
:100FC00063E4E707832FC10013871F002326E10096
:100FD0008326C10063EAD7040323C10093031300EF
:100FE000232671000328C10063E007058328C100A0
:100FF0009382180023265100032EC10063E6C70325
:10100000832EC100138F1E002326E101832FC10010
:1010100063ECF7010327C100930617002326D100D4
:101020000323C100E3F267F693851500E390C5DE64
:10103000130101016780000013000000130000008D
:101040006388050E03C605006304060E83270500AA
:10105000130101FF9386150003C747019372F70F31
:10106000A30751000343F100937303026396030A3D
:1010700003C547019375F50FA307B1000348F100BD
:1010800093780802639A080803CE4701937EFE0F07
:10109000A307D101034FF100937F0F02639E0F0658
:1010A00003C747019372F70FA30751000343F100F1
:1010B000937303026392030603C547019375F50F0B
:1010C000A307B1000348F10093780802639608046F
:1010D00003CE4701937EFE0FA307D101034FF1001A
:1010E000937F0F02639A0F0203C747019372F70FB2
:1010F000A30751000343F10093730302639E0300AF
:1011000003C547019375F50FA307B1000348F1002C
:1011100093780802E38208F4938616002380C700C0
:1011200003C6F6FFE31A06F213010101678000000F
:10113000678000001300000013000000130000008F
:10114000630C0602638A0502032705009706000068
:101150009386469A2326B500834747002328C50077
:10116000232A05002320D50293E2270023025700FB
:10117000732340F16304030067800000B723000C71
:10118000171601001306063483A503003305C54076
:101190001338150093081000339E0801B36EBE008B
:1011A00023A0D3016780000013000000130000009B
:1011B00083270500034795008326050183C2470165
:1011C00033E3E200A304650093F3F20F6398060093
:1011D00013D5630013751500678000001305000028
:1011E00067800000130000001300000013000000DF
:1011F0009307050063800518630E06160327050094
:101200000345950083464701B3E2A600A384570037
:1012100013F31600630003169373360013050000E2
:10122000638C0308130810006380030793082000F1
:101230006386130303470700130510002380E500AE
:1012400003A7070003CE9700834E470133EFCE017B
:10125000A384E70193FF1E0063820F1283460700F9
:10126000B382A500130515002380D20003A7070051
:1012700003C397008343470133E86300A384070156
:1012800093F81300638C080E034E07003387A50004
:10129000130515002300C70103A7070083CE97009D
:1012A000034F4701B36FDF01A384F70193761F005B
:1012B0006386060C6306A60C83420700B383A50071
:1012C000130515002380530003A8070003CE9700E1
:1012D0003383A5000347480193080500B36EC70197
:1012E000A384D701137F1700630A0F08834F0800F8
:1012F00013051500B382A5002300F30183A30700A3
:1013000083C6970003C343013368D300A384070156
:10131000137E130063040E0603C703001385280021
:10132000B38EA5002380E20003AF070083CF9700B0
:1013300083424F01B3E3F201A384770093F61200D6
:10134000638E060203430F001385380023806E006E
:1013500003A7070083C89700034E470133681E01A7
:10136000A3840701937E1E00638A0E00E316A6F491
:1013700067800000130500006780000067800000A0
:10138000678000001300000013000000130000003D
:10139000F32740F163960702B726000C17170100E8
:1013A0001307471203A60600B302E54013B3120069
:1013B0009303100033986300B368C80023A016019C
:1013C000370E0100930EFEFF638CD5010325050047
:1013D00093F5F500034F4500B36FBF002302F501FD
:1013E00067800000130000001300000013000000DD
:1013F000638E05029307000C63EAC702032705000A
:10140000232EB5008342870013F3F203B363C300B6
:1014100093F5F30F2304B7000346470093661600C5
:101420002302D700732840F163040800678000009E
:10143000B728000C971E0100938ECE0803AE08005B
:101440003305D541133F1500930F1000B397EF01FB
:1014500033E7C70123A0E800678000001300000005
:1014600063840502032705002320B5022326050017
:10147000834747002328050093E2270023025700F3
:10148000732340F16304030067800000B723000C5E
:10149000971501009385050383A603003305B54026
:1014A0001336150013081000B318C80033EED80027
:1014B00023A0C30167800000130000001300000098
:1014C00063800502032705002322B50283474700F6
:1014D00093E2870023025700732340F16304030063
:1014E00067800000B723000C97150100938585FDE8
:1014F00083A603003305B54013361500130810000A
:10150000B318C80033EED80023A0C30167800000E1
:10151000638805126306061283270500834695003B
:1015200003C74701B362D700A30455001373070232
:1015300063080310930300011305060063F4C3005E
:101540001305000103C8050093081000238007015C
:1015500063FAC80E03CE1500930E20002380C70146
:1015600063F2CE0E03CF2500930F30002380E701F6
:1015700063FACF0C83C63500130740002380D700E1
:101580006372C70C83C245001303500023805700C9
:10159000637AC30A83C35500130860002380770071
:1015A0006372C80A83C86500130E70002380170198
:1015B000637ACE0883CE7500130F80002380D70195
:1015C0006372CF0883CF8500930690002380F701D4
:1015D00063FAC60683C295001307A0002380570054
:1015E0006372C70603C3A5009303B000238067009E
:1015F00063FAC30403C8B5009308C0002380070141
:1016000063F2C80403CEC500930ED0002380C70147
:1016100063FACE0203CFD500930FE0002380E701E9
:1016200063F2CF0283C6E5009302F0002380D70067
:1016300063FAC20083C5F5002380B700678000000D
:101640001305000067800000130000001300000075
:10165000832705000347950083C24701A3040500C3
:1016600033E5E2001375E509678000001300000010
:101670008327050003C58701678000001300000071
:1016800003270500834795008342470133E3F200B7
:10169000A304650013F50206678000001300000034
:1016A000032705008347C70093E20704230657007A
:1016B000678000001300000013000000130000000A
:1016C000032705008347C70093F2F70B2306570053
:1016D0006780000000000000000000000000000023
:1016E000831E0500031E25000313450083186500B3
:1016F0001396EE009316EE001317E3009397E8009D
:1017000037480000B302D641B383C641330F674068
:10171000B38F1741B38E0201338E030133030F01E0
:10172000B3880F0113D6FE409356FE401357F34083
:1017300093D7F8402310C5002311D5002312E500EC
:101740002313F50003D8250083D505009312080163
:10175000B3E3B2007B900350035F2500835F650015
:10176000835E0500035E450013130F0193980F017C
:101770003366D301B3E6C801FB17D6587B17003890
:1017800013D80701935507012310F5002311050114
:101790002312E5002313B50067800000130000004A
:1017A000130101FC8313250183128501831FA50109
:1017B000232E8102232C9102031405018314A5001A
:1017C000232A2103232831030319850083192500C7
:1017D00023264103031A05001398D9009318D90052
:1017E000131EDA009397D400131FD4009396D300EE
:1017F000939ED2001397DF00374300002324510348
:1018000023226103B30A4E41330B3841330AF741B7
:1018100023207103232E8101B38B2841338C974001
:10182000232C9101232AA101B30C8F40338D7640E4
:101830002328B101B38D5E40B3896A0033096B0080
:10184000B3846B0033046C00B3836C00B3026D008F
:10185000B38F6D0033076A0093D8F4409357F44078
:1018600013DEF9401358F94013DFF34093D6F240EA
:1018700093DEFF40935AF7402310C5012311050161
:10188000231415012315F5002318E5012319D500AC
:10189000231CD501231D550103532600035B0600BD
:1018A000B70B0100138CFBFF931C0301139D070171
:1018B000B3FD880133EA6C01B369BD017B99491915
:1018C0009394060133748F01B3E38400FB924319B0
:1018D000939F0A0133F78E01B3E8EF00FB97481995
:1018E00013180801337E8E01336FC801FB1E5F2879
:1018F000FB165F20FB1AF9207B13F928135B030109
:10190000FB9B5629139C0B01135A0C4193D30B419B
:10191000FB9C5621B30D6040139D0C0113990D01E2
:1019200093590D4193D60C41B3646901639005242A
:101930007B949E209312040113D9024193520441D7
:10194000FB9F9E2813970F0193D80F419354074193
:10195000232611018317C5000313450003176500F3
:10196000831EE50083184501031E65010318C501A8
:101970000314E501939CD700931DD300131DD700DA
:10198000139CDE00939BD800131BDE00931AD80033
:10199000131FD400B74F00002318450133836D4057
:1019A0003307ED40B38DFC40032AC100B30EDC4188
:1019B000B3881B41330ECB4133880A4133048F4037
:1019C000B307F701B38CFD01338CFE01330FF40133
:1019D000330DF301B38BF801330BFE01B30AF801A9
:1019E00013D7FC40935DFC401353FD4013D4F740E4
:1019F00093D8FB40135EFB4013D8FA40135DFF40C1
:101A00002311D5002314250123155500231C95000F
:101A10002319750023103501231D4501231265008C
:101A2000231385002316E5002317B501231A15019A
:101A3000231BC501231E0501231FA5018353261067
:101A400083590610B70601001389F6FFB372270108
:101A500093940D01939F0301B3EE9200B3E73F010E
:101A6000FB9CFE18035C2620835B062033FB2801C9
:101A7000931A0E01131F0C0133675B01B36D7F01D5
:101A8000FB18B719035E2630035A06303378280155
:101A9000131D0D0113160E01B363A801B3694601AE
:101AA000FB96331913140401337323013369640063
:101AB000FB121929FB141921FB9FDC20FB9EDC285B
:101AC00093DC0E01FB97F429139C0701935B0C41F7
:101AD00013DB0741FB9AF4213307D041139F0A011E
:101AE000131E0701935D0F4193D80A41336A9E018B
:101AF0006382050A7B93422913190301135D09418F
:101B000093530341FB9242219394020193D60441E3
:101B100013D40241231F85000324C103231A750136
:101B2000231B65012312B5012316A50123131501FB
:101B300023177500231ED500832481030329410345
:101B400083290103032AC102832A8102032B410254
:101B5000832B0102032CC101832C8101032D410140
:101B6000832D01011301010467800000FB979E286B
:101B7000139807011359084193D207417B9E9E2079
:101B8000131F0E01935E0E4193540F412326D10182
:101B90006FF05FDC7B9842219315080113DD05414E
:101BA000935308417B9642299319060193D6094124
:101BB000135406416FF01FF61300000013000000DD
:101BC000130101FE232E8100232C9100232A2101E1
:101BD00023283101232641012324510123226101BD
:101BE000232071016392051E37080100130F0502BF
:101BF000930E0600130E0600B74800001303F8FF0B
:101C0000831B0500031B2500831A0502031A250206
:101C100083190504031925048314050603142506F6
:101C20009392DB001317DB001398DA009316DA00A7
:101C30009395D9009317D9009393D400931FD400A0
:101C4000B38B7241330B6741B30A5841338A464123
:101C5000B389354133892741B384934033848F401E
:101C6000B3821B0133071B0133881A01B3061A0123
:101C7000B3831401B3851901B3071901B30F14011C
:101C8000935BF84013DBF64093DAF240135AF740C7
:101C900093D9F54013D9F74093D2F34013D7FF40BF
:101CA00023105501231145012310750323116503EA
:101CB0002310350523112505231055062311E506AC
:101CC000035426008354060093160B0133F86B006F
:101CD00093150401B3E70601B3E39500FB9F771862
:101CE000835B2E00035B0E0013190901B3F9690031
:101CF00013940B01B3643901B3666401FB97D418E4
:101D000003D82E0083DB0E0013170701B3F2620025
:101D100093130801B365570033EB73017B99651981
:101D2000131A0A01B3FA6A00B3695A017B94F928BD
:101D3000FB94F920FB972F21FB9F2F29FB9BF42875
:101D400013060604130E0E08938E0E0CFB95F4205A
:101D5000B306F0411398060113D70F01B362E800F0
:101D60007B1B54207B19542893D30B0113DA0501F4
:101D7000935A0B019359090123107505231175041A
:101D80002310B500231145012310650323115503CA
:101D9000231025072311350713054500E312E5E756
:101DA0000324C10183248101032941018329010105
:101DB000032AC100832A8100032B4100832B0100E9
:101DC0001301010267800000B7080100930E0502AD
:101DD000130E060013030600374800009388F8FF2F
:101DE000831B0500031B2500831A0502031A250225
:101DF0008319050403192504831405060314250615
:101E00009392DB009317DB001397DA009315DA0047
:101E1000139FD9009316D900939FD4009313D40035
:101E2000B38B7241338B6741B30A5741338A4541C3
:101E3000B3093F4133892641B3849F4033848340B3
:101E4000B3820B01B3070B0133870A01B3050A0103
:101E5000B38F0401338F0901B3060901B3030401F1
:101E6000935BF74013DBF54093DAF24013DAF74067
:101E70009359FF4013D9F64093D2FF4093D7F340D4
:101E80002310550123114501231075032311650308
:101E90002310350523112505231055062311F506BA
:101EA000035426008354060033F71B0193150B01DE
:101EB000131F0401B366B700B36F9F00FB9BF619B5
:101EC00083532300035B0300B3F9190113190901BC
:101ED00013940301B3E4290133676401FB95E4180B
:101EE000035F2E00835F0E00B3F212019397070188
:101EF00093130F01B3E6F20033EBF301FB9966197C
:101F0000131A0A01B3FA1A0133695A017B14B9286A
:101F1000FB14B9207B9F3B21FB9B3B29FB95E429CC
:101F20001306060413030308130E0E0CFB97E4219B
:101F300033077041931F070193D20B01B3E35F0096
:101F4000FB1674287B1B742093D9050113DA070153
:101F500093DA060113590B012310B504231135053B
:101F60002310F500231145012310D5022311550339
:101F7000231065072311250713054500E392AEE6FC
:101F80006FF01FE2130000001300000013000000B8
:101F9000130101FE232E8100232C9100232A21010D
:101FA00023283101232641012324510123226101E9
:101FB000232071016392051E37080100130F0508E5
:101FC000930E0600130E0600B74800001303F8FF37
:101FD000831B0500031B2500831A0508031A250827
:101FE00083190510031925108314051803142518E7
:101FF0009392DB001317DB001398DA009316DA00D4
:102000009395D9009317D9009393D400931FD400CC
:10201000B38B7241330B6741B30A5841338A46414F
:10202000B389354133892741B384934033848F404A
:10203000B3821B0133071B0133881A01B3061A014F
:10204000B3831401B3851901B3071901B30F140148
:10205000935BF84013DBF64093DAF240135AF740F3
:1020600093D9F54013D9F74093D2F34013D7FF40EB
:10207000231055012311450123107509231165090A
:102080002310351123112511231055182311E5189C
:10209000035426008354060093160B0133F86B009B
:1020A00093150401B3E70601B3E39500FB9F77188E
:1020B000835B2E00035B0E0013190901B3F969005D
:1020C00013940B01B3643901B3666401FB97D41810
:1020D00003D82E0083DB0E0013170701B3F2620052
:1020E00093130801B365570033EB73017B996519AE
:1020F000131A0A01B3FA6A00B3695A017B94F928EA
:10210000FB94F920FB972F21FB9F2F29FB9BF428A1
:1021100013060601130E0E02938E0E03FB95F42098
:10212000B306F0411398060113D70F01B362E8001C
:102130007B1B54207B19542893D30B0113DA050120
:10214000935A0B019359090123107511231175102E
:102150002310B500231145012310650923115509EA
:10216000231025192311351913054500E312E5E75E
:102170000324C10183248101032941018329010131
:10218000032AC100832A8100032B4100832B010015
:102190001301010267800000B7080100930E0508D3
:1021A000130E060013030600374800009388F8FF5B
:1021B000831B0500031B2500831A0508031A250845
:1021C0008319051003192510831405180314251805
:1021D0009392DB009317DB001397DA009315DA0074
:1021E000139FD9009316D900939FD4009313D40062
:1021F000B38B7241338B6741B30A5741338A4541F0
:10220000B3093F4133892641B3849F4033848340DF
:10221000B3820B01B3070B0133870A01B3050A012F
:10222000B38F0401338F0901B3060901B30304011D
:10223000935BF74013DBF54093DAF24013DAF74093
:102240009359FF4013D9F64093D2FF4093D7F34000
:102250002310550123114501231075092311650928
:102260002310351123112511231055182311F518AA
:10227000035426008354060033F71B0193150B010A
:10228000131F0401B366B700B36F9F00FB9BF619E1
:1022900083532300035B0300B3F9190113190901E8
:1022A00013940301B3E4290133676401FB95E41837
:1022B000035F2E00835F0E00B3F2120193970701B4
:1022C00093130F01B3E6F20033EBF301FB996619A8
:1022D000131A0A01B3FA1A0133695A017B14B92897
:1022E000FB14B9207B9F3B21FB9B3B29FB95E429F9
:1022F0001306060113030302130E0E03FB97E421DA
:1023000033077041931F070193D20B01B3E35F00C2
:10231000FB1674287B1B742093D9050113DA07017F
:1023200093DA060113590B012310B510231135114F
:102330002310F500231145012310D5082311550959
:10234000231065192311251913054500E392AEE604
:102350006FF01FE2130000001300000013000000E4
:10236000130101FE232E8100232C9100232A210139
:102370002328310123264101232451012322610115
:10238000232071016392051E37080100130F0520F9
:10239000930E0600130E0600B74800001303F8FF63
:1023A000831B0500031B2500831A0520031A252023
:1023B0008319054003192540831405600314256023
:1023C0009392DB001317DB001398DA009316DA0000
:1023D0009395D9009317D9009393D400931FD400F9
:1023E000B38B7241330B6741B30A5841338A46417C
:1023F000B389354133892741B384934033848F4077
:10240000B3821B0133071B0133881A01B3061A017B
:10241000B3831401B3851901B3071901B30F140174
:10242000935BF84013DBF64093DAF240135AF7401F
:1024300093D9F54013D9F74093D2F34013D7FF4017
:102440002310550123114501231075212311652106
:102450002310354123112541231055602311E560D8
:10246000035426008354060093160B0133F86B00C7
:1024700093150401B3E70601B3E39500FB9F7718BA
:10248000835B2E00035B0E0013190901B3F9690089
:1024900013940B01B3643901B3666401FB97D4183C
:1024A00003D82E0083DB0E0013170701B3F262007E
:1024B00093130801B365570033EB73017B996519DA
:1024C000131A0A01B3FA6A00B3695A017B94F92816
:1024D000FB94F920FB972F21FB9F2F29FB9BF428CE
:1024E00013064600130E8E00938ECE00FB95F4204B
:1024F000B306F0411398060113D70F01B362E80049
:102500007B1B54207B19542893D30B0113DA05014C
:10251000935A0B01935909012310754123117540FA
:102520002310B500231145012310652123115521E6
:10253000231025612311356113054500E312E5E7FA
:102540000324C1018324810103294101832901015D
:10255000032AC100832A8100032B4100832B010041
:102560001301010267800000B7080100930E0520E7
:10257000130E060013030600374800009388F8FF87
:10258000831B0500031B2500831A0520031A252041
:102590008319054003192540831405600314256041
:1025A0009392DB009317DB001397DA009315DA00A0
:1025B000139FD9009316D900939FD4009313D4008E
:1025C000B38B7241338B6741B30A5741338A45411C
:1025D000B3093F4133892641B3849F40338483400C
:1025E000B3820B01B3070B0133870A01B3050A015C
:1025F000B38F0401338F0901B3060901B30304014A
:10260000935BF74013DBF54093DAF24013DAF740BF
:102610009359FF4013D9F64093D2FF4093D7F3402C
:102620002310550123114501231075212311652124
:102630002310354123112541231055602311F560E6
:10264000035426008354060033F71B0193150B0136
:10265000131F0401B366B700B36F9F00FB9BF6190D
:1026600083532300035B0300B3F919011319090114
:1026700013940301B3E4290133676401FB95E41863
:10268000035F2E00835F0E00B3F2120193970701E0
:1026900093130F01B3E6F20033EBF301FB996619D4
:1026A000131A0A01B3FA1A0133695A017B14B928C3
:1026B000FB14B9207B9F3B21FB9B3B29FB95E42925
:1026C0001306460013038300130ECE00FB97E4218C
:1026D00033077041931F070193D20B01B3E35F00EF
:1026E000FB1674287B1B742093D9050113DA0701AC
:1026F00093DA060113590B012310B540231135411C
:102700002310F500231145012310D5202311552155
:10271000231065612311256113054500E392AEE6A0
:102720006FF01FE213000000130000001300000010
:10273000130101FB232EB101832DC6002322910436
:1027400023267103232481032326110423248104D7
:1027500023202105232E3103232C4103232A510357
:1027600023286103232291032320A1032326A10010
:1027700093040600938B05002324A100130C000092
:10278000032B8100930A0C04930C0C0513890AFC9B
:1027900013040B0293172900930904FE338DFB00E9
:1027A000138A090003570D0013050A0093850D00D5
:1027B0002310EA0083502D00130A8A00130D0D1018
:1027C000231D1AFE83520D30231E5AFE03532D3053
:1027D000231F6AFEEFE0DFF06306440183ADC4000F
:1027E0006FF05FFC03AD440083ADC40013850900A6
:1027F00093050D0013860D0013090901EFE05FFA40
:1028000013040402E31859F913050B0013860D0095
:1028100093050D00930A4900EFF08FBA130B0B08D4
:10282000E3969AF7832A810093050D0013860D0025
:1028300013850A00EFF0CFF513850A20130C1C0056
:102840002324A10093054000E31CBCF2032481046F
:102850000325C1008320C10483244104032901040A
:102860008329C103032A8103832A4103032B010324
:10287000832BC102032C8102832C410213860D009D
:1028800093050D00832DC101032D010213010105E4
:102890006FF01FAD130000001300000013000000D4
:1028A000130101F9232EB10383ADC60023261106BF
:1028B0009317260093104600232291062320210718
:1028C000232E31052320A10523248106232C410535
:1028D000232A510523286105232671052324810518
:1028E000232291052326A102938406009319A600B2
:1028F0002320A1022324F1022322B102232C110060
:10290000131D660013198600232E01008322C101C6
:10291000032741020323010293830205138C02045F
:102920002328E10023266100232A71000324C1002B
:10293000032A0101930A0CFC13040402130B04FE86
:10294000930B0B00930C0A0083D60C0033863C01DA
:1029500093850D002390DB0003D82C0013850B001A
:10296000938B8B00239D0BFF83580600B38C2C01A7
:10297000239E1BFF835D2600239FBBFFEFE05FD6F6
:102980006306740183ADC4006FF01FFC83AB440089
:1029900083ADC40013050B0093850B0013860D0057
:1029A000938A0A01EFE0DFDF330AAA01130404026D
:1029B000E3165CF9832AC10093850B0013860D0092
:1029C00013850A00EFF0CF9F032E0101832E8101B2
:1029D000832F410193850A08330FDE01130C4C004D
:1029E0002326B1002328E101E312FCF5032C0102A8
:1029F00013860D0093850B0013050C00EFF04FD9E3
:102A00008327C1018323410203248102938217009B
:102A100013030C20338A8300232E510023206102EC
:102A200023224103130B4000E39262EF032481064B
:102A30000325C1028320C106832441060329010620
:102A40008329C105032A8105832A4105032B01053A
:102A5000032C8104832C4104032D010413860D00F3
:102A600093850B00832DC103832BC1041301010740
:102A70006FF01F8F13000000130000001300000010
:102A8000130101FE232C810093073500232E110032
:102A900013040500139527006380060663020604ED
:102AA00083A0060063EEA00223A0A6001305060083
:102AB0008320C101232085000324810197020100A6
:102AC00083A2C20D170301000323C30D2322B50007
:102AD00023265500232465001301010267800000AE
:102AE00023A0A600130500008320C1010324810157
:102AF00013010102678000002326B100EF0050623D
:102B00008325C100E31605FA130500006FF0DFFD11
:102B1000130101FE232A910023263101232E1100E7
:102B200093040500938906006382C5028320C101D6
:102B300013050600938604001386090083244101CF
:102B40008329C100130101026FF09FD5232C81005E
:102B500013840500638005068320050023282101D6
:102B600013952000EF00D05B130905006306050AEA
:102B7000938604001386090093050400EFF05FD2EA
:102B800003A604009305090013050400131626008C
:102B9000EF20807C032481018320C1018324410133
:102BA0008329C10013050900032901011301010252
:102BB0006F00D0579709010083A989FE83A30900FC
:102BC000130670019305100083A6C30017F50000DB
:102BD0001305850BEF10502C83A6090093051000F8
:102BE0001306100183A6C60017F500001305450B58
:102BF000EF10902A83A50900032481011305A0008A
:102C000083A5C5008320C101832441018329C1001C
:102C1000130101026F1050099704010083A444F8C6
:102C200083A70400130670019305100083A6C70054
:102C300017F5000013050508EF10102683A2040005
:102C4000930510001306800183A6C20017F500004B
:102C50001305C507EF10502403A3040003248101CA
:102C6000032901018325C3001305A0006FF09FF91C
:102C7000130101FF23229100232611009304050074
:102C8000638EC5008320C10013050600138604006F
:102C900083244100130101016FF09FA923248100C7
:102CA00013840500638C0504832005002320210183
:102CB00013952000EF00D046130905006300050AB4
:102CC0001386040093050400EFF09FA603A60400FA
:102CD000930509001305040013162600EF20C067B2
:102CE000032481008320C1008324410013050900CF
:102CF00003290100130101016F0050431704010073
:102D0000032404EA832304001306700193051000D2
:102D100083A6C30017F50000130505F7EF10D017C1
:102D200083260400930510001306100183A6C60035
:102D300017F500001305C5F6EF10101683250400E3
:102D4000032481001305A00083A5C5008320C100D2
:102D500083244100130101016F10007597040100E5
:102D600083A404E483A704001306700193051000F4
:102D700083A6C70017F500001305C5F3EF10D011A7
:102D800083A20400930510001306800183A6C200ED
:102D900017F50000130585F3EF10101003A30400CE
:102DA00003248100032901008325C3001305A0002B
:102DB0006FF0DFF9130000001300000013000000A3
:102DC00067800000130000001300000013000000E3
:102DD0009377150093063000130750001308100076
:102DE000639407189307050013D6F701B302F600A2
:102DF00093D7124013D3F70193F51700B303F300F1
:102E00006394050893D7134093D8F70193FE1700F6
:102E1000338EF800639A0E0693571E4013DFF701B6
:102E200013F61700B30FFF006310060693D71F4079
:102E300093D2F70193F317003383F20063960304F0
:102E40009357134093D5F70113FE1700B388F5008D
:102E5000631C0E0293D7184093DEF70193FF17000F
:102E6000338FFE0063920F0293571F4013D6F70172
:102E700013F31700B302F6006318030093D7124050
:102E800093F31700E38203F6B3E5D70263920506D6
:102E9000B3C7D702B3E8D702639C0804B3C7D7020D
:102EA00033EED70263160E04B3C7D702B3EED702D0
:102EB00063900E04B3C7D70233EFD702631A0F0231
:102EC000B3C7D702B3EFD70263940F02B3C7D702D9
:102ED00033E6D702631E0600B3C7D702B3E2D702B8
:102EE00063980200B3C7D70233E3D702E30203FAC1
:102EF000B3E3E70263920306B3C7E702B3E5E70271
:102F0000639C0504B3C7E702B3E8E70263960804CD
:102F1000B3C7E70233EEE70263100E04B3C7E7025C
:102F2000B3EEE702639A0E02B3C7E70233EFE7029C
:102F300063140F02B3C7E702B3EFE702639E0F000B
:102F4000B3C7E70233E6E70263180600B3C7E70238
:102F5000B3E2E702E38202FA635CF80013051500AE
:102F600093771500E38007E8930705006FF0DFF122
:102F7000678000001308000063C6051263DC0600CA
:102F8000B337C000B306D0401348F8FFB386F6400D
:102F90003306C0409308060013070500138305009D
:102FA000639A060E63F4C516B70701006364F62240
:102FB000B7070001930680016374F60093060001D1
:102FC000B7270180335ED600938747CEB387C7010A
:102FD00083C70700130E0002B387D700B306FE4075
:102FE000630CFE003393D500B357F500B318D60039
:102FF00033E367003317D50013D608013355C302F6
:103000009396080193D60601935707013373C302C1
:10301000B385A60213130301B3E7670063FCB7008F
:10302000B387F8001303F5FF63E4170163E6B740C5
:1030300013050300B387B740B3D5C70213170701C1
:1030400013570701B3F7C702B386B6029397070178
:103050003367F700637ED7003387E8009387F5FF77
:10306000636617019385E5FF6364D70093850700C6
:10307000131505013365B50093050000630A0800C8
:10308000B337A000B305B040B385F5403305A04089
:103090006780000063F4D50293050000130500006B
:1030A0006FF0DFFDB337A000B305B040B385F54046
:1030B0003305A0401308F0FF6FF05FECB707010085
:1030C00063E8F61EB70700019308800163F4F60079
:1030D00093080001B727018033D71601938747CEA5
:1030E000B387E70003C70700930700023307170100
:1030F000B388E7406396E71C63E4B6303335C50018
:1031000013351500930500006FF05FF7630C060C94
:10311000B7070100637CF62C13330610133313003A
:1031200013133300B3566600B7270180938747CE49
:10313000B387D70083C6070093070002B3866600F3
:10314000B38ED7406394D70CB386C54013530601A2
:1031500013160601135606019305100033D56602B7
:1031600093570701B3F66602330EC5029396060124
:10317000B3E7D70063FCC701B387F8009306F5FFF8
:1031800063E4170163E4C72B13850600B387C741C7
:10319000B3D667021317070113570701B3F7670286
:1031A0003386C602939707013367F700637EC70033
:1031B0003387E8009387F6FF636617019386E6FF7F
:1031C0006364C70093860700131505013365D500B6
:1031D0006FF0DFEA9336061093B61600939636002A
:1031E0006FF01FDEB727018093060000938747CE5C
:1031F000B387D70083C607001303000093070002BC
:10320000B3866600B38ED740E380D7F4B318D601F7
:1032100033DED50013D30801B3576E0213960801AD
:1032200013560601B356D5003317D501B395D50112
:10323000B3E6B60093D50601337E6E023305F6027F
:10324000131E0E01B3E5C50163FEA500B385B800EA
:10325000138EF7FF63E4151D63F2A51C9387E7FF48
:10326000B3851501B385A54033D565029396060154
:1032700093D60601B3F56502330EA60293950501B8
:10328000B3E6B60063FEC601B386D8009305F5FF2A
:1032900063EE161763FCC6171305E5FFB386160128
:1032A00093950701B386C641B3E5A5006FF01FEB08
:1032B00093B8061093B81800939838006FF09FE108
:1032C000B35EE600B3961601B3EEDE0033D3E5003D
:1032D00013DF0E01B357E303139E0E01B3951501DF
:1032E000135E0E013357E5003367B70093560701AD
:1032F000331616013373E303B305FE021313030100
:10330000B3E6660063FEB600B386DE001383F7FF04
:1033100063EAD61163F8B6109387E7FFB386D60148
:10332000B386B640B3D5E603131707011357070159
:10333000B3F6E6033303BE02939606013367D70064
:10334000637E67003387EE009386F5FF6364D70DD5
:103350006372670C9385E5FF3307D70193970701E5
:10336000370F0100B3E7B7009306FFFFB3F5D700AF
:1033700013DE0701B376D60013560601B38ED502CD
:1033800033076740B306DE0213D30E01B385C502CF
:10339000B385D500B305B300330ECE0263F4D50078
:1033A000330EEE0193D60501B386C601636AD702D8
:1033B0006308D70013850700930500006FF01FCC4A
:1033C000B70601009386F6FF33F7D5001317070100
:1033D000B3FEDE00331515013307D701E37CE5FCAE
:1033E0001385F7FF930500006FF05FC9B707000171
:1033F000637AF60493560601130300016FF0DFD2DF
:1034000093050000130510006FF05FC713850500DA
:103410006FF01FE9938506006FF05FF493070E00CD
:103420006FF05FE4930703006FF09FEF1305E5FF74
:10343000B38717016FF09FD51305E5FFB387170119
:103440006FF05FBF93568601130380016FF0DFCDED
:103450001308060093080500138705006390060E05
:1034600063FEC512B7070100636EF61EB7070001C1
:10347000930680016374F60093060001B72701806C
:103480003353D600938747CEB387670083C70700BF
:1034900013030002B387D700B306F340630CF300B5
:1034A0003397D500B357F5003318D60033E7E7005C
:1034B000B318D500135608013355C70293160801F7
:1034C00093D6060193D708013377C702B385A602C6
:1034D00013170701B3E7E70063FCB700B307F80071
:1034E0001307F5FF63E4070163E0B73E1305070028
:1034F000B387B74033D7C7029398080193D8080120
:10350000B3F7C702B386E60293970701B3E8F80062
:1035100063FED800B30818019307F7FF63E60801BC
:103520001307E7FF63E4D8001387070013150501AD
:103530003365E500930500006780000063F8D5005F
:10354000930500001305000067800000B707010025
:1035500063E8F61EB70700011308800163F4F60064
:1035600013080001B727018033D70601938747CEA0
:10357000B387E70003C7070093070002330707017B
:103580003388E7406396E71C63E4B6303335C50003
:10359000133515009305000067800000630C060CCE
:1035A000B7070100637CF62C13370610133717009A
:1035B00013173700B356E600B7270180938747CE2D
:1035C000B387D70083C7070093060002B387E700DD
:1035D000B38EF6406394F60CB387C540935606014C
:1035E00013160601135606019305100033D5D702B2
:1035F00013D70801B3F7D7023303C5029397070126
:10360000B367F70063FC6700B307F8001307F5FF23
:1036100063E4070163E4672A13050700B387674083
:1036200033D7D7029398080193D80801B3F7D7028C
:103630003306C70293970701B3E8F80063FEC8009A
:10364000B30818019307F7FF63E608011307E7FFC4
:1036500063E4C80013870700131505013365E5000F
:10366000678000009336061093B6160093963600D6
:103670006FF0DFE0B727018093060000938747CE05
:10368000B387D70083C70700130700009306000223
:10369000B387E700B38EF640E380F6F43318D60123
:1036A00033D3F50093560801335ED3021316080195
:1036B000B395D50113560601B357F500B3E7B7002C
:1036C00013D70701B318D5013373D302B305C6036B
:1036D0001313030133676700637EB7003307E80005
:1036E0001305FEFF6364071D6372B71C130EEEFF24
:1036F000330707013307B7403355D70293970701C4
:1037000093D707013377D7023303A60213170701B4
:10371000B3E7E70063FE6700B307F8001307F5FFA0
:1037200063EE071763FC67161305E5FFB387070110
:1037300093150E01B3876740B3E5A5006FF01FEB4B
:1037400013B8061013381800131838006FF09FE1F3
:10375000335EE600B3960601336EDE00B3D8E500B3
:10376000935E0E01B3D7D80313130E01B395050171
:10377000135303013357E5003367B700935607012E
:1037800033160601B3F8D803B305F3029398080182
:10379000B3E6160163FEB600B306DE009388F7FFBA
:1037A00063EAC61163F8B6109387E7FFB386C601D4
:1037B000B386B640B3D5D6031317070113570701D5
:1037C000B3F6D603B308B302939606013367D70066
:1037D000637E17013307EE009386F5FF6364C70D20
:1037E0006372170D9385E5FF3307C70193970701B0
:1037F000B70E0100B3E7B7009386FEFFB3F5D7001D
:1038000013D30701B376D60013560601338ED502C3
:1038100033071741B306D30293580E01B385C5028F
:10382000B385D500B385B8003303C30263F4D50074
:103830003303D30193D60501B3866600636AD702CA
:103840006308D70013850700930500006780000018
:10385000B70601009386F6FF33F7D500131707016B
:10386000337EDE00331505013307C701E37CE5FC39
:103870001385F7FF9305000067800000B70700017C
:10388000637AF60493560601130700016FF0DFD246
:103890009305000013051000678000001305070062
:1038A0006FF01FE9938506006FF05FF4130E0500BB
:1038B0006FF05FE4938708006FF09FEF1305E5FF5B
:1038C000B38707016FF09FD51305E5FFB3870701A5
:1038D0006FF01FC293568601130780016FF0DFCD92
:1038E0009305050093060000130600001305000071
:1038F0006F109049130101FF9305000023248100FC
:103900002326110013040500EF10905183A781F5C1
:1039100063840700E780070013050400EFC05FD948
:103920009305050003A541F46F0000019305050010
:1039300003A541F46F109075130101FD232E310191
:103940002326110223248102232291022320210312
:103950009387B50013076001930905006360F708BA
:103960009307000163E0B720EF0000789307800120
:10397000930520009304000113898182B307F900A5
:1039800003A44700138787FF6300E43483274400C0
:103990008326C4000326840093F7C7FFB307F4000F
:1039A00003A747002326D60023A4C60013671700E9
:1039B0001385090023A2E700EF004073130584007C
:1039C0008320C102032481028324410203290102CE
:1039D0008329C101130101036780000093F487FF6D
:1039E00063C2071863E0B418EF0000709307701FFC
:1039F00063F6973E93D79400638E07161307400033
:103A0000636CF73293D76400938597031388870319
:103A100013963500138981823306C90003244600BA
:103A2000130686FF630886021305F0006F0040014D
:103A30008326C40063560728630ED600138406004D
:103A40008327440093F7C7FF33879740E352E5FE8F
:103A5000930508000324090193088900630E1425C7
:103A6000832744009306F00093F7C7FF33879740FE
:103A700063CCE636232A1901232819016350073441
:103A80001307F01F032549006368F72413F787FF26
:103A9000130787003307E9008326070013D6570072
:103AA00093071000B397C7003365F500930787FFAE
:103AB0002326F4002324D4002322A90023208700F6
:103AC00023A6860093D72540130610003316F60070
:103AD000636AC50AB377A60063940702131616003B
:103AE00093F5C5FFB377A60093854500639A070059
:103AF00013161600B377A60093854500E38A07FEE8
:103B00001308F00013933500330369001305030015
:103B10008327C500138E05006302F52403A7470021
:103B20001384070083A7C7001377C7FFB306974026
:103B30006342D824E3C206FE3307E400832647002D
:103B4000032684001385090093E616002322D7007C
:103B50002326F60023A4C700EF0040591305840074
:103B60006FF01FE69307C00023A0F90013050000C3
:103B70006FF01FE513060020930500041308F003FF
:103B80006FF05FE903248900232861018327440043
:103B900013FBC7FF63689B0033079B409307F0004C
:103BA00063CAE70C23229101232A510103A7C1F321
:103BB00083AA41F5232C4101232671019307F0FFCD
:103BC000330A6401B38A54016306F73CB717000057
:103BD0009387F700B38AFA00B7F7FFFFB3FAFA004A
:103BE00093850A0013850900EF10804D9307F0FFBD
:103BF000930B0500630AF54423248101636E45237A
:103C0000138C81F683250C00B385BA002320BC00F9
:103C1000138705006316AA2A931745016392072AA2
:103C2000832B8900B3075B0193E7170023A2FB00F6
:103C300083A601F563F4B60023A8B1F483A6C1F40A
:103C400063F4B60023A6B1F4032C810013840B00A7
:103C500093F7C7FF3387974063EA97389307F000DD
:103C600063D6E738032A8101832A4101832BC100EF
:103C7000832C410093E714002322F400B304940042
:103C800023249900136717001385090023A2E40079
:103C9000EF00C0458320C102130584000324810284
:103CA000032B010183244102032901028329C1015D
:103CB0001301010367800000032549006FF09FE0B6
:103CC000032684006FF09FCD03A4C70093852500D1
:103CD000E38287D86FF09FCB13D7970093064000FD
:103CE00063F2E6149306400163E4E6321306C70567
:103CF0009306B705131636003306C90003270600DE
:103D0000130686FF6318E6006F004029032787002B
:103D10006308E6008326470093F6C6FFE3E8D7FE74
:103D20000326C7002326C4002324E400232486009E
:103D3000232687006FF01FD9130740016378F7101F
:103D4000130740056364F72E93D7C4009385F706E5
:103D50001388E706139635006FF0DFCB130E1E00B5
:103D600093773E0013058500638007108327C50005
:103D70006FF09FDA0326840093E514002322B40039
:103D80002326F60023A4C700B3049400232A990035
:103D90002328990093E7160023A6140123A41401F5
:103DA00023A2F4003307E400138509002320D70081
:103DB000EF00C033130584006FF09FC0B307F40019
:103DC00003A74700138509001367170023A2E70024
:103DD000EF00C031130584006FF09FBE93D534000F
:103DE000938784006FF05FB993E614002322D40018
:103DF000B3049400232A990023289900936617009E
:103E000023A6140123A4140123A2D400B307F400B1
:103E10001385090023A0E700EF00402D130584005F
:103E20006FF01FBA13D76700130697039306870333
:103E3000131636006FF05FEC630C2407032489002F
:103E4000032C8100832744006FF09FE09385C70512
:103E50001388B705139635006FF0DFBB8327830007
:103E60009385F5FF639E672693F73500130383FF61
:103E7000E39607FE032749009347F6FFB3F7E700F1
:103E80002322F90013161600E3EEC7CEE30C06CE8C
:103E90003377F600631A0700131616003377F6001F
:103EA000130E4E00E30A07FE93050E006FF09FC548
:103EB000138C81F603270C003387EA002320EC00E3
:103EC00083A6C1F39307F0FF6386F618B3874B41CF
:103ED000B387E7002320FC0093FC7B00638C0C0C71
:103EE000B38B9B41B717000093878700938B8B00A0
:103EF000B3859741B38A5B01B385554193954501DD
:103F000013DA450193050A0013850900EF10401BE1
:103F10009307F0FF6300F51833057541B30A4501B7
:103F200003270C002324790193E71A00B305EA0064
:103F30002320BC0023A2FB00E30C24CF9306F00057
:103F400063F0660B0327440093074BFF93F787FF4B
:103F5000137717003367F7002322E400130650009D
:103F60003307F4002322C7002324C70063E6F600CA
:103F700083A74B006FF0DFCB930584001385090006
:103F8000EF10D010832B890083250C0083A74B00F2
:103F90006FF01FCA938A0A016FF09FC493D6264020
:103FA00093071000B397D7003365F5002322A900CB
:103FB0006FF05FD7B3855B01B305B04093954501C2
:103FC00013DA450193050A0013850900EF10400F2D
:103FD0009307F0FFE312F5F4130A00006FF05FF4AB
:103FE000032C81009307100023A2FB001385090016
:103FF000EF00C00F13050000032A8101832A41014D
:10400000032B0101832BC100832C41006FF05F9BC8
:104010009306400563E4E60413D7C7001306F706CA
:104020009306E706131636006FF01FCD13074015F1
:104030006364F70493D7F4009385870713887707A1
:10404000139635006FF01F9D0324890083274400D9
:104050006FF01FC023AE71F36FF01FE89306401599
:1040600063E4E60413D7F700130687079306770780
:10407000131636006FF05FC8130740556364F704EA
:1040800093D724019385D7071388C7071396350064
:104090006FF05F98938C8CFFB38A9A01B38A7A4150
:1040A000130A00006FF0DFE79306405563E4E60271
:1040B00013D727011306D7079306C7071316360031
:1040C0006FF09FC31306803F9305F0071308E007C6
:1040D0006FF05F941306803F9306E0076FF0DFC137
:1040E000832749006FF01FDA6780000067800000B7
:1040F0001305000067800000B7950080138601C398
:104100009385C5C6138501C46F000041130101FFEB
:1041100083254500232481002322910023261100BA
:10412000138401F99304050063848500EF40103483
:1041300083A58400930784066386F5001385040035
:10414000EF40D03283A5C4001304040D638E8500B4
:10415000032481008320C1001385040083244100CF
:10416000130101016F4090308320C10003248100BE
:104170008324410013010101678000001305000042
:1041800067800000130101FE232C8100B7470080E7
:10419000138401F99387870F232E1100232A91009E
:1041A00023282101232631012324410123ACF1F4EA
:1041B0001306800093074000930500001305C40513
:1041C0002326F400232004002322040023240400D7
:1041D0002322040623280400232A0400232C04009D
:1041E000EF10C009B7070100375A0080B7590080A7
:1041F00037590080B7540080130A4AA0938989A6D2
:10420000130909AF938484B693879700130680003F
:10421000930500001305440C232044032322340398
:104220002324240323269402232AF406232E840025
:104230002324040623260406232804062326040C2C
:10424000232C0406232E040623200408EF10000369
:10425000B707020013078406938727011305C412CA
:104260001306800093050000232444092326340903
:1042700023282409232A9408232EF40C2322E4085B
:104280002328040C232A040C232C040C232A0412B4
:104290002320040E2322040E2324040EEF00107E9C
:1042A0009307040D2328440F232A340F232C240FB3
:1042B000232E940E8320C1012326F40E03248101B2
:1042C00083244101032901018329C100032A8100BC
:1042D000130101026780000083A781F5130101FE2D
:1042E00023263101232E1100232C8100232A910043
:1042F00023282101930905006386070E138901C352
:104300009304F0FF83274900032489009387F7FF74
:1043100063D807006F00000813048406638C9706B7
:104320000317C4009387F7FFE31807FEB707FFFFE3
:10433000938717002326F400232204062320040079
:10434000232404002322040023280400232A040039
:10435000232C040013068000930500001305C405F8
:10436000EF00D07123280402232A0402232204042C
:10437000232404048320C1011305040003248101C4
:1043800083244101032901018329C1001301010292
:104390006780000003240900630604001309040079
:1043A0006FF05FF69305C01A13850900EFF0CFD8C0
:1043B00013040500630C05021305C50093074000B4
:1043C000232004002322F4002324A4001306001A4F
:1043D00093050000EF00906A232089001309040070
:1043E0006FF05FF2EFF01FDA6FF05FF1232009004A
:1043F0009307C00023A0F9006FF0DFF78327450380
:10440000638407006780000003A781F5B747008039
:104410009387C710232AF502E31607FE6FF09FD695
:104420006780000067800000B7450080138601C3E5
:104430009385050F130500006F00000EB74500803F
:10444000138601C39385C517130500006F00C00CC8
:10445000130101FE232C8100232E110013040500FB
:104460006306050083274503638C070013050400DA
:10447000032481018320C101130101026F008037F1
:104480002326C1002324B100EFF05FF713050400D9
:10449000032481010326C100832581008320C101FB
:1044A000130101026F000035130101FE232A910060
:1044B00083A441F4232C8100232E11001304050052
:1044C000138605006386040083A744036380070204
:1044D00093050400032481018320C1011385040096
:1044E00083244101130101026F00C03013850400D1
:1044F0002326B100EFF09FF093050400032481010F
:104500000326C1008320C1011385040083244101D7
:10451000130101026F00002E130101FD232021036E
:10452000232E3101232C4101232A5101232861012B
:1045300023267101232611022324810223229102C2
:10454000130B0500938B0500930A0600130A000065
:10455000930910001309F0FF83A44A0003A48A0002
:104560009384F4FF63C804028357C40063FEF90018
:104570008317E4009305040013050B0063862701ED
:10458000E7800B00336AAA009384F4FF13048406C7
:10459000E39C24FD83AA0A00E3900AFC8320C10265
:1045A0000324810283244102032901028329C101DA
:1045B000832A4101032B0101832BC10013050A004B
:1045C000032A81011301010367800000130101FB2D
:1045D000232021053389C6029307C1012322F1025A
:1045E000930710002324810423229104232E3103F6
:1045F000232EB100232611042324F10223202103BA
:104600002326210393090600138406009304050062
:1046100093050700630605008327450363860706A5
:104620008397C500139727016342070203A7450636
:10463000B7E6FFFF9386F6FF37260000B3E7C70013
:104640003377D7002396F50023A2E506130641022F
:1046500013850400EF405025630805008327C1023D
:104660003309F940335439038320C104130504008E
:104670000324810483244104032901048329C10301
:1046800013010105678000002326E100EFF01FD72A
:104690008325C1006FF0DFF8130101FB2322910491
:1046A000B384C502232E310383A941F49307C101CA
:1046B0002322F102930710002324810423202105E3
:1046C00023261104232EA1002324F102232091028A
:1046D0002326910213890500130406009385060022
:1046E0006386090083A74903638607068397C5008D
:1046F000139727016342070203A74506B7E6FFFFAA
:104700009386F6FF37260000B3E7C7003377D7005C
:104710002396F50023A2E50613064102138509003E
:10472000EF409018630805008327C102B384F4406A
:1047300033D424038320C10413050400032481041B
:1047400083244104032901048329C10313010105C2
:1047500067800000138509002326D100EFF01FCAEF
:104760008325C1006FF09FF8130101FC2324C102CF
:104770002326D1022328E102232AF102232C01035C
:10478000232E1103138605008325850093068102DD
:10479000232E11002326D100EF10803F8320C1017A
:1047A000130101046780000003A341F4130101FC1D
:1047B0002324C1022326D1022322B1022328E102AD
:1047C000232AF102232C0103232E110383258300C6
:1047D000930641021306050013050300232E110062
:1047E0002326D100EF10C03A8320C1011301010438
:1047F00067800000130101FE232C8100232E11008D
:10480000130405006306050083274503638007063C
:10481000832786009387F7FF2324F60063DC0700D5
:104820000327860163CAE70293F7F50F1307A00079
:104830006384E7028327060013F5F50F138717003B
:104840002320E6002380B7008320C10103248101D7
:104850001301010267800000130504000324810195
:104860008320C101130101026F0080302326C100A3
:104870002324B100EFF09FB80326C10083258100F7
:104880006FF01FF9130101FE232A210103A941F44E
:10489000232C9100232E11009304050063060900C8
:1048A000832749036388070683A785009387F7FF5B
:1048B00023A4F50063DC070003A7850163CCE702AE
:1048C00093F7F40F1307A0006386E70283A70500A0
:1048D00013F5F40F1387170023A0E500238097003A
:1048E0008320C101832481010329410113010102B5
:1048F000678000008320C1011386050013050900AD
:1049000093850400032941018324810113010102DD
:104910006F000026130509002326B100EFF01FAE3B
:104920008325C1006FF05FF8130101FC232C810285
:104930001304050013850500232A9102232E11027A
:1049400093840500EF00903BB7270180938747DEF3
:104950002324F102930710002326F10203274403C6
:104960009307010293061500232AF1009307200004
:10497000232091022322A102232ED100232CF10017
:1049800083258400630007068397C50013972701DA
:104990006342070203A74506B7E6FFFF9386F6FFCB
:1049A00037260000B3E7C7003377D7002396F5001A
:1049B00023A2E5061306410113050400EF40C06E73
:1049C0008320C10303248103133515003305A04060
:1049D0001375B500832441031305F5FF130101048A
:1049E00067800000130504002326B100EFF01FA12B
:1049F0008325C1006FF05FF99305050003A541F41D
:104A00006FF09FF2130101FF23248100138405003E
:104A10008395E50023261100EF0000646340050242
:104A2000832704058320C100B387A7002328F4044B
:104A30000324810013010101678000008357C40033
:104A400037F7FFFF1307F7FFB3F7E7008320C10035
:104A50002316F40003248100130101016780000084
:104A600013050000678000008397C500130101FE55
:104A7000232C8100232A91002328210123263101A0
:104A8000232E110013F7071013840500930405006B
:104A900013090600938906006310070437F7FFFF28
:104AA0001307F7FFB3F7E7008315E4002316F400BC
:104AB000032481018320C1019386090013060900A4
:104AC0008329C100032901011385040083244101C6
:104AD000130101026F0080648395E50093062000B6
:104AE00013060000EF00C0508317C4006FF01FFBD7
:104AF000130101FF23248100138405008395E50041
:104B000023261100EF00C04E9307F0FF6308F50263
:104B10008357C400371700008320C100B3E7E700C4
:104B20009397070193D707412328A4042316F40081
:104B30000324810013010101678000008357C40032
:104B400037F7FFFF1307F7FFB3F7E7009397070166
:104B500093D707418320C1002316F400032481006A
:104B600013010101678000008395E5006F00403666
:104B7000130101FE232C8100232A91002328210107
:104B8000232E110013090500938405001304060069
:104B90006306050083274503638007168327840186
:104BA0000317C4002324F400937787006380070869
:104BB00083270401638C07062326310193162701FE
:104BC00093F9F40F93F4F40F63D806080327040055
:104BD00083264401B307F74063D8D70A83268400AD
:104BE000130617002320C4009386F6FF2324D40065
:104BF0002300370103274401938717006302F70C52
:104C00008357C40093F71700639A070C8329C100E8
:104C10008320C101032481010329010113850400BC
:104C20008324410113010102678000009305040001
:104C300013050900EF00000E631E05080317C400EA
:104C400023263101832704019316270193F9F40FDA
:104C500093F4F40FE3CC06F68326440637E6FFFF11
:104C6000B72500003367B7001306F6FFB3F6C6009A
:104C70002316E400032704002322D40683264401DC
:104C8000B307F740E3CCD7F49305040013050900FC
:104C9000EF40C033631E050203270400832684000F
:104CA00093071000130617009386F6FF2320C40015
:104CB0002324D4002300370103274401E312F7F42F
:104CC0009305040013050900EF404030E30005F4AC
:104CD0008329C1009304F0FF6FF09FF39307A000B6
:104CE000E396F4F29305040013050900EF40002E4B
:104CF000E30E05F06FF0DFFDEFF04FF06FF01FEA0D
:104D00009307050003A541F413860500938507006A
:104D10006FF01FE683A741F4130101FF23248100F4
:104D2000232291002326110093040500138405001B
:104D30006386070003A74703630C070E8317C400AD
:104D400013F78700630A07060327040163060708B1
:104D500093F6170063880602832644012324040087
:104D600013050000B306D040232CD400630A0702C9
:104D70008320C10003248100832441001301010129
:104D80006780000093F62700130600006394060076
:104D9000032644012324C40013050000E31A07FC82
:104DA00013F70708E30607FC93E707042316F4004C
:104DB0001305F0FF6FF0DFFB13F70701630007082F
:104DC00013F74700631C07020327040193E78700DA
:104DD0002316F400E31E07F693F6072813060020B7
:104DE000E388C6F69305040013850400EF40C07CF9
:104DF0008317C400032704016FF09FF58325040384
:104E0000638E0500130704046388E500138504001E
:104E1000EF00D0278317C4002328040203270401CE
:104E200093F7B7FD232204002320E4006FF01FFA5C
:104E300013850700EFF08FDC6FF05FF01307900031
:104E400023A0E40093E707042316F4001305F0FF02
:104E50006FF01FF29307300063FEC702B3E7A500AF
:104E600093F7370063940702930630006F00400108
:104E70001306C6FF130545009385450063FCC60075
:104E80000327050083A70500E304F7FE9306F6FF5A
:104E90006F00C0009306F6FF6308060293861600B3
:104EA000B306D5006F0080006380A602834705002B
:104EB00003C705001305150093851500E386E7FE7B
:104EC0003385E7406780000013050000678000001D
:104ED000130101FF23248100232291001304050004
:104EE000138505002326110023AE01F4EFB04FFA1D
:104EF0009307F0FF630CF5008320C10003248100B9
:104F000083244100130101016780000083A7C1F5DC
:104F1000E38407FE8320C1002320F40003248100E2
:104F200083244100130101016780000083A741F43D
:104F3000638EA70A83254504130101FE232A9100ED
:104F4000232E110093040500638C050423282101FE
:104F500023263101232C8100130900009309000846
:104F6000B387250103A40700630E04009305040022
:104F70000324040013850400EF005011E31804FE1D
:104F800083A5440413094900E31C39FD138504007B
:104F9000EF00D00F03248101032901018329C100FF
:104FA00083A584036386050013850400EF00100EBB
:104FB00083A5C4046386050013850400EF00100D6B
:104FC00083A74403638C07008320C1011385040079
:104FD0008324410113010102678007008320C1017E
:104FE00083244101130101026780000067800000F3
:104FF000130101FF13870500232481002322910060
:105000009305060013040500138606001305070028
:105010002326110023AE01F4EFB08FF59307F0FFC4
:10502000630CF5008320C100032481008324410028
:10503000130101016780000083A7C1F5E38407FE27
:105040008320C1002320F400032481008324410035
:105050001301010167800000130101FF13870500A0
:1050600023248100232291009305060013040500E8
:1050700013860600130507002326110023AE01F452
:10508000EFB00FF39307F0FF630CF5008320C1002E
:105090000324810083244100130101016780000083
:1050A00083A7C1F5E38407FE8320C1002320F40019
:1050B0000324810083244100130101016780000063
:1050C000130101FF23248100232291001304050012
:1050D000138505002326110023AE01F4EFB04FFD28
:1050E0009307F0FF630CF5008320C10003248100C7
:1050F00083244100130101016780000083A7C1F5EB
:10510000E38407FE8320C1002320F40003248100F0
:10511000832441001301010167800000130101FF96
:1051200013870500232481002322910093050600A4
:10513000130405001386060013050700232611003B
:1051400023AE01F4EFB0CFED9307F0FF630CF50051
:105150008320C10003248100832441001301010145
:105160006780000083A7C1F5E38407FE8320C100A8
:105170002320F40003248100832441001301010152
:1051800067800000130101FF23248100B7270180FD
:1051900037240180232021019387074C1307044CF7
:1051A00023261100232291003389E7406382E7021E
:1051B000135929401304044C93040000832704006E
:1051C0009384140013044400E7800700E3E824FFFD
:1051D00037240180B72701809387074C1307044CBD
:1051E0003389E740135929406380E7021304044CD4
:1051F00093040000832704009384140013044400E4
:10520000E7800700E3E824FF8320C1000324810036
:10521000832441000329010013010101678000007C
:10522000130101FF23248100B72701803724018067
:105230009387074C1304044C3304F4402322910059
:105240002326110093542440638004021304C4FFF6
:105250003304F400832704009384F4FF1304C4FF91
:10526000E7800700E39804FE8320C1000324810047
:105270008324410013010101678000001303F00043
:1052800013070500637EC3029377F7006390070A54
:1052900063920508937606FF1376F600B386E60060
:1052A0002320B7002322B7002324B7002326B7000A
:1052B00013070701E366D7FE63140600678000004A
:1052C000B306C3409396260097020000B3865600AB
:1052D0006780C6002307B700A306B7002306B70000
:1052E000A305B7002305B700A304B7002304B70044
:1052F000A303B7002303B700A302B7002302B7003C
:10530000A301B7002301B700A300B7002300B70033
:105310006780000093F5F50F93968500B3E5D500FF
:1053200093960501B3E5D5006FF0DFF6939627005D
:1053300097020000B386560093820000E78006FAC9
:1053400093800200938707FF3307F7403306F60088
:10535000E378C3F66FF0DFF3B3C7A50093F7370028
:10536000B308C500639407069307300063F0C706CF
:105370009377350013070500639A070613F6C8FFF5
:10538000B306E6409307000263CED7089386050074
:10539000930707006378C70203A8060093874700B6
:1053A0009386460023AE07FFE3E8C7FE9307F6FFA8
:1053B000B387E74093F7C7FF938747003307F700AA
:1053C000B385F500636817016780000013070500C7
:1053D0006378150583C7050013071700938515002B
:1053E000A30FF7FEE398E8FE6780000083C6050080
:1053F0001307170093773700A30FD7FE9385150087
:10540000E38E07F683C6050013071700937737006E
:10541000A30FD7FE93851500E39A07FC6FF01FF6E4
:1054200067800000130101FF23268100130400029E
:1054300083A3050083A2450083AF850003AFC500A9
:1054400083AE050103AE450103A3850103A8C50191
:1054500083A6050213074702B307E640232E77FC15
:10546000232057FE2322F7FF2324E7FF2326D7FF1D
:105470002328C7FF232A67FE232C07FF232ED7FEEE
:1054800093854502E346F4FA9386050093070700E7
:105490006378C70203A806009387470093864600F7
:1054A00023AE07FFE3E8C7FE9307F6FFB387E740A5
:1054B00093F7C7FF938747003307F700B385F500DD
:1054C000636817010324C100130101016780000014
:1054D00083C705001307170093851500A30FF7FE78
:1054E000E382E8FE83C705001307170093851500C4
:1054F000A30FF7FEE39EE8FC6FF0DFFC9377350027
:1055000013070500639C0704B7867F7F9386F6F731
:105510009305F0FF0326070013074700B377D60073
:10552000B387D700B3E7C700B3E7D700E384B7FE7C
:105530008346C7FFB307A740638406048346D7FFAB
:10554000638C06020345E7FF3335A0003305F50001
:105550001305E5FF67800000E38806FA834707002C
:105560001307170093763700E39807FE3307A74029
:105570001305F7FF678000001385D7FF67800000E1
:105580001385C7FF6780000083A701F6638C0704BB
:1055900003A747001308F0016340E8081318270029
:1055A00063060502338307012324C30883A88718F1
:1055B000130610003316E600B3E8C80023A4171939
:1055C0002324D310930620006306D5021307170087
:1055D00023A2E700B387070123A4B7001305000047
:1055E000678000001388810C23A001F79387810C4A
:1055F0006FF01FFA83A6C7181307170023A2E7004E
:10560000B3E6C60023A6D718B387070123A4B700C3
:1056100013050000678000001305F0FF678000009D
:10562000130101FD232C41012320210303A901F6CD
:10563000232611026308090A232E3101232A51016E
:105640002328610123267101232481022322910250
:1056500023248101130B0500938B05009309F0FFB0
:10566000930A1000832449001384F4FF634E04045A
:1056700093942400B304990063900B088327490096
:1056800083A644009387F7FF638C870A23A2040054
:10569000638606028327891833978A00032C490002
:1056A000B377F70063960706E780060003274900F3
:1056B00083A701F663108709639E27071304F4FF8D
:1056C0009384C4FFE31A34FB032481028324410240
:1056D0008329C101832A4101032B0101832BC100CE
:1056E000032C81008320C10203290102032A8101C6
:1056F000130101036780000083A74410E38077F95A
:105700001304F4FF9384C4FFE31834FF6FF0DFFB4E
:105710008327C91883A544083377F7006316070267
:1057200013050B00E78006000327490083A701F655
:10573000E30487F9E38A07F8138907006FF09FF203
:10574000232289006FF0DFF413850500E78006004F
:105750006FF0DFF5130101FE23263101B729018027
:10576000232C8100232A9100232821012324410195
:10577000232E1100138A0500130905009389894E11
:10578000EFE09F9603A78900B71700009387F7FE05
:10579000832447003717000093F4C4FF3384F400D8
:1057A000330444411354C4001304F4FF1314C4001D
:1057B000634EE4009305000013050900EFF05F90CD
:1057C00083A78900B38797006308F50213050900D2
:1057D000EFE0DF918320C101032481018324410193
:1057E000032901018329C100032A81001305000058
:1057F0001301010267800000B30580401305090012
:10580000EFF01F8C9307F0FF6308F504938781F690
:1058100003A7070083A68900B384844093E414009F
:10582000330787401305090023A2960023A0E70051
:10583000EFE0DF8B8320C101032481018324410138
:10584000032901018329C100032A810013051000E7
:105850001301010267800000930500001305090091
:10586000EFF01F8603A789009306F000B307E54019
:10587000E3DEF6F483A6C1F393E717002322F700D3
:105880003305D54023A4A1F66FF05FF463820518B9
:10589000130101FF232481002322910013840500BA
:1058A0009304050023261100EFE01F840325C4FFA5
:1058B000130784FFB72501809377E5FF3306F700D0
:1058C0009385854E8326460003A8850093F6C6FF80
:1058D0006302C81A2322D600137515003308D600B8
:1058E0006310050A032384FF03284800372501803D
:1058F00033076740832887001305054FB387670088
:10590000137818006382A8140323C70023A6680035
:10591000232413016306081A93E617002322D700F5
:105920002320F6009306F01F63ECF60693F687FF3C
:105930009386860003A54500B386D50003A606001E
:1059400013D8570093071000B3970701B3E7A700D8
:10595000138586FF2326A7002324C70023A2F50072
:1059600023A0E6002326E600032481008320C10053
:105970001385040083244100130101016FE00FF738
:1059800003254800137515006306050893E6170004
:10599000232ED4FE2320F6009306F01FE3F8F6F83A
:1059A00093D69700130640006360D61293D6670023
:1059B0001385960313868603131535003385A500DA
:1059C00083260500130585FF6318D5006F00401579
:1059D00083A686006308D50003A646001376C6FF9B
:1059E000E3E8C7FE03A5C6002326A7002324D700AB
:1059F000032481002324E5008320C10013850400D3
:105A00008324410023A6E600130101016FE00FEE9D
:105A10006780000037250180B387D7001305054F45
:105A200083268600638CA60C0328C60013E51700A6
:105A30003306F70023A606012324D8002322A7005B
:105A40002320F6006FF01FEE631C081283258600EA
:105A50000326C600B386F60093E7160023A6C5000A
:105A60002324B6002322F7003307D7002320D700D2
:105A70006FF09FEF13751500B386D7006310050212
:105A8000032584FF3307A7408327C7000326870029
:105A9000B386A6002326F60023A4C70013E616004B
:105AA00083A701F42322C70023A4E500E3EEF6EA6E
:105AB00083A541F513850400EFF0DFC96FF0DFEA3D
:105AC000B387D7006FF0DFF5130640016370D6028D
:105AD000130640056364D60693D6C7001385F60601
